{"contracts/TraceXNFT.sol":{"SupplyChainNFT":{"abi":[{"inputs":[],"stateMutability":"nonpayable","type":"constructor"},{"inputs":[],"name":"AccessControlBadConfirmation","type":"error"},{"inputs":[{"internalType":"address","name":"account","type":"address"},{"internalType":"bytes32","name":"neededRole","type":"bytes32"}],"name":"AccessControlUnauthorizedAccount","type":"error"},{"inputs":[{"internalType":"address","name":"sender","type":"address"},{"internalType":"uint256","name":"tokenId","type":"uint256"},{"internalType":"address","name":"owner","type":"address"}],"name":"ERC721IncorrectOwner","type":"error"},{"inputs":[{"internalType":"address","name":"operator","type":"address"},{"internalType":"uint256","name":"tokenId","type":"uint256"}],"name":"ERC721InsufficientApproval","type":"error"},{"inputs":[{"internalType":"address","name":"approver","type":"address"}],"name":"ERC721InvalidApprover","type":"error"},{"inputs":[{"internalType":"address","name":"operator","type":"address"}],"name":"ERC721InvalidOperator","type":"error"},{"inputs":[{"internalType":"address","name":"owner","type":"address"}],"name":"ERC721InvalidOwner","type":"error"},{"inputs":[{"internalType":"address","name":"receiver","type":"address"}],"name":"ERC721InvalidReceiver","type":"error"},{"inputs":[{"internalType":"address","name":"sender","type":"address"}],"name":"ERC721InvalidSender","type":"error"},{"inputs":[{"internalType":"uint256","name":"tokenId","type":"uint256"}],"name":"ERC721NonexistentToken","type":"error"},{"anonymous":false,"inputs":[{"indexed":true,"internalType":"address","name":"owner","type":"address"},{"indexed":true,"internalType":"address","name":"approved","type":"address"},{"indexed":true,"internalType":"uint256","name":"tokenId","type":"uint256"}],"name":"Approval","type":"event"},{"anonymous":false,"inputs":[{"indexed":true,"internalType":"address","name":"owner","type":"address"},{"indexed":true,"internalType":"address","name":"operator","type":"address"},{"indexed":false,"internalType":"bool","name":"approved","type":"bool"}],"name":"ApprovalForAll","type":"event"},{"anonymous":false,"inputs":[{"indexed":false,"internalType":"uint256","name":"_fromTokenId","type":"uint256"},{"indexed":false,"internalType":"uint256","name":"_toTokenId","type":"uint256"}],"name":"BatchMetadataUpdate","type":"event"},{"anonymous":false,"inputs":[{"indexed":true,"internalType":"uint256","name":"tokenId","type":"uint256"},{"indexed":false,"internalType":"enum SupplyChainNFT.Stage","name":"stage","type":"uint8"},{"indexed":false,"internalType":"string","name":"location","type":"string"},{"indexed":true,"internalType":"address","name":"handler","type":"address"},{"indexed":false,"internalType":"uint256","name":"timestamp","type":"uint256"}],"name":"CheckpointAdded","type":"event"},{"anonymous":false,"inputs":[{"indexed":false,"internalType":"uint256","name":"_tokenId","type":"uint256"}],"name":"MetadataUpdate","type":"event"},{"anonymous":false,"inputs":[{"indexed":true,"internalType":"uint256","name":"tokenId","type":"uint256"},{"indexed":false,"internalType":"string","name":"productId","type":"string"},{"indexed":false,"internalType":"string","name":"batchNumber","type":"string"},{"indexed":true,"internalType":"address","name":"manufacturer","type":"address"},{"indexed":false,"internalType":"uint256","name":"timestamp","type":"uint256"}],"name":"ProductMinted","type":"event"},{"anonymous":false,"inputs":[{"indexed":true,"internalType":"uint256","name":"tokenId","type":"uint256"},{"indexed":true,"internalType":"address","name":"from","type":"address"},{"indexed":true,"internalType":"address","name":"to","type":"address"},{"indexed":false,"internalType":"enum SupplyChainNFT.Stage","name":"newStage","type":"uint8"},{"indexed":false,"internalType":"uint256","name":"timestamp","type":"uint256"}],"name":"ProductTransferred","type":"event"},{"anonymous":false,"inputs":[{"indexed":true,"internalType":"bytes32","name":"role","type":"bytes32"},{"indexed":true,"internalType":"bytes32","name":"previousAdminRole","type":"bytes32"},{"indexed":true,"internalType":"bytes32","name":"newAdminRole","type":"bytes32"}],"name":"RoleAdminChanged","type":"event"},{"anonymous":false,"inputs":[{"indexed":true,"internalType":"bytes32","name":"role","type":"bytes32"},{"indexed":true,"internalType":"address","name":"account","type":"address"},{"indexed":true,"internalType":"address","name":"sender","type":"address"}],"name":"RoleGranted","type":"event"},{"anonymous":false,"inputs":[{"indexed":true,"internalType":"bytes32","name":"role","type":"bytes32"},{"indexed":true,"internalType":"address","name":"account","type":"address"},{"indexed":true,"internalType":"address","name":"sender","type":"address"}],"name":"RoleGrantedToUser","type":"event"},{"anonymous":false,"inputs":[{"indexed":true,"internalType":"bytes32","name":"role","type":"bytes32"},{"indexed":true,"internalType":"address","name":"account","type":"address"},{"indexed":true,"internalType":"address","name":"sender","type":"address"}],"name":"RoleRevoked","type":"event"},{"anonymous":false,"inputs":[{"indexed":true,"internalType":"address","name":"from","type":"address"},{"indexed":true,"internalType":"address","name":"to","type":"address"},{"indexed":true,"internalType":"uint256","name":"tokenId","type":"uint256"}],"name":"Transfer","type":"event"},{"inputs":[],"name":"ADMIN_ROLE","outputs":[{"internalType":"bytes32","name":"","type":"bytes32"}],"stateMutability":"view","type":"function"},{"inputs":[],"name":"DEFAULT_ADMIN_ROLE","outputs":[{"internalType":"bytes32","name":"","type":"bytes32"}],"stateMutability":"view","type":"function"},{"inputs":[],"name":"DISTRIBUTOR_ROLE","outputs":[{"internalType":"bytes32","name":"","type":"bytes32"}],"stateMutability":"view","type":"function"},{"inputs":[],"name":"MANUFACTURER_ROLE","outputs":[{"internalType":"bytes32","name":"","type":"bytes32"}],"stateMutability":"view","type":"function"},{"inputs":[],"name":"RETAILER_ROLE","outputs":[{"internalType":"bytes32","name":"","type":"bytes32"}],"stateMutability":"view","type":"function"},{"inputs":[{"internalType":"address","name":"to","type":"address"},{"internalType":"uint256","name":"tokenId","type":"uint256"}],"name":"approve","outputs":[],"stateMutability":"nonpayable","type":"function"},{"inputs":[{"internalType":"bytes32","name":"role","type":"bytes32"},{"internalType":"address","name":"account","type":"address"}],"name":"assignRole","outputs":[],"stateMutability":"nonpayable","type":"function"},{"inputs":[{"internalType":"address","name":"owner","type":"address"}],"name":"balanceOf","outputs":[{"internalType":"uint256","name":"","type":"uint256"}],"stateMutability":"view","type":"function"},{"inputs":[{"internalType":"bytes32","name":"role","type":"bytes32"},{"internalType":"address","name":"account","type":"address"}],"name":"checkRole","outputs":[{"internalType":"bool","name":"","type":"bool"}],"stateMutability":"view","type":"function"},{"inputs":[{"internalType":"uint256","name":"tokenId","type":"uint256"}],"name":"getApproved","outputs":[{"internalType":"address","name":"","type":"address"}],"stateMutability":"view","type":"function"},{"inputs":[{"internalType":"uint256","name":"tokenId","type":"uint256"}],"name":"getCheckpointCount","outputs":[{"internalType":"uint256","name":"","type":"uint256"}],"stateMutability":"view","type":"function"},{"inputs":[{"internalType":"uint256","name":"tokenId","type":"uint256"}],"name":"getFullProductHistory","outputs":[{"components":[{"internalType":"string","name":"productId","type":"string"},{"internalType":"string","name":"batchNumber","type":"string"},{"internalType":"uint256","name":"timestamp","type":"uint256"},{"internalType":"string","name":"location","type":"string"},{"internalType":"enum SupplyChainNFT.Stage","name":"stage","type":"uint8"},{"internalType":"address","name":"handler","type":"address"},{"internalType":"string","name":"notes","type":"string"}],"internalType":"struct SupplyChainNFT.Checkpoint[]","name":"","type":"tuple[]"}],"stateMutability":"view","type":"function"},{"inputs":[{"internalType":"uint256","name":"tokenId","type":"uint256"}],"name":"getProduct","outputs":[{"components":[{"internalType":"string","name":"productId","type":"string"},{"internalType":"string","name":"batchNumber","type":"string"},{"internalType":"uint256","name":"manufacturingDate","type":"uint256"},{"internalType":"string","name":"manufacturingLocation","type":"string"},{"internalType":"enum SupplyChainNFT.Stage","name":"currentStage","type":"uint8"},{"internalType":"address","name":"currentOwner","type":"address"},{"internalType":"bool","name":"exists","type":"bool"}],"internalType":"struct SupplyChainNFT.Product","name":"","type":"tuple"}],"stateMutability":"view","type":"function"},{"inputs":[{"internalType":"uint256","name":"tokenId","type":"uint256"}],"name":"getProductHistory","outputs":[{"components":[{"internalType":"string","name":"productId","type":"string"},{"internalType":"string","name":"batchNumber","type":"string"},{"internalType":"uint256","name":"timestamp","type":"uint256"},{"internalType":"string","name":"location","type":"string"},{"internalType":"enum SupplyChainNFT.Stage","name":"stage","type":"uint8"},{"internalType":"address","name":"handler","type":"address"},{"internalType":"string","name":"notes","type":"string"}],"internalType":"struct SupplyChainNFT.Checkpoint[]","name":"","type":"tuple[]"}],"stateMutability":"view","type":"function"},{"inputs":[{"internalType":"bytes32","name":"role","type":"bytes32"}],"name":"getRoleAdmin","outputs":[{"internalType":"bytes32","name":"","type":"bytes32"}],"stateMutability":"view","type":"function"},{"inputs":[{"internalType":"string","name":"productId","type":"string"}],"name":"getTokenIdByProductId","outputs":[{"internalType":"uint256","name":"","type":"uint256"}],"stateMutability":"view","type":"function"},{"inputs":[{"internalType":"address","name":"account","type":"address"}],"name":"getUserRole","outputs":[{"internalType":"string","name":"","type":"string"}],"stateMutability":"view","type":"function"},{"inputs":[{"internalType":"address","name":"account","type":"address"}],"name":"getUserRoles","outputs":[{"internalType":"string","name":"","type":"string"}],"stateMutability":"view","type":"function"},{"inputs":[{"internalType":"bytes32","name":"role","type":"bytes32"},{"internalType":"address","name":"account","type":"address"}],"name":"grantRole","outputs":[],"stateMutability":"nonpayable","type":"function"},{"inputs":[{"internalType":"bytes32","name":"role","type":"bytes32"},{"internalType":"address","name":"account","type":"address"}],"name":"hasRole","outputs":[{"internalType":"bool","name":"","type":"bool"}],"stateMutability":"view","type":"function"},{"inputs":[{"internalType":"address","name":"owner","type":"address"},{"internalType":"address","name":"operator","type":"address"}],"name":"isApprovedForAll","outputs":[{"internalType":"bool","name":"","type":"bool"}],"stateMutability":"view","type":"function"},{"inputs":[{"internalType":"string","name":"productId","type":"string"},{"internalType":"string","name":"batchNumber","type":"string"},{"internalType":"string","name":"location","type":"string"},{"internalType":"string","name":"tokenURI","type":"string"},{"internalType":"string","name":"notes","type":"string"}],"name":"mintProduct","outputs":[{"internalType":"uint256","name":"","type":"uint256"}],"stateMutability":"nonpayable","type":"function"},{"inputs":[],"name":"name","outputs":[{"internalType":"string","name":"","type":"string"}],"stateMutability":"view","type":"function"},{"inputs":[{"internalType":"uint256","name":"tokenId","type":"uint256"}],"name":"ownerOf","outputs":[{"internalType":"address","name":"","type":"address"}],"stateMutability":"view","type":"function"},{"inputs":[{"internalType":"uint256","name":"","type":"uint256"},{"internalType":"uint256","name":"","type":"uint256"}],"name":"productCheckpoints","outputs":[{"internalType":"string","name":"productId","type":"string"},{"internalType":"string","name":"batchNumber","type":"string"},{"internalType":"uint256","name":"timestamp","type":"uint256"},{"internalType":"string","name":"location","type":"string"},{"internalType":"enum SupplyChainNFT.Stage","name":"stage","type":"uint8"},{"internalType":"address","name":"handler","type":"address"},{"internalType":"string","name":"notes","type":"string"}],"stateMutability":"view","type":"function"},{"inputs":[{"internalType":"string","name":"","type":"string"}],"name":"productIdToTokenId","outputs":[{"internalType":"uint256","name":"","type":"uint256"}],"stateMutability":"view","type":"function"},{"inputs":[{"internalType":"uint256","name":"","type":"uint256"}],"name":"products","outputs":[{"internalType":"string","name":"productId","type":"string"},{"internalType":"string","name":"batchNumber","type":"string"},{"internalType":"uint256","name":"manufacturingDate","type":"uint256"},{"internalType":"string","name":"manufacturingLocation","type":"string"},{"internalType":"enum SupplyChainNFT.Stage","name":"currentStage","type":"uint8"},{"internalType":"address","name":"currentOwner","type":"address"},{"internalType":"bool","name":"exists","type":"bool"}],"stateMutability":"view","type":"function"},{"inputs":[{"internalType":"bytes32","name":"role","type":"bytes32"},{"internalType":"address","name":"callerConfirmation","type":"address"}],"name":"renounceRole","outputs":[],"stateMutability":"nonpayable","type":"function"},{"inputs":[{"internalType":"bytes32","name":"role","type":"bytes32"},{"internalType":"address","name":"account","type":"address"}],"name":"revokeRole","outputs":[],"stateMutability":"nonpayable","type":"function"},{"inputs":[{"internalType":"address","name":"from","type":"address"},{"internalType":"address","name":"to","type":"address"},{"internalType":"uint256","name":"tokenId","type":"uint256"}],"name":"safeTransferFrom","outputs":[],"stateMutability":"nonpayable","type":"function"},{"inputs":[{"internalType":"address","name":"from","type":"address"},{"internalType":"address","name":"to","type":"address"},{"internalType":"uint256","name":"tokenId","type":"uint256"},{"internalType":"bytes","name":"data","type":"bytes"}],"name":"safeTransferFrom","outputs":[],"stateMutability":"nonpayable","type":"function"},{"inputs":[{"internalType":"uint256","name":"tokenId","type":"uint256"},{"internalType":"address","name":"consumer","type":"address"},{"internalType":"string","name":"location","type":"string"},{"internalType":"string","name":"notes","type":"string"}],"name":"sellToConsumer","outputs":[],"stateMutability":"nonpayable","type":"function"},{"inputs":[{"internalType":"address","name":"operator","type":"address"},{"internalType":"bool","name":"approved","type":"bool"}],"name":"setApprovalForAll","outputs":[],"stateMutability":"nonpayable","type":"function"},{"inputs":[{"internalType":"bytes4","name":"interfaceId","type":"bytes4"}],"name":"supportsInterface","outputs":[{"internalType":"bool","name":"","type":"bool"}],"stateMutability":"view","type":"function"},{"inputs":[],"name":"symbol","outputs":[{"internalType":"string","name":"","type":"string"}],"stateMutability":"view","type":"function"},{"inputs":[{"internalType":"uint256","name":"tokenId","type":"uint256"}],"name":"tokenURI","outputs":[{"internalType":"string","name":"","type":"string"}],"stateMutability":"view","type":"function"},{"inputs":[{"internalType":"address","name":"from","type":"address"},{"internalType":"address","name":"to","type":"address"},{"internalType":"uint256","name":"tokenId","type":"uint256"}],"name":"transferFrom","outputs":[],"stateMutability":"nonpayable","type":"function"},{"inputs":[{"internalType":"uint256","name":"tokenId","type":"uint256"},{"internalType":"address","name":"distributor","type":"address"},{"internalType":"string","name":"location","type":"string"},{"internalType":"string","name":"notes","type":"string"}],"name":"transferToDistributor","outputs":[],"stateMutability":"nonpayable","type":"function"},{"inputs":[{"internalType":"uint256","name":"tokenId","type":"uint256"},{"internalType":"address","name":"retailer","type":"address"},{"internalType":"string","name":"location","type":"string"},{"internalType":"string","name":"notes","type":"string"}],"name":"transferToRetailer","outputs":[],"stateMutability":"nonpayable","type":"function"}],"evm":{"bytecode":{"linkReferences":{},"object":"60806040523480156200001157600080fd5b506040518060400160405280601281526020017114dd5c1c1b1e50da185a5b941c9bd91d58dd60721b8152506040518060400160405280600381526020016205343560ec1b81525081600090816200006a919062000217565b50600162000079828262000217565b506200008b91506000905033620000bf565b50620000b87fa49807205ce4d355092ef5a8a18f56e8913cf4a201fbe287825b095693c2177533620000bf565b50620002e3565b60008281526007602090815260408083206001600160a01b038516845290915281205460ff16620001685760008381526007602090815260408083206001600160a01b03861684529091529020805460ff191660011790556200011f3390565b6001600160a01b0316826001600160a01b0316847f2f8788117e7eff1d82e926ec794901d17c78024a50270940304540a733656f0d60405160405180910390a45060016200016c565b5060005b92915050565b634e487b7160e01b600052604160045260246000fd5b600181811c908216806200019d57607f821691505b602082108103620001be57634e487b7160e01b600052602260045260246000fd5b50919050565b601f8211156200021257600081815260208120601f850160051c81016020861015620001ed5750805b601f850160051c820191505b818110156200020e57828155600101620001f9565b5050505b505050565b81516001600160401b0381111562000233576200023362000172565b6200024b8162000244845462000188565b84620001c4565b602080601f8311600181146200028357600084156200026a5750858301515b600019600386901b1c1916600185901b1785556200020e565b600085815260208120601f198616915b82811015620002b45788860151825594840194600190910190840162000293565b5085821015620002d35787850151600019600388901b60f8161c191681555b5050505050600190811b01905550565b61463580620002f36000396000f3fe608060405234801561001057600080fd5b506004361061023d5760003560e01c806370a082311161013b578063b88d4fde116100b8578063d547741f1161007c578063d547741f1461054c578063e26c90981461055f578063e96b878f14610585578063e985e9c514610598578063f0bd87cc146105ab57600080fd5b8063b88d4fde146104e0578063b9db15b4146104f3578063c87b56dd14610513578063cc49225414610526578063d0b6d4781461053957600080fd5b806391d14854116100ff57806391d148541461049557806395d89b41146104a8578063965288b0146104b0578063a217fddf146104c5578063a22cb465146104cd57600080fd5b806370a082311461042157806373ec5a5b1461043457806375b238fc146104475780637acc0b201461045c5780637e739d7e1461048257600080fd5b806323b872dd116101c957806336568abe1161018d57806336568abe1461039d5780633a7d5d23146103b057806342842e0e146103db57806357a096a1146103ee5780636352211e1461040e57600080fd5b806323b872dd1461032e578063248a9ca31461034157806327820851146103645780632f2ff15d1461037757806330a727b31461038a57600080fd5b8063095ea7b311610210578063095ea7b3146102bd5780630e1b4e99146102d257806310b995b1146102f357806312d9a6ad146103065780632115e7bf1461031957600080fd5b806301ffc9a71461024257806306a36aee1461026a57806306fdde031461028a578063081812fc14610292575b600080fd5b610255610250366004613a65565b6105c0565b60405190151581526020015b60405180910390f35b61027d610278366004613a9e565b6105d1565b6040516102619190613b09565b61027d6107b3565b6102a56102a0366004613b1c565b610845565b6040516001600160a01b039091168152602001610261565b6102d06102cb366004613b35565b61086e565b005b6102e56102e0366004613c0b565b61087d565b604051908152602001610261565b6102e5610301366004613cdd565b610bfd565b610255610314366004613d12565b610c65565b6102e56000805160206145a083398151915281565b6102d061033c366004613d3e565b610c78565b6102e561034f366004613b1c565b60009081526007602052604090206001015490565b61027d610372366004613a9e565b610d03565b6102d0610385366004613d12565b610e31565b6102d0610398366004613d12565b610e56565b6102d06103ab366004613d12565b610eb5565b6102e56103be366004613cdd565b8051602081830181018051600b8252928201919093012091525481565b6102d06103e9366004613d3e565b610eed565b6104016103fc366004613b1c565b610f08565b6040516102619190613db2565b6102a561041c366004613b1c565b611638565b6102e561042f366004613a9e565b611643565b6102e5610442366004613b1c565b61168b565b6102e56000805160206145c083398151915281565b61046f61046a366004613b1c565b6116d6565b6040516102619796959493929190613ea0565b6102d0610490366004613f12565b6118ba565b6102556104a3366004613d12565b611c93565b61027d611cbe565b6102e560008051602061456083398151915281565b6102e5600081565b6102d06104db366004613f90565b611ccd565b6102d06104ee366004613fcc565b611cd8565b610506610501366004613b1c565b611cef565b604051610261919061403c565b61027d610521366004613b1c565b611f6a565b6102d0610534366004613f12565b611f75565b610401610547366004613b1c565b6123a4565b6102d061055a366004613d12565b61276f565b61057261056d3660046140df565b612794565b6040516102619796959493929190614101565b6102d0610593366004613f12565b612a23565b6102556105a636600461417e565b612e52565b6102e560008051602061458083398151915281565b60006105cb82612e80565b92915050565b60408051602081019091526000815260609060016105fd6000805160206145c083398151915285611c93565b1561062357505060408051808201909152600581526420a226a4a760d91b602082015260005b61063b60008051602061456083398151915285611c93565b15610697578061066a578160405160200161065691906141a8565b604051602081830303815290604052610690565b6040518060400160405280600c81526020016b26a0a72aa320a1aa2aa922a960a11b8152505b9150600090505b6106af60008051602061458083398151915285611c93565b1561070a57806106de57816040516020016106ca91906141d9565b604051602081830303815290604052610703565b6040518060400160405280600b81526020016a2224a9aa2924a12aaa27a960a91b8152505b9150600090505b6107226000805160206145a083398151915285611c93565b1561077a5780610751578160405160200161073d9190614209565b604051602081830303815290604052610773565b604051806040016040528060088152602001672922aa20a4a622a960c11b8152505b9150600090505b60008251116107a9576040518060400160405280600881526020016721a7a729aaa6a2a960c11b8152506107ab565b815b949350505050565b6060600080546107c290614236565b80601f01602080910402602001604051908101604052809291908181526020018280546107ee90614236565b801561083b5780601f106108105761010080835404028352916020019161083b565b820191906000526020600020905b81548152906001019060200180831161081e57829003601f168201915b5050505050905090565b600061085082612ea5565b506000828152600460205260409020546001600160a01b03166105cb565b610879828233612ede565b5050565b600060008051602061456083398151915261089781612eeb565b600b876040516108a79190614270565b90815260200160405180910390205460001461090a5760405162461bcd60e51b815260206004820152601960248201527f50726f6475637420494420616c7265616479206578697374730000000000000060448201526064015b60405180910390fd5b6008805490600061091a8361428c565b909155505060085461092c3382612ef8565b6109368186612f12565b6040518060e001604052808981526020018881526020014281526020018781526020016001600481111561096c5761096c613d7a565b81523360208083019190915260016040928301526000848152600990915220815181906109999082614301565b50602082015160018201906109ae9082614301565b5060408201516002820155606082015160038201906109cd9082614301565b5060808201518160040160006101000a81548160ff021916908360048111156109f8576109f8613d7a565b021790555060a08201516004909101805460c0909301511515600160a81b0260ff60a81b196001600160a01b039093166101000292909216610100600160b01b0319909316929092171790556040518190600b90610a57908b90614270565b9081526040805160209281900383018120939093556000848152600a835281812060e0850183528c85528385018c90524292850192909252606084018a90526001608085018190523360a086015260c0850189905282549081018355918152919091208251600690920201908190610acf9082614301565b5060208201516001820190610ae49082614301565b506040820151600282015560608201516003820190610b039082614301565b5060808201518160040160006101000a81548160ff02191690836004811115610b2e57610b2e613d7a565b021790555060a08201516004820180546001600160a01b0390921661010002610100600160a81b031990921691909117905560c08201516005820190610b749082614301565b505050336001600160a01b0316817fecb0f81e16c5770adc9d6fa39399183db9e321383199ead1a4910854ba4802178a8a42604051610bb5939291906143c1565b60405180910390a3336001600160a01b0316816000805160206145e083398151915260018942604051610bea939291906143f7565b60405180910390a3979650505050505050565b600080600b83604051610c109190614270565b9081526020016040518091039020549050806000036105cb5760405162461bcd60e51b8152602060048201526011602482015270141c9bd91d58dd081b9bdd08199bdd5b99607a1b6044820152606401610901565b6000610c718383611c93565b9392505050565b6001600160a01b038216610ca257604051633250574960e11b815260006004820152602401610901565b6000610caf838333612f62565b9050836001600160a01b0316816001600160a01b031614610cfd576040516364283d7b60e01b81526001600160a01b0380861660048301526024820184905282166044820152606401610901565b50505050565b6060610d1d6000805160206145c083398151915283611c93565b15610d4357505060408051808201909152600581526420a226a4a760d91b602082015290565b610d5b60008051602061456083398151915283611c93565b15610d8857505060408051808201909152600c81526b26a0a72aa320a1aa2aa922a960a11b602082015290565b610da060008051602061458083398151915283611c93565b15610dcc57505060408051808201909152600b81526a2224a9aa2924a12aaa27a960a91b602082015290565b610de46000805160206145a083398151915283611c93565b15610e0d5750506040805180820190915260088152672922aa20a4a622a960c11b602082015290565b505060408051808201909152600881526721a7a729aaa6a2a960c11b602082015290565b600082815260076020526040902060010154610e4c81612eeb565b610cfd838361305b565b6000805160206145c0833981519152610e6e81612eeb565b610e788383610e31565b60405133906001600160a01b0384169085907f03353a854f0595fb4016cfa84df1da352f25377c86bd1891e9eb17feeaae7c2a90600090a4505050565b6001600160a01b0381163314610ede5760405163334bd91960e11b815260040160405180910390fd5b610ee882826130ef565b505050565b610ee883838360405180602001604052806000815250611cd8565b600081815260096020526040902060040154606090600160a81b900460ff16610f435760405162461bcd60e51b815260040161090190614427565b6000828152600a6020908152604080832080548251818502810185019093528083529192909190849084015b8282101561124157838290600052602060002090600602016040518060e0016040529081600082018054610fa290614236565b80601f0160208091040260200160405190810160405280929190818152602001828054610fce90614236565b801561101b5780601f10610ff05761010080835404028352916020019161101b565b820191906000526020600020905b815481529060010190602001808311610ffe57829003601f168201915b5050505050815260200160018201805461103490614236565b80601f016020809104026020016040519081016040528092919081815260200182805461106090614236565b80156110ad5780601f10611082576101008083540402835291602001916110ad565b820191906000526020600020905b81548152906001019060200180831161109057829003601f168201915b50505050508152602001600282015481526020016003820180546110d090614236565b80601f01602080910402602001604051908101604052809291908181526020018280546110fc90614236565b80156111495780601f1061111e57610100808354040283529160200191611149565b820191906000526020600020905b81548152906001019060200180831161112c57829003601f168201915b505050918352505060048281015460209092019160ff169081111561117057611170613d7a565b600481111561118157611181613d7a565b8152600482015461010090046001600160a01b031660208201526005820180546040909201916111b090614236565b80601f01602080910402602001604051908101604052809291908181526020018280546111dc90614236565b80156112295780601f106111fe57610100808354040283529160200191611229565b820191906000526020600020905b81548152906001019060200180831161120c57829003601f168201915b50505050508152505081526020019060010190610f6f565b50505050905060006112616000805160206145c083398151915233611c93565b8061127c57503361127185611638565b6001600160a01b0316145b15611288575092915050565b6112a06000805160206145a083398151915233611c93565b1561130d5760005b82518110156113075760038382815181106112c5576112c5614457565b60200260200101516080015160048111156112e2576112e2613d7a565b116112f557816112f18161428c565b9250505b806112ff8161428c565b9150506112a8565b50611442565b61132560008051602061458083398151915233611c93565b1561138c5760005b825181101561130757600283828151811061134a5761134a614457565b602002602001015160800151600481111561136757611367613d7a565b1161137a57816113768161428c565b9250505b806113848161428c565b91505061132d565b6113a460008051602061456083398151915233611c93565b1561140b5760005b82518110156113075760018382815181106113c9576113c9614457565b60200260200101516080015160048111156113e6576113e6613d7a565b036113f957816113f58161428c565b9250505b806114038161428c565b9150506113ac565b600084815260096020526040902060049081015460ff168181111561143257611432613d7a565b0361143e575092915050565b5060005b60008167ffffffffffffffff81111561145d5761145d613b5f565b60405190808252806020026020018201604052801561149657816020015b6114836139b3565b81526020019060019003908161147b5790505b5090506000805b8451811080156114ac57508382105b1561162d5760006114cb6000805160206145a083398151915233611c93565b8015611506575060038683815181106114e6576114e6614457565b602002602001015160800151600481111561150357611503613d7a565b11155b15611513575060016115ce565b61152b60008051602061458083398151915233611c93565b80156115665750600286838151811061154657611546614457565b602002602001015160800151600481111561156357611563613d7a565b11155b15611573575060016115ce565b61158b60008051602061456083398151915233611c93565b80156115c5575060018683815181106115a6576115a6614457565b60200260200101516080015160048111156115c3576115c3613d7a565b145b156115ce575060015b801561161a578582815181106115e6576115e6614457565b602002602001015184848151811061160057611600614457565b602002602001018190525082806116169061428c565b9350505b50806116258161428c565b91505061149d565b509095945050505050565b60006105cb82612ea5565b60006001600160a01b03821661166f576040516322718ad960e21b815260006004820152602401610901565b506001600160a01b031660009081526003602052604090205490565b600081815260096020526040812060040154600160a81b900460ff166116c35760405162461bcd60e51b815260040161090190614427565b506000908152600a602052604090205490565b6009602052600090815260409020805481906116f190614236565b80601f016020809104026020016040519081016040528092919081815260200182805461171d90614236565b801561176a5780601f1061173f5761010080835404028352916020019161176a565b820191906000526020600020905b81548152906001019060200180831161174d57829003601f168201915b50505050509080600101805461177f90614236565b80601f01602080910402602001604051908101604052809291908181526020018280546117ab90614236565b80156117f85780601f106117cd576101008083540402835291602001916117f8565b820191906000526020600020905b8154815290600101906020018083116117db57829003601f168201915b50505050509080600201549080600301805461181390614236565b80601f016020809104026020016040519081016040528092919081815260200182805461183f90614236565b801561188c5780601f106118615761010080835404028352916020019161188c565b820191906000526020600020905b81548152906001019060200180831161186f57829003601f168201915b5050506004909301549192505060ff808216916001600160a01b0361010082041691600160a81b9091041687565b6000805160206145a08339815191526118d281612eeb565b600085815260096020526040902060040154600160a81b900460ff1661190a5760405162461bcd60e51b815260040161090190614427565b3361191486611638565b6001600160a01b03161461193a5760405162461bcd60e51b81526004016109019061446d565b6003600086815260096020526040902060049081015460ff169081111561196357611963613d7a565b146119805760405162461bcd60e51b815260040161090190614494565b61198b33858761315c565b6000858152600960208181526040808420600480820180546001600160a81b0319166101006001600160a01b038d1602179091179055600a835293819020815160e08101909252929091528254919290918291906119e890614236565b80601f0160208091040260200160405190810160405280929190818152602001828054611a1490614236565b8015611a615780601f10611a3657610100808354040283529160200191611a61565b820191906000526020600020905b815481529060010190602001808311611a4457829003601f168201915b50505050508152602001600960008981526020019081526020016000206001018054611a8c90614236565b80601f0160208091040260200160405190810160405280929190818152602001828054611ab890614236565b8015611b055780601f10611ada57610100808354040283529160200191611b05565b820191906000526020600020905b815481529060010190602001808311611ae857829003601f168201915b505050918352505042602082015260408101869052606001600481526001600160a01b03871660208083019190915260409091018590528254600181018455600093845292208151919260060201908190611b609082614301565b5060208201516001820190611b759082614301565b506040820151600282015560608201516003820190611b949082614301565b5060808201518160040160006101000a81548160ff02191690836004811115611bbf57611bbf613d7a565b021790555060a08201516004820180546001600160a01b0390921661010002610100600160a81b031990921691909117905560c08201516005820190611c059082614301565b505050836001600160a01b0316336001600160a01b0316867f9fa92e8b138a6a0678480e61b6e7a0ee30af964ea75bc7b4a7006435e0f9b537600442604051611c4f9291906144bb565b60405180910390a4836001600160a01b0316856000805160206145e083398151915260048642604051611c84939291906143f7565b60405180910390a35050505050565b60009182526007602090815260408084206001600160a01b0393909316845291905290205460ff1690565b6060600180546107c290614236565b61087933838361320c565b611ce3848484610c78565b610cfd848484846132ab565b611cf7613a01565b600082815260096020526040902060040154600160a81b900460ff16611d2f5760405162461bcd60e51b815260040161090190614427565b60008281526009602052604090819020815160e08101909252805482908290611d5790614236565b80601f0160208091040260200160405190810160405280929190818152602001828054611d8390614236565b8015611dd05780601f10611da557610100808354040283529160200191611dd0565b820191906000526020600020905b815481529060010190602001808311611db357829003601f168201915b50505050508152602001600182018054611de990614236565b80601f0160208091040260200160405190810160405280929190818152602001828054611e1590614236565b8015611e625780601f10611e3757610100808354040283529160200191611e62565b820191906000526020600020905b815481529060010190602001808311611e4557829003601f168201915b5050505050815260200160028201548152602001600382018054611e8590614236565b80601f0160208091040260200160405190810160405280929190818152602001828054611eb190614236565b8015611efe5780601f10611ed357610100808354040283529160200191611efe565b820191906000526020600020905b815481529060010190602001808311611ee157829003601f168201915b505050918352505060048281015460209092019160ff1690811115611f2557611f25613d7a565b6004811115611f3657611f36613d7a565b81526004919091015461010081046001600160a01b03166020830152600160a81b900460ff16151560409091015292915050565b60606105cb826133d4565b600080516020614580833981519152611f8d81612eeb565b600085815260096020526040902060040154600160a81b900460ff16611fc55760405162461bcd60e51b815260040161090190614427565b33611fcf86611638565b6001600160a01b031614611ff55760405162461bcd60e51b81526004016109019061446d565b6002600086815260096020526040902060049081015460ff169081111561201e5761201e613d7a565b1461203b5760405162461bcd60e51b815260040161090190614494565b6120536000805160206145a083398151915285611c93565b61209f5760405162461bcd60e51b815260206004820152601b60248201527f526563697069656e74206973206e6f7420612072657461696c657200000000006044820152606401610901565b6120aa33858761315c565b60008581526009602081815260408084206004810180546001600160a01b038b16610100026001600160a81b0319909116176003179055600a835293819020815160e081019092529290915282549192909182919061210890614236565b80601f016020809104026020016040519081016040528092919081815260200182805461213490614236565b80156121815780601f1061215657610100808354040283529160200191612181565b820191906000526020600020905b81548152906001019060200180831161216457829003601f168201915b505050505081526020016009600089815260200190815260200160002060010180546121ac90614236565b80601f01602080910402602001604051908101604052809291908181526020018280546121d890614236565b80156122255780601f106121fa57610100808354040283529160200191612225565b820191906000526020600020905b81548152906001019060200180831161220857829003601f168201915b505050918352505042602082015260408101869052606001600381526001600160a01b038716602080830191909152604090910185905282546001810184556000938452922081519192600602019081906122809082614301565b50602082015160018201906122959082614301565b5060408201516002820155606082015160038201906122b49082614301565b5060808201518160040160006101000a81548160ff021916908360048111156122df576122df613d7a565b021790555060a08201516004820180546001600160a01b0390921661010002610100600160a81b031990921691909117905560c082015160058201906123259082614301565b505050836001600160a01b0316336001600160a01b0316867f9fa92e8b138a6a0678480e61b6e7a0ee30af964ea75bc7b4a7006435e0f9b53760034260405161236f9291906144bb565b60405180910390a4836001600160a01b0316856000805160206145e083398151915260038642604051611c84939291906143f7565b600081815260096020526040902060040154606090600160a81b900460ff166123df5760405162461bcd60e51b815260040161090190614427565b336123e983611638565b6001600160a01b0316148061241157506124116000805160206145c083398151915233611c93565b6124695760405162461bcd60e51b815260206004820152602360248201527f4e6f7420617574686f72697a656420746f20766965772066756c6c20686973746044820152626f727960e81b6064820152608401610901565b6000828152600a6020908152604080832080548251818502810185019093528083529193909284015b8282101561276457838290600052602060002090600602016040518060e00160405290816000820180546124c590614236565b80601f01602080910402602001604051908101604052809291908181526020018280546124f190614236565b801561253e5780601f106125135761010080835404028352916020019161253e565b820191906000526020600020905b81548152906001019060200180831161252157829003601f168201915b5050505050815260200160018201805461255790614236565b80601f016020809104026020016040519081016040528092919081815260200182805461258390614236565b80156125d05780601f106125a5576101008083540402835291602001916125d0565b820191906000526020600020905b8154815290600101906020018083116125b357829003601f168201915b50505050508152602001600282015481526020016003820180546125f390614236565b80601f016020809104026020016040519081016040528092919081815260200182805461261f90614236565b801561266c5780601f106126415761010080835404028352916020019161266c565b820191906000526020600020905b81548152906001019060200180831161264f57829003601f168201915b505050918352505060048281015460209092019160ff169081111561269357612693613d7a565b60048111156126a4576126a4613d7a565b8152600482015461010090046001600160a01b031660208201526005820180546040909201916126d390614236565b80601f01602080910402602001604051908101604052809291908181526020018280546126ff90614236565b801561274c5780601f106127215761010080835404028352916020019161274c565b820191906000526020600020905b81548152906001019060200180831161272f57829003601f168201915b50505050508152505081526020019060010190612492565b505050509050919050565b60008281526007602052604090206001015461278a81612eeb565b610cfd83836130ef565b600a60205281600052604060002081815481106127b057600080fd5b9060005260206000209060060201600091509150508060000180546127d490614236565b80601f016020809104026020016040519081016040528092919081815260200182805461280090614236565b801561284d5780601f106128225761010080835404028352916020019161284d565b820191906000526020600020905b81548152906001019060200180831161283057829003601f168201915b50505050509080600101805461286290614236565b80601f016020809104026020016040519081016040528092919081815260200182805461288e90614236565b80156128db5780601f106128b0576101008083540402835291602001916128db565b820191906000526020600020905b8154815290600101906020018083116128be57829003601f168201915b5050505050908060020154908060030180546128f690614236565b80601f016020809104026020016040519081016040528092919081815260200182805461292290614236565b801561296f5780601f106129445761010080835404028352916020019161296f565b820191906000526020600020905b81548152906001019060200180831161295257829003601f168201915b505050506004830154600584018054939460ff8316946101009093046001600160a01b03169350916129a090614236565b80601f01602080910402602001604051908101604052809291908181526020018280546129cc90614236565b8015612a195780601f106129ee57610100808354040283529160200191612a19565b820191906000526020600020905b8154815290600101906020018083116129fc57829003601f168201915b5050505050905087565b600080516020614560833981519152612a3b81612eeb565b600085815260096020526040902060040154600160a81b900460ff16612a735760405162461bcd60e51b815260040161090190614427565b33612a7d86611638565b6001600160a01b031614612aa35760405162461bcd60e51b81526004016109019061446d565b6001600086815260096020526040902060049081015460ff1690811115612acc57612acc613d7a565b14612ae95760405162461bcd60e51b815260040161090190614494565b612b0160008051602061458083398151915285611c93565b612b4d5760405162461bcd60e51b815260206004820152601e60248201527f526563697069656e74206973206e6f742061206469737472696275746f7200006044820152606401610901565b612b5833858761315c565b60008581526009602081815260408084206004810180546001600160a01b038b16610100026001600160a81b0319909116176002179055600a835293819020815160e0810190925292909152825491929091829190612bb690614236565b80601f0160208091040260200160405190810160405280929190818152602001828054612be290614236565b8015612c2f5780601f10612c0457610100808354040283529160200191612c2f565b820191906000526020600020905b815481529060010190602001808311612c1257829003601f168201915b50505050508152602001600960008981526020019081526020016000206001018054612c5a90614236565b80601f0160208091040260200160405190810160405280929190818152602001828054612c8690614236565b8015612cd35780601f10612ca857610100808354040283529160200191612cd3565b820191906000526020600020905b815481529060010190602001808311612cb657829003601f168201915b505050918352505042602082015260408101869052606001600281526001600160a01b03871660208083019190915260409091018590528254600181018455600093845292208151919260060201908190612d2e9082614301565b5060208201516001820190612d439082614301565b506040820151600282015560608201516003820190612d629082614301565b5060808201518160040160006101000a81548160ff02191690836004811115612d8d57612d8d613d7a565b021790555060a08201516004820180546001600160a01b0390921661010002610100600160a81b031990921691909117905560c08201516005820190612dd39082614301565b505050836001600160a01b0316336001600160a01b0316867f9fa92e8b138a6a0678480e61b6e7a0ee30af964ea75bc7b4a7006435e0f9b537600242604051612e1d9291906144bb565b60405180910390a4836001600160a01b0316856000805160206145e083398151915260028642604051611c84939291906143f7565b6001600160a01b03918216600090815260056020908152604080832093909416825291909152205460ff1690565b60006001600160e01b03198216637965db0b60e01b14806105cb57506105cb826134dd565b6000818152600260205260408120546001600160a01b0316806105cb57604051637e27328960e01b815260048101849052602401610901565b610ee88383836001613502565b612ef58133613608565b50565b610879828260405180602001604052806000815250613641565b6000828152600660205260409020612f2a8282614301565b506040518281527ff8e1a15aba9398e019f0b49df1a4fde98ee17ae345cb5f6b5e2c27f5033e8ce79060200160405180910390a15050565b6000828152600260205260408120546001600160a01b0390811690831615612f8f57612f8f818486613658565b6001600160a01b03811615612fcd57612fac600085600080613502565b6001600160a01b038116600090815260036020526040902080546000190190555b6001600160a01b03851615612ffc576001600160a01b0385166000908152600360205260409020805460010190555b60008481526002602052604080822080546001600160a01b0319166001600160a01b0389811691821790925591518793918516917fddf252ad1be2c89b69c2b068fc378daa952ba7f163c4a11628f55a4df523b3ef91a4949350505050565b60006130678383611c93565b6130e75760008381526007602090815260408083206001600160a01b03861684529091529020805460ff1916600117905561309f3390565b6001600160a01b0316826001600160a01b0316847f2f8788117e7eff1d82e926ec794901d17c78024a50270940304540a733656f0d60405160405180910390a45060016105cb565b5060006105cb565b60006130fb8383611c93565b156130e75760008381526007602090815260408083206001600160a01b0386168085529252808320805460ff1916905551339286917ff6391f5c32d9c69d2a47ea670b442974b53935d1edc7fd64eb21e047a839171b9190a45060016105cb565b6001600160a01b03821661318657604051633250574960e11b815260006004820152602401610901565b600061319483836000612f62565b90506001600160a01b0381166131c057604051637e27328960e01b815260048101839052602401610901565b836001600160a01b0316816001600160a01b031614610cfd576040516364283d7b60e01b81526001600160a01b0380861660048301526024820184905282166044820152606401610901565b6001600160a01b03821661323e57604051630b61174360e31b81526001600160a01b0383166004820152602401610901565b6001600160a01b03838116600081815260056020908152604080832094871680845294825291829020805460ff191686151590811790915591519182527f17307eab39ab6107e8899845ad3d59bd9653f200f220920489ca2b5937696c31910160405180910390a3505050565b6001600160a01b0383163b15610cfd57604051630a85bd0160e11b81526001600160a01b0384169063150b7a02906132ed9033908890879087906004016144d6565b6020604051808303816000875af1925050508015613328575060408051601f3d908101601f1916820190925261332591810190614513565b60015b613391573d808015613356576040519150601f19603f3d011682016040523d82523d6000602084013e61335b565b606091505b50805160000361338957604051633250574960e11b81526001600160a01b0385166004820152602401610901565b805181602001fd5b6001600160e01b03198116630a85bd0160e11b146133cd57604051633250574960e11b81526001600160a01b0385166004820152602401610901565b5050505050565b60606133df82612ea5565b50600082815260066020526040812080546133f990614236565b80601f016020809104026020016040519081016040528092919081815260200182805461342590614236565b80156134725780601f1061344757610100808354040283529160200191613472565b820191906000526020600020905b81548152906001019060200180831161345557829003601f168201915b50505050509050600061349060408051602081019091526000815290565b905080516000036134a2575092915050565b8151156134d45780826040516020016134bc929190614530565b60405160208183030381529060405292505050919050565b6107ab846136bc565b60006001600160e01b03198216632483248360e11b14806105cb57506105cb82613730565b808061351657506001600160a01b03821615155b156135d857600061352684612ea5565b90506001600160a01b038316158015906135525750826001600160a01b0316816001600160a01b031614155b801561356557506135638184612e52565b155b1561358e5760405163a9fbf51f60e01b81526001600160a01b0384166004820152602401610901565b81156135d65783856001600160a01b0316826001600160a01b03167f8c5be1e5ebec7d5bd14f71427d1e84f3dd0314c0f7b2291e5b200ac8c7c3b92560405160405180910390a45b505b5050600090815260046020526040902080546001600160a01b0319166001600160a01b0392909216919091179055565b6136128282611c93565b6108795760405163e2517d3f60e01b81526001600160a01b038216600482015260248101839052604401610901565b61364b8383613780565b610ee860008484846132ab565b6136638383836137e5565b610ee8576001600160a01b03831661369157604051637e27328960e01b815260048101829052602401610901565b60405163177e802f60e01b81526001600160a01b038316600482015260248101829052604401610901565b60606136c782612ea5565b5060006136df60408051602081019091526000815290565b905060008151116136ff5760405180602001604052806000815250610c71565b8061370984613848565b60405160200161371a929190614530565b6040516020818303038152906040529392505050565b60006001600160e01b031982166380ac58cd60e01b148061376157506001600160e01b03198216635b5e139f60e01b145b806105cb57506301ffc9a760e01b6001600160e01b03198316146105cb565b6001600160a01b0382166137aa57604051633250574960e11b815260006004820152602401610901565b60006137b883836000612f62565b90506001600160a01b03811615610ee8576040516339e3563760e11b815260006004820152602401610901565b60006001600160a01b038316158015906107ab5750826001600160a01b0316846001600160a01b0316148061381f575061381f8484612e52565b806107ab5750506000908152600460205260409020546001600160a01b03908116911614919050565b60606000613855836138db565b600101905060008167ffffffffffffffff81111561387557613875613b5f565b6040519080825280601f01601f19166020018201604052801561389f576020820181803683370190505b5090508181016020015b600019016f181899199a1a9b1b9c1cb0b131b232b360811b600a86061a8153600a85049450846138a957509392505050565b60008072184f03e93ff9f4daa797ed6e38ed64bf6a1f0160401b831061391a5772184f03e93ff9f4daa797ed6e38ed64bf6a1f0160401b830492506040015b6d04ee2d6d415b85acef81000000008310613946576d04ee2d6d415b85acef8100000000830492506020015b662386f26fc10000831061396457662386f26fc10000830492506010015b6305f5e100831061397c576305f5e100830492506008015b612710831061399057612710830492506004015b606483106139a2576064830492506002015b600a83106105cb5760010192915050565b6040518060e0016040528060608152602001606081526020016000815260200160608152602001600060048111156139ed576139ed613d7a565b815260006020820152606060409091015290565b6040518060e001604052806060815260200160608152602001600081526020016060815260200160006004811115613a3b57613a3b613d7a565b815260006020820181905260409091015290565b6001600160e01b031981168114612ef557600080fd5b600060208284031215613a7757600080fd5b8135610c7181613a4f565b80356001600160a01b0381168114613a9957600080fd5b919050565b600060208284031215613ab057600080fd5b610c7182613a82565b60005b83811015613ad4578181015183820152602001613abc565b50506000910152565b60008151808452613af5816020860160208601613ab9565b601f01601f19169290920160200192915050565b602081526000610c716020830184613add565b600060208284031215613b2e57600080fd5b5035919050565b60008060408385031215613b4857600080fd5b613b5183613a82565b946020939093013593505050565b634e487b7160e01b600052604160045260246000fd5b600067ffffffffffffffff80841115613b9057613b90613b5f565b604051601f8501601f19908116603f01168101908282118183101715613bb857613bb8613b5f565b81604052809350858152868686011115613bd157600080fd5b858560208301376000602087830101525050509392505050565b600082601f830112613bfc57600080fd5b610c7183833560208501613b75565b600080600080600060a08688031215613c2357600080fd5b853567ffffffffffffffff80821115613c3b57600080fd5b613c4789838a01613beb565b96506020880135915080821115613c5d57600080fd5b613c6989838a01613beb565b95506040880135915080821115613c7f57600080fd5b613c8b89838a01613beb565b94506060880135915080821115613ca157600080fd5b613cad89838a01613beb565b93506080880135915080821115613cc357600080fd5b50613cd088828901613beb565b9150509295509295909350565b600060208284031215613cef57600080fd5b813567ffffffffffffffff811115613d0657600080fd5b6107ab84828501613beb565b60008060408385031215613d2557600080fd5b82359150613d3560208401613a82565b90509250929050565b600080600060608486031215613d5357600080fd5b613d5c84613a82565b9250613d6a60208501613a82565b9150604084013590509250925092565b634e487b7160e01b600052602160045260246000fd5b60058110613dae57634e487b7160e01b600052602160045260246000fd5b9052565b60006020808301818452808551808352604092508286019150828160051b87010184880160005b83811015613e9257603f19898403018552815160e08151818652613dff82870182613add565b915050888201518582038a870152613e178282613add565b915050878201518886015260608083015186830382880152613e398382613add565b92505050608080830151613e4f82880182613d90565b505060a0828101516001600160a01b03169086015260c09182015185820392860192909252613e7e8183613add565b968901969450505090860190600101613dd9565b509098975050505050505050565b60e081526000613eb360e083018a613add565b8281036020840152613ec5818a613add565b90508760408401528281036060840152613edf8188613add565b915050613eef6080830186613d90565b6001600160a01b039390931660a082015290151560c09091015295945050505050565b60008060008060808587031215613f2857600080fd5b84359350613f3860208601613a82565b9250604085013567ffffffffffffffff80821115613f5557600080fd5b613f6188838901613beb565b93506060870135915080821115613f7757600080fd5b50613f8487828801613beb565b91505092959194509250565b60008060408385031215613fa357600080fd5b613fac83613a82565b915060208301358015158114613fc157600080fd5b809150509250929050565b60008060008060808587031215613fe257600080fd5b613feb85613a82565b9350613ff960208601613a82565b925060408501359150606085013567ffffffffffffffff81111561401c57600080fd5b8501601f8101871361402d57600080fd5b613f8487823560208401613b75565b602081526000825160e06020840152614059610100840182613add565b90506020840151601f19808584030160408601526140778383613add565b92506040860151606086015260608601519150808584030160808601525061409f8282613add565b91505060808401516140b460a0850182613d90565b5060a08401516001600160a01b031660c08481019190915290930151151560e0909201919091525090565b600080604083850312156140f257600080fd5b50508035926020909101359150565b60e08152600061411460e083018a613add565b8281036020840152614126818a613add565b905087604084015282810360608401526141408188613add565b905061414f6080840187613d90565b6001600160a01b03851660a084015282810360c08401526141708185613add565b9a9950505050505050505050565b6000806040838503121561419157600080fd5b61419a83613a82565b9150613d3560208401613a82565b600082516141ba818460208701613ab9565b6c1626a0a72aa320a1aa2aa922a960991b920191825250600d01919050565b600082516141eb818460208701613ab9565b6b162224a9aa2924a12aaa27a960a11b920191825250600c01919050565b6000825161421b818460208701613ab9565b68162922aa20a4a622a960b91b920191825250600901919050565b600181811c9082168061424a57607f821691505b60208210810361426a57634e487b7160e01b600052602260045260246000fd5b50919050565b60008251614282818460208701613ab9565b9190910192915050565b6000600182016142ac57634e487b7160e01b600052601160045260246000fd5b5060010190565b601f821115610ee857600081815260208120601f850160051c810160208610156142da5750805b601f850160051c820191505b818110156142f9578281556001016142e6565b505050505050565b815167ffffffffffffffff81111561431b5761431b613b5f565b61432f816143298454614236565b846142b3565b602080601f831160018114614364576000841561434c5750858301515b600019600386901b1c1916600185901b1785556142f9565b600085815260208120601f198616915b8281101561439357888601518255948401946001909101908401614374565b50858210156143b15787850151600019600388901b60f8161c191681555b5050505050600190811b01905550565b6060815260006143d46060830186613add565b82810360208401526143e68186613add565b915050826040830152949350505050565b6144018185613d90565b6060602082015260006144176060830185613add565b9050826040830152949350505050565b602080825260169082015275141c9bd91d58dd08191bd95cc81b9bdd08195e1a5cdd60521b604082015260600190565b634e487b7160e01b600052603260045260246000fd5b6020808252600d908201526c2737ba103a34329037bbb732b960991b604082015260600190565b6020808252600d908201526c496e76616c696420737461676560981b604082015260600190565b604081016144c98285613d90565b8260208301529392505050565b6001600160a01b038581168252841660208201526040810183905260806060820181905260009061450990830184613add565b9695505050505050565b60006020828403121561452557600080fd5b8151610c7181613a4f565b60008351614542818460208801613ab9565b835190830190614556818360208801613ab9565b0194935050505056feeefb95e842a3287179d933b4460be539a1d5af11aa8b325bb45c5c8dc92de4edfbd454f36a7e1a388bd6fc3ab10d434aa4578f811acbbcf33afb1c697486313c2a5f906c256a5d799494fcd066e1f6c077689de1cdb65052a1624de4bace99bfa49807205ce4d355092ef5a8a18f56e8913cf4a201fbe287825b095693c217757611e28780c0c8d39f1b6c14d9b288e25d9f96119de96f9b070aa68731089ac5a2646970667358221220d5bcd19a02c7218b2b7d5b5b1f6bb84b6589290e0d56967c409aac47b09953da64736f6c63430008140033","opcodes":"PUSH1 0x80 PUSH1 0x40 MSTORE CALLVALUE DUP1 ISZERO PUSH3 0x11 JUMPI PUSH1 0x0 DUP1 REVERT JUMPDEST POP PUSH1 0x40 MLOAD DUP1 PUSH1 0x40 ADD PUSH1 0x40 MSTORE DUP1 PUSH1 0x12 DUP2 MSTORE PUSH1 0x20 ADD PUSH18 0x14DD5C1C1B1E50DA185A5B941C9BD91D58DD PUSH1 0x72 SHL DUP2 MSTORE POP PUSH1 0x40 MLOAD DUP1 PUSH1 0x40 ADD PUSH1 0x40 MSTORE DUP1 PUSH1 0x3 DUP2 MSTORE PUSH1 0x20 ADD PUSH3 0x53435 PUSH1 0xEC SHL DUP2 MSTORE POP DUP2 PUSH1 0x0 SWAP1 DUP2 PUSH3 0x6A SWAP2 SWAP1 PUSH3 0x217 JUMP JUMPDEST POP PUSH1 0x1 PUSH3 0x79 DUP3 DUP3 PUSH3 0x217 JUMP JUMPDEST POP PUSH3 0x8B SWAP2 POP PUSH1 0x0 SWAP1 POP CALLER PUSH3 0xBF JUMP JUMPDEST POP PUSH3 0xB8 PUSH32 0xA49807205CE4D355092EF5A8A18F56E8913CF4A201FBE287825B095693C21775 CALLER PUSH3 0xBF JUMP JUMPDEST POP PUSH3 0x2E3 JUMP JUMPDEST PUSH1 0x0 DUP3 DUP2 MSTORE PUSH1 0x7 PUSH1 0x20 SWAP1 DUP2 MSTORE PUSH1 0x40 DUP1 DUP4 KECCAK256 PUSH1 0x1 PUSH1 0x1 PUSH1 0xA0 SHL SUB DUP6 AND DUP5 MSTORE SWAP1 SWAP2 MSTORE DUP2 KECCAK256 SLOAD PUSH1 0xFF AND PUSH3 0x168 JUMPI PUSH1 0x0 DUP4 DUP2 MSTORE PUSH1 0x7 PUSH1 0x20 SWAP1 DUP2 MSTORE PUSH1 0x40 DUP1 DUP4 KECCAK256 PUSH1 0x1 PUSH1 0x1 PUSH1 0xA0 SHL SUB DUP7 AND DUP5 MSTORE SWAP1 SWAP2 MSTORE SWAP1 KECCAK256 DUP1 SLOAD PUSH1 0xFF NOT AND PUSH1 0x1 OR SWAP1 SSTORE PUSH3 0x11F CALLER SWAP1 JUMP JUMPDEST PUSH1 0x1 PUSH1 0x1 PUSH1 0xA0 SHL SUB AND DUP3 PUSH1 0x1 PUSH1 0x1 PUSH1 0xA0 SHL SUB AND DUP5 PUSH32 0x2F8788117E7EFF1D82E926EC794901D17C78024A50270940304540A733656F0D PUSH1 0x40 MLOAD PUSH1 0x40 MLOAD DUP1 SWAP2 SUB SWAP1 LOG4 POP PUSH1 0x1 PUSH3 0x16C JUMP JUMPDEST POP PUSH1 0x0 JUMPDEST SWAP3 SWAP2 POP POP JUMP JUMPDEST PUSH4 0x4E487B71 PUSH1 0xE0 SHL PUSH1 0x0 MSTORE PUSH1 0x41 PUSH1 0x4 MSTORE PUSH1 0x24 PUSH1 0x0 REVERT JUMPDEST PUSH1 0x1 DUP2 DUP2 SHR SWAP1 DUP3 AND DUP1 PUSH3 0x19D JUMPI PUSH1 0x7F DUP3 AND SWAP2 POP JUMPDEST PUSH1 0x20 DUP3 LT DUP2 SUB PUSH3 0x1BE JUMPI PUSH4 0x4E487B71 PUSH1 0xE0 SHL PUSH1 0x0 MSTORE PUSH1 0x22 PUSH1 0x4 MSTORE PUSH1 0x24 PUSH1 0x0 REVERT JUMPDEST POP SWAP2 SWAP1 POP JUMP JUMPDEST PUSH1 0x1F DUP3 GT ISZERO PUSH3 0x212 JUMPI PUSH1 0x0 DUP2 DUP2 MSTORE PUSH1 0x20 DUP2 KECCAK256 PUSH1 0x1F DUP6 ADD PUSH1 0x5 SHR DUP2 ADD PUSH1 0x20 DUP7 LT ISZERO PUSH3 0x1ED JUMPI POP DUP1 JUMPDEST PUSH1 0x1F DUP6 ADD PUSH1 0x5 SHR DUP3 ADD SWAP2 POP JUMPDEST DUP2 DUP2 LT ISZERO PUSH3 0x20E JUMPI DUP3 DUP2 SSTORE PUSH1 0x1 ADD PUSH3 0x1F9 JUMP JUMPDEST POP POP POP JUMPDEST POP POP POP JUMP JUMPDEST DUP2 MLOAD PUSH1 0x1 PUSH1 0x1 PUSH1 0x40 SHL SUB DUP2 GT ISZERO PUSH3 0x233 JUMPI PUSH3 0x233 PUSH3 0x172 JUMP JUMPDEST PUSH3 0x24B DUP2 PUSH3 0x244 DUP5 SLOAD PUSH3 0x188 JUMP JUMPDEST DUP5 PUSH3 0x1C4 JUMP JUMPDEST PUSH1 0x20 DUP1 PUSH1 0x1F DUP4 GT PUSH1 0x1 DUP2 EQ PUSH3 0x283 JUMPI PUSH1 0x0 DUP5 ISZERO PUSH3 0x26A JUMPI POP DUP6 DUP4 ADD MLOAD JUMPDEST PUSH1 0x0 NOT PUSH1 0x3 DUP7 SWAP1 SHL SHR NOT AND PUSH1 0x1 DUP6 SWAP1 SHL OR DUP6 SSTORE PUSH3 0x20E JUMP JUMPDEST PUSH1 0x0 DUP6 DUP2 MSTORE PUSH1 0x20 DUP2 KECCAK256 PUSH1 0x1F NOT DUP7 AND SWAP2 JUMPDEST DUP3 DUP2 LT ISZERO PUSH3 0x2B4 JUMPI DUP9 DUP7 ADD MLOAD DUP3 SSTORE SWAP5 DUP5 ADD SWAP5 PUSH1 0x1 SWAP1 SWAP2 ADD SWAP1 DUP5 ADD PUSH3 0x293 JUMP JUMPDEST POP DUP6 DUP3 LT ISZERO PUSH3 0x2D3 JUMPI DUP8 DUP6 ADD MLOAD PUSH1 0x0 NOT PUSH1 0x3 DUP9 SWAP1 SHL PUSH1 0xF8 AND SHR NOT AND DUP2 SSTORE JUMPDEST POP POP POP POP POP PUSH1 0x1 SWAP1 DUP2 SHL ADD SWAP1 SSTORE POP JUMP JUMPDEST PUSH2 0x4635 DUP1 PUSH3 0x2F3 PUSH1 0x0 CODECOPY PUSH1 0x0 RETURN INVALID PUSH1 0x80 PUSH1 0x40 MSTORE CALLVALUE DUP1 ISZERO PUSH2 0x10 JUMPI PUSH1 0x0 DUP1 REVERT JUMPDEST POP PUSH1 0x4 CALLDATASIZE LT PUSH2 0x23D JUMPI PUSH1 0x0 CALLDATALOAD PUSH1 0xE0 SHR DUP1 PUSH4 0x70A08231 GT PUSH2 0x13B JUMPI DUP1 PUSH4 0xB88D4FDE GT PUSH2 0xB8 JUMPI DUP1 PUSH4 0xD547741F GT PUSH2 0x7C JUMPI DUP1 PUSH4 0xD547741F EQ PUSH2 0x54C JUMPI DUP1 PUSH4 0xE26C9098 EQ PUSH2 0x55F JUMPI DUP1 PUSH4 0xE96B878F EQ PUSH2 0x585 JUMPI DUP1 PUSH4 0xE985E9C5 EQ PUSH2 0x598 JUMPI DUP1 PUSH4 0xF0BD87CC EQ PUSH2 0x5AB JUMPI PUSH1 0x0 DUP1 REVERT JUMPDEST DUP1 PUSH4 0xB88D4FDE EQ PUSH2 0x4E0 JUMPI DUP1 PUSH4 0xB9DB15B4 EQ PUSH2 0x4F3 JUMPI DUP1 PUSH4 0xC87B56DD EQ PUSH2 0x513 JUMPI DUP1 PUSH4 0xCC492254 EQ PUSH2 0x526 JUMPI DUP1 PUSH4 0xD0B6D478 EQ PUSH2 0x539 JUMPI PUSH1 0x0 DUP1 REVERT JUMPDEST DUP1 PUSH4 0x91D14854 GT PUSH2 0xFF JUMPI DUP1 PUSH4 0x91D14854 EQ PUSH2 0x495 JUMPI DUP1 PUSH4 0x95D89B41 EQ PUSH2 0x4A8 JUMPI DUP1 PUSH4 0x965288B0 EQ PUSH2 0x4B0 JUMPI DUP1 PUSH4 0xA217FDDF EQ PUSH2 0x4C5 JUMPI DUP1 PUSH4 0xA22CB465 EQ PUSH2 0x4CD JUMPI PUSH1 0x0 DUP1 REVERT JUMPDEST DUP1 PUSH4 0x70A08231 EQ PUSH2 0x421 JUMPI DUP1 PUSH4 0x73EC5A5B EQ PUSH2 0x434 JUMPI DUP1 PUSH4 0x75B238FC EQ PUSH2 0x447 JUMPI DUP1 PUSH4 0x7ACC0B20 EQ PUSH2 0x45C JUMPI DUP1 PUSH4 0x7E739D7E EQ PUSH2 0x482 JUMPI PUSH1 0x0 DUP1 REVERT JUMPDEST DUP1 PUSH4 0x23B872DD GT PUSH2 0x1C9 JUMPI DUP1 PUSH4 0x36568ABE GT PUSH2 0x18D JUMPI DUP1 PUSH4 0x36568ABE EQ PUSH2 0x39D JUMPI DUP1 PUSH4 0x3A7D5D23 EQ PUSH2 0x3B0 JUMPI DUP1 PUSH4 0x42842E0E EQ PUSH2 0x3DB JUMPI DUP1 PUSH4 0x57A096A1 EQ PUSH2 0x3EE JUMPI DUP1 PUSH4 0x6352211E EQ PUSH2 0x40E JUMPI PUSH1 0x0 DUP1 REVERT JUMPDEST DUP1 PUSH4 0x23B872DD EQ PUSH2 0x32E JUMPI DUP1 PUSH4 0x248A9CA3 EQ PUSH2 0x341 JUMPI DUP1 PUSH4 0x27820851 EQ PUSH2 0x364 JUMPI DUP1 PUSH4 0x2F2FF15D EQ PUSH2 0x377 JUMPI DUP1 PUSH4 0x30A727B3 EQ PUSH2 0x38A JUMPI PUSH1 0x0 DUP1 REVERT JUMPDEST DUP1 PUSH4 0x95EA7B3 GT PUSH2 0x210 JUMPI DUP1 PUSH4 0x95EA7B3 EQ PUSH2 0x2BD JUMPI DUP1 PUSH4 0xE1B4E99 EQ PUSH2 0x2D2 JUMPI DUP1 PUSH4 0x10B995B1 EQ PUSH2 0x2F3 JUMPI DUP1 PUSH4 0x12D9A6AD EQ PUSH2 0x306 JUMPI DUP1 PUSH4 0x2115E7BF EQ PUSH2 0x319 JUMPI PUSH1 0x0 DUP1 REVERT JUMPDEST DUP1 PUSH4 0x1FFC9A7 EQ PUSH2 0x242 JUMPI DUP1 PUSH4 0x6A36AEE EQ PUSH2 0x26A JUMPI DUP1 PUSH4 0x6FDDE03 EQ PUSH2 0x28A JUMPI DUP1 PUSH4 0x81812FC EQ PUSH2 0x292 JUMPI JUMPDEST PUSH1 0x0 DUP1 REVERT JUMPDEST PUSH2 0x255 PUSH2 0x250 CALLDATASIZE PUSH1 0x4 PUSH2 0x3A65 JUMP JUMPDEST PUSH2 0x5C0 JUMP JUMPDEST PUSH1 0x40 MLOAD SWAP1 ISZERO ISZERO DUP2 MSTORE PUSH1 0x20 ADD JUMPDEST PUSH1 0x40 MLOAD DUP1 SWAP2 SUB SWAP1 RETURN JUMPDEST PUSH2 0x27D PUSH2 0x278 CALLDATASIZE PUSH1 0x4 PUSH2 0x3A9E JUMP JUMPDEST PUSH2 0x5D1 JUMP JUMPDEST PUSH1 0x40 MLOAD PUSH2 0x261 SWAP2 SWAP1 PUSH2 0x3B09 JUMP JUMPDEST PUSH2 0x27D PUSH2 0x7B3 JUMP JUMPDEST PUSH2 0x2A5 PUSH2 0x2A0 CALLDATASIZE PUSH1 0x4 PUSH2 0x3B1C JUMP JUMPDEST PUSH2 0x845 JUMP JUMPDEST PUSH1 0x40 MLOAD PUSH1 0x1 PUSH1 0x1 PUSH1 0xA0 SHL SUB SWAP1 SWAP2 AND DUP2 MSTORE PUSH1 0x20 ADD PUSH2 0x261 JUMP JUMPDEST PUSH2 0x2D0 PUSH2 0x2CB CALLDATASIZE PUSH1 0x4 PUSH2 0x3B35 JUMP JUMPDEST PUSH2 0x86E JUMP JUMPDEST STOP JUMPDEST PUSH2 0x2E5 PUSH2 0x2E0 CALLDATASIZE PUSH1 0x4 PUSH2 0x3C0B JUMP JUMPDEST PUSH2 0x87D JUMP JUMPDEST PUSH1 0x40 MLOAD SWAP1 DUP2 MSTORE PUSH1 0x20 ADD PUSH2 0x261 JUMP JUMPDEST PUSH2 0x2E5 PUSH2 0x301 CALLDATASIZE PUSH1 0x4 PUSH2 0x3CDD JUMP JUMPDEST PUSH2 0xBFD JUMP JUMPDEST PUSH2 0x255 PUSH2 0x314 CALLDATASIZE PUSH1 0x4 PUSH2 0x3D12 JUMP JUMPDEST PUSH2 0xC65 JUMP JUMPDEST PUSH2 0x2E5 PUSH1 0x0 DUP1 MLOAD PUSH1 0x20 PUSH2 0x45A0 DUP4 CODECOPY DUP2 MLOAD SWAP2 MSTORE DUP2 JUMP JUMPDEST PUSH2 0x2D0 PUSH2 0x33C CALLDATASIZE PUSH1 0x4 PUSH2 0x3D3E JUMP JUMPDEST PUSH2 0xC78 JUMP JUMPDEST PUSH2 0x2E5 PUSH2 0x34F CALLDATASIZE PUSH1 0x4 PUSH2 0x3B1C JUMP JUMPDEST PUSH1 0x0 SWAP1 DUP2 MSTORE PUSH1 0x7 PUSH1 0x20 MSTORE PUSH1 0x40 SWAP1 KECCAK256 PUSH1 0x1 ADD SLOAD SWAP1 JUMP JUMPDEST PUSH2 0x27D PUSH2 0x372 CALLDATASIZE PUSH1 0x4 PUSH2 0x3A9E JUMP JUMPDEST PUSH2 0xD03 JUMP JUMPDEST PUSH2 0x2D0 PUSH2 0x385 CALLDATASIZE PUSH1 0x4 PUSH2 0x3D12 JUMP JUMPDEST PUSH2 0xE31 JUMP JUMPDEST PUSH2 0x2D0 PUSH2 0x398 CALLDATASIZE PUSH1 0x4 PUSH2 0x3D12 JUMP JUMPDEST PUSH2 0xE56 JUMP JUMPDEST PUSH2 0x2D0 PUSH2 0x3AB CALLDATASIZE PUSH1 0x4 PUSH2 0x3D12 JUMP JUMPDEST PUSH2 0xEB5 JUMP JUMPDEST PUSH2 0x2E5 PUSH2 0x3BE CALLDATASIZE PUSH1 0x4 PUSH2 0x3CDD JUMP JUMPDEST DUP1 MLOAD PUSH1 0x20 DUP2 DUP4 ADD DUP2 ADD DUP1 MLOAD PUSH1 0xB DUP3 MSTORE SWAP3 DUP3 ADD SWAP2 SWAP1 SWAP4 ADD KECCAK256 SWAP2 MSTORE SLOAD DUP2 JUMP JUMPDEST PUSH2 0x2D0 PUSH2 0x3E9 CALLDATASIZE PUSH1 0x4 PUSH2 0x3D3E JUMP JUMPDEST PUSH2 0xEED JUMP JUMPDEST PUSH2 0x401 PUSH2 0x3FC CALLDATASIZE PUSH1 0x4 PUSH2 0x3B1C JUMP JUMPDEST PUSH2 0xF08 JUMP JUMPDEST PUSH1 0x40 MLOAD PUSH2 0x261 SWAP2 SWAP1 PUSH2 0x3DB2 JUMP JUMPDEST PUSH2 0x2A5 PUSH2 0x41C CALLDATASIZE PUSH1 0x4 PUSH2 0x3B1C JUMP JUMPDEST PUSH2 0x1638 JUMP JUMPDEST PUSH2 0x2E5 PUSH2 0x42F CALLDATASIZE PUSH1 0x4 PUSH2 0x3A9E JUMP JUMPDEST PUSH2 0x1643 JUMP JUMPDEST PUSH2 0x2E5 PUSH2 0x442 CALLDATASIZE PUSH1 0x4 PUSH2 0x3B1C JUMP JUMPDEST PUSH2 0x168B JUMP JUMPDEST PUSH2 0x2E5 PUSH1 0x0 DUP1 MLOAD PUSH1 0x20 PUSH2 0x45C0 DUP4 CODECOPY DUP2 MLOAD SWAP2 MSTORE DUP2 JUMP JUMPDEST PUSH2 0x46F PUSH2 0x46A CALLDATASIZE PUSH1 0x4 PUSH2 0x3B1C JUMP JUMPDEST PUSH2 0x16D6 JUMP JUMPDEST PUSH1 0x40 MLOAD PUSH2 0x261 SWAP8 SWAP7 SWAP6 SWAP5 SWAP4 SWAP3 SWAP2 SWAP1 PUSH2 0x3EA0 JUMP JUMPDEST PUSH2 0x2D0 PUSH2 0x490 CALLDATASIZE PUSH1 0x4 PUSH2 0x3F12 JUMP JUMPDEST PUSH2 0x18BA JUMP JUMPDEST PUSH2 0x255 PUSH2 0x4A3 CALLDATASIZE PUSH1 0x4 PUSH2 0x3D12 JUMP JUMPDEST PUSH2 0x1C93 JUMP JUMPDEST PUSH2 0x27D PUSH2 0x1CBE JUMP JUMPDEST PUSH2 0x2E5 PUSH1 0x0 DUP1 MLOAD PUSH1 0x20 PUSH2 0x4560 DUP4 CODECOPY DUP2 MLOAD SWAP2 MSTORE DUP2 JUMP JUMPDEST PUSH2 0x2E5 PUSH1 0x0 DUP2 JUMP JUMPDEST PUSH2 0x2D0 PUSH2 0x4DB CALLDATASIZE PUSH1 0x4 PUSH2 0x3F90 JUMP JUMPDEST PUSH2 0x1CCD JUMP JUMPDEST PUSH2 0x2D0 PUSH2 0x4EE CALLDATASIZE PUSH1 0x4 PUSH2 0x3FCC JUMP JUMPDEST PUSH2 0x1CD8 JUMP JUMPDEST PUSH2 0x506 PUSH2 0x501 CALLDATASIZE PUSH1 0x4 PUSH2 0x3B1C JUMP JUMPDEST PUSH2 0x1CEF JUMP JUMPDEST PUSH1 0x40 MLOAD PUSH2 0x261 SWAP2 SWAP1 PUSH2 0x403C JUMP JUMPDEST PUSH2 0x27D PUSH2 0x521 CALLDATASIZE PUSH1 0x4 PUSH2 0x3B1C JUMP JUMPDEST PUSH2 0x1F6A JUMP JUMPDEST PUSH2 0x2D0 PUSH2 0x534 CALLDATASIZE PUSH1 0x4 PUSH2 0x3F12 JUMP JUMPDEST PUSH2 0x1F75 JUMP JUMPDEST PUSH2 0x401 PUSH2 0x547 CALLDATASIZE PUSH1 0x4 PUSH2 0x3B1C JUMP JUMPDEST PUSH2 0x23A4 JUMP JUMPDEST PUSH2 0x2D0 PUSH2 0x55A CALLDATASIZE PUSH1 0x4 PUSH2 0x3D12 JUMP JUMPDEST PUSH2 0x276F JUMP JUMPDEST PUSH2 0x572 PUSH2 0x56D CALLDATASIZE PUSH1 0x4 PUSH2 0x40DF JUMP JUMPDEST PUSH2 0x2794 JUMP JUMPDEST PUSH1 0x40 MLOAD PUSH2 0x261 SWAP8 SWAP7 SWAP6 SWAP5 SWAP4 SWAP3 SWAP2 SWAP1 PUSH2 0x4101 JUMP JUMPDEST PUSH2 0x2D0 PUSH2 0x593 CALLDATASIZE PUSH1 0x4 PUSH2 0x3F12 JUMP JUMPDEST PUSH2 0x2A23 JUMP JUMPDEST PUSH2 0x255 PUSH2 0x5A6 CALLDATASIZE PUSH1 0x4 PUSH2 0x417E JUMP JUMPDEST PUSH2 0x2E52 JUMP JUMPDEST PUSH2 0x2E5 PUSH1 0x0 DUP1 MLOAD PUSH1 0x20 PUSH2 0x4580 DUP4 CODECOPY DUP2 MLOAD SWAP2 MSTORE DUP2 JUMP JUMPDEST PUSH1 0x0 PUSH2 0x5CB DUP3 PUSH2 0x2E80 JUMP JUMPDEST SWAP3 SWAP2 POP POP JUMP JUMPDEST PUSH1 0x40 DUP1 MLOAD PUSH1 0x20 DUP2 ADD SWAP1 SWAP2 MSTORE PUSH1 0x0 DUP2 MSTORE PUSH1 0x60 SWAP1 PUSH1 0x1 PUSH2 0x5FD PUSH1 0x0 DUP1 MLOAD PUSH1 0x20 PUSH2 0x45C0 DUP4 CODECOPY DUP2 MLOAD SWAP2 MSTORE DUP6 PUSH2 0x1C93 JUMP JUMPDEST ISZERO PUSH2 0x623 JUMPI POP POP PUSH1 0x40 DUP1 MLOAD DUP1 DUP3 ADD SWAP1 SWAP2 MSTORE PUSH1 0x5 DUP2 MSTORE PUSH5 0x20A226A4A7 PUSH1 0xD9 SHL PUSH1 0x20 DUP3 ADD MSTORE PUSH1 0x0 JUMPDEST PUSH2 0x63B PUSH1 0x0 DUP1 MLOAD PUSH1 0x20 PUSH2 0x4560 DUP4 CODECOPY DUP2 MLOAD SWAP2 MSTORE DUP6 PUSH2 0x1C93 JUMP JUMPDEST ISZERO PUSH2 0x697 JUMPI DUP1 PUSH2 0x66A JUMPI DUP2 PUSH1 0x40 MLOAD PUSH1 0x20 ADD PUSH2 0x656 SWAP2 SWAP1 PUSH2 0x41A8 JUMP JUMPDEST PUSH1 0x40 MLOAD PUSH1 0x20 DUP2 DUP4 SUB SUB DUP2 MSTORE SWAP1 PUSH1 0x40 MSTORE PUSH2 0x690 JUMP JUMPDEST PUSH1 0x40 MLOAD DUP1 PUSH1 0x40 ADD PUSH1 0x40 MSTORE DUP1 PUSH1 0xC DUP2 MSTORE PUSH1 0x20 ADD PUSH12 0x26A0A72AA320A1AA2AA922A9 PUSH1 0xA1 SHL DUP2 MSTORE POP JUMPDEST SWAP2 POP PUSH1 0x0 SWAP1 POP JUMPDEST PUSH2 0x6AF PUSH1 0x0 DUP1 MLOAD PUSH1 0x20 PUSH2 0x4580 DUP4 CODECOPY DUP2 MLOAD SWAP2 MSTORE DUP6 PUSH2 0x1C93 JUMP JUMPDEST ISZERO PUSH2 0x70A JUMPI DUP1 PUSH2 0x6DE JUMPI DUP2 PUSH1 0x40 MLOAD PUSH1 0x20 ADD PUSH2 0x6CA SWAP2 SWAP1 PUSH2 0x41D9 JUMP JUMPDEST PUSH1 0x40 MLOAD PUSH1 0x20 DUP2 DUP4 SUB SUB DUP2 MSTORE SWAP1 PUSH1 0x40 MSTORE PUSH2 0x703 JUMP JUMPDEST PUSH1 0x40 MLOAD DUP1 PUSH1 0x40 ADD PUSH1 0x40 MSTORE DUP1 PUSH1 0xB DUP2 MSTORE PUSH1 0x20 ADD PUSH11 0x2224A9AA2924A12AAA27A9 PUSH1 0xA9 SHL DUP2 MSTORE POP JUMPDEST SWAP2 POP PUSH1 0x0 SWAP1 POP JUMPDEST PUSH2 0x722 PUSH1 0x0 DUP1 MLOAD PUSH1 0x20 PUSH2 0x45A0 DUP4 CODECOPY DUP2 MLOAD SWAP2 MSTORE DUP6 PUSH2 0x1C93 JUMP JUMPDEST ISZERO PUSH2 0x77A JUMPI DUP1 PUSH2 0x751 JUMPI DUP2 PUSH1 0x40 MLOAD PUSH1 0x20 ADD PUSH2 0x73D SWAP2 SWAP1 PUSH2 0x4209 JUMP JUMPDEST PUSH1 0x40 MLOAD PUSH1 0x20 DUP2 DUP4 SUB SUB DUP2 MSTORE SWAP1 PUSH1 0x40 MSTORE PUSH2 0x773 JUMP JUMPDEST PUSH1 0x40 MLOAD DUP1 PUSH1 0x40 ADD PUSH1 0x40 MSTORE DUP1 PUSH1 0x8 DUP2 MSTORE PUSH1 0x20 ADD PUSH8 0x2922AA20A4A622A9 PUSH1 0xC1 SHL DUP2 MSTORE POP JUMPDEST SWAP2 POP PUSH1 0x0 SWAP1 POP JUMPDEST PUSH1 0x0 DUP3 MLOAD GT PUSH2 0x7A9 JUMPI PUSH1 0x40 MLOAD DUP1 PUSH1 0x40 ADD PUSH1 0x40 MSTORE DUP1 PUSH1 0x8 DUP2 MSTORE PUSH1 0x20 ADD PUSH8 0x21A7A729AAA6A2A9 PUSH1 0xC1 SHL DUP2 MSTORE POP PUSH2 0x7AB JUMP JUMPDEST DUP2 JUMPDEST SWAP5 SWAP4 POP POP POP POP JUMP JUMPDEST PUSH1 0x60 PUSH1 0x0 DUP1 SLOAD PUSH2 0x7C2 SWAP1 PUSH2 0x4236 JUMP JUMPDEST DUP1 PUSH1 0x1F ADD PUSH1 0x20 DUP1 SWAP2 DIV MUL PUSH1 0x20 ADD PUSH1 0x40 MLOAD SWAP1 DUP2 ADD PUSH1 0x40 MSTORE DUP1 SWAP3 SWAP2 SWAP1 DUP2 DUP2 MSTORE PUSH1 0x20 ADD DUP3 DUP1 SLOAD PUSH2 0x7EE SWAP1 PUSH2 0x4236 JUMP JUMPDEST DUP1 ISZERO PUSH2 0x83B JUMPI DUP1 PUSH1 0x1F LT PUSH2 0x810 JUMPI PUSH2 0x100 DUP1 DUP4 SLOAD DIV MUL DUP4 MSTORE SWAP2 PUSH1 0x20 ADD SWAP2 PUSH2 0x83B JUMP JUMPDEST DUP3 ADD SWAP2 SWAP1 PUSH1 0x0 MSTORE PUSH1 0x20 PUSH1 0x0 KECCAK256 SWAP1 JUMPDEST DUP2 SLOAD DUP2 MSTORE SWAP1 PUSH1 0x1 ADD SWAP1 PUSH1 0x20 ADD DUP1 DUP4 GT PUSH2 0x81E JUMPI DUP3 SWAP1 SUB PUSH1 0x1F AND DUP3 ADD SWAP2 JUMPDEST POP POP POP POP POP SWAP1 POP SWAP1 JUMP JUMPDEST PUSH1 0x0 PUSH2 0x850 DUP3 PUSH2 0x2EA5 JUMP JUMPDEST POP PUSH1 0x0 DUP3 DUP2 MSTORE PUSH1 0x4 PUSH1 0x20 MSTORE PUSH1 0x40 SWAP1 KECCAK256 SLOAD PUSH1 0x1 PUSH1 0x1 PUSH1 0xA0 SHL SUB AND PUSH2 0x5CB JUMP JUMPDEST PUSH2 0x879 DUP3 DUP3 CALLER PUSH2 0x2EDE JUMP JUMPDEST POP POP JUMP JUMPDEST PUSH1 0x0 PUSH1 0x0 DUP1 MLOAD PUSH1 0x20 PUSH2 0x4560 DUP4 CODECOPY DUP2 MLOAD SWAP2 MSTORE PUSH2 0x897 DUP2 PUSH2 0x2EEB JUMP JUMPDEST PUSH1 0xB DUP8 PUSH1 0x40 MLOAD PUSH2 0x8A7 SWAP2 SWAP1 PUSH2 0x4270 JUMP JUMPDEST SWAP1 DUP2 MSTORE PUSH1 0x20 ADD PUSH1 0x40 MLOAD DUP1 SWAP2 SUB SWAP1 KECCAK256 SLOAD PUSH1 0x0 EQ PUSH2 0x90A JUMPI PUSH1 0x40 MLOAD PUSH3 0x461BCD PUSH1 0xE5 SHL DUP2 MSTORE PUSH1 0x20 PUSH1 0x4 DUP3 ADD MSTORE PUSH1 0x19 PUSH1 0x24 DUP3 ADD MSTORE PUSH32 0x50726F6475637420494420616C72656164792065786973747300000000000000 PUSH1 0x44 DUP3 ADD MSTORE PUSH1 0x64 ADD JUMPDEST PUSH1 0x40 MLOAD DUP1 SWAP2 SUB SWAP1 REVERT JUMPDEST PUSH1 0x8 DUP1 SLOAD SWAP1 PUSH1 0x0 PUSH2 0x91A DUP4 PUSH2 0x428C JUMP JUMPDEST SWAP1 SWAP2 SSTORE POP POP PUSH1 0x8 SLOAD PUSH2 0x92C CALLER DUP3 PUSH2 0x2EF8 JUMP JUMPDEST PUSH2 0x936 DUP2 DUP7 PUSH2 0x2F12 JUMP JUMPDEST PUSH1 0x40 MLOAD DUP1 PUSH1 0xE0 ADD PUSH1 0x40 MSTORE DUP1 DUP10 DUP2 MSTORE PUSH1 0x20 ADD DUP9 DUP2 MSTORE PUSH1 0x20 ADD TIMESTAMP DUP2 MSTORE PUSH1 0x20 ADD DUP8 DUP2 MSTORE PUSH1 0x20 ADD PUSH1 0x1 PUSH1 0x4 DUP2 GT ISZERO PUSH2 0x96C JUMPI PUSH2 0x96C PUSH2 0x3D7A JUMP JUMPDEST DUP2 MSTORE CALLER PUSH1 0x20 DUP1 DUP4 ADD SWAP2 SWAP1 SWAP2 MSTORE PUSH1 0x1 PUSH1 0x40 SWAP3 DUP4 ADD MSTORE PUSH1 0x0 DUP5 DUP2 MSTORE PUSH1 0x9 SWAP1 SWAP2 MSTORE KECCAK256 DUP2 MLOAD DUP2 SWAP1 PUSH2 0x999 SWAP1 DUP3 PUSH2 0x4301 JUMP JUMPDEST POP PUSH1 0x20 DUP3 ADD MLOAD PUSH1 0x1 DUP3 ADD SWAP1 PUSH2 0x9AE SWAP1 DUP3 PUSH2 0x4301 JUMP JUMPDEST POP PUSH1 0x40 DUP3 ADD MLOAD PUSH1 0x2 DUP3 ADD SSTORE PUSH1 0x60 DUP3 ADD MLOAD PUSH1 0x3 DUP3 ADD SWAP1 PUSH2 0x9CD SWAP1 DUP3 PUSH2 0x4301 JUMP JUMPDEST POP PUSH1 0x80 DUP3 ADD MLOAD DUP2 PUSH1 0x4 ADD PUSH1 0x0 PUSH2 0x100 EXP DUP2 SLOAD DUP2 PUSH1 0xFF MUL NOT AND SWAP1 DUP4 PUSH1 0x4 DUP2 GT ISZERO PUSH2 0x9F8 JUMPI PUSH2 0x9F8 PUSH2 0x3D7A JUMP JUMPDEST MUL OR SWAP1 SSTORE POP PUSH1 0xA0 DUP3 ADD MLOAD PUSH1 0x4 SWAP1 SWAP2 ADD DUP1 SLOAD PUSH1 0xC0 SWAP1 SWAP4 ADD MLOAD ISZERO ISZERO PUSH1 0x1 PUSH1 0xA8 SHL MUL PUSH1 0xFF PUSH1 0xA8 SHL NOT PUSH1 0x1 PUSH1 0x1 PUSH1 0xA0 SHL SUB SWAP1 SWAP4 AND PUSH2 0x100 MUL SWAP3 SWAP1 SWAP3 AND PUSH2 0x100 PUSH1 0x1 PUSH1 0xB0 SHL SUB NOT SWAP1 SWAP4 AND SWAP3 SWAP1 SWAP3 OR OR SWAP1 SSTORE PUSH1 0x40 MLOAD DUP2 SWAP1 PUSH1 0xB SWAP1 PUSH2 0xA57 SWAP1 DUP12 SWAP1 PUSH2 0x4270 JUMP JUMPDEST SWAP1 DUP2 MSTORE PUSH1 0x40 DUP1 MLOAD PUSH1 0x20 SWAP3 DUP2 SWAP1 SUB DUP4 ADD DUP2 KECCAK256 SWAP4 SWAP1 SWAP4 SSTORE PUSH1 0x0 DUP5 DUP2 MSTORE PUSH1 0xA DUP4 MSTORE DUP2 DUP2 KECCAK256 PUSH1 0xE0 DUP6 ADD DUP4 MSTORE DUP13 DUP6 MSTORE DUP4 DUP6 ADD DUP13 SWAP1 MSTORE TIMESTAMP SWAP3 DUP6 ADD SWAP3 SWAP1 SWAP3 MSTORE PUSH1 0x60 DUP5 ADD DUP11 SWAP1 MSTORE PUSH1 0x1 PUSH1 0x80 DUP6 ADD DUP2 SWAP1 MSTORE CALLER PUSH1 0xA0 DUP7 ADD MSTORE PUSH1 0xC0 DUP6 ADD DUP10 SWAP1 MSTORE DUP3 SLOAD SWAP1 DUP2 ADD DUP4 SSTORE SWAP2 DUP2 MSTORE SWAP2 SWAP1 SWAP2 KECCAK256 DUP3 MLOAD PUSH1 0x6 SWAP1 SWAP3 MUL ADD SWAP1 DUP2 SWAP1 PUSH2 0xACF SWAP1 DUP3 PUSH2 0x4301 JUMP JUMPDEST POP PUSH1 0x20 DUP3 ADD MLOAD PUSH1 0x1 DUP3 ADD SWAP1 PUSH2 0xAE4 SWAP1 DUP3 PUSH2 0x4301 JUMP JUMPDEST POP PUSH1 0x40 DUP3 ADD MLOAD PUSH1 0x2 DUP3 ADD SSTORE PUSH1 0x60 DUP3 ADD MLOAD PUSH1 0x3 DUP3 ADD SWAP1 PUSH2 0xB03 SWAP1 DUP3 PUSH2 0x4301 JUMP JUMPDEST POP PUSH1 0x80 DUP3 ADD MLOAD DUP2 PUSH1 0x4 ADD PUSH1 0x0 PUSH2 0x100 EXP DUP2 SLOAD DUP2 PUSH1 0xFF MUL NOT AND SWAP1 DUP4 PUSH1 0x4 DUP2 GT ISZERO PUSH2 0xB2E JUMPI PUSH2 0xB2E PUSH2 0x3D7A JUMP JUMPDEST MUL OR SWAP1 SSTORE POP PUSH1 0xA0 DUP3 ADD MLOAD PUSH1 0x4 DUP3 ADD DUP1 SLOAD PUSH1 0x1 PUSH1 0x1 PUSH1 0xA0 SHL SUB SWAP1 SWAP3 AND PUSH2 0x100 MUL PUSH2 0x100 PUSH1 0x1 PUSH1 0xA8 SHL SUB NOT SWAP1 SWAP3 AND SWAP2 SWAP1 SWAP2 OR SWAP1 SSTORE PUSH1 0xC0 DUP3 ADD MLOAD PUSH1 0x5 DUP3 ADD SWAP1 PUSH2 0xB74 SWAP1 DUP3 PUSH2 0x4301 JUMP JUMPDEST POP POP POP CALLER PUSH1 0x1 PUSH1 0x1 PUSH1 0xA0 SHL SUB AND DUP2 PUSH32 0xECB0F81E16C5770ADC9D6FA39399183DB9E321383199EAD1A4910854BA480217 DUP11 DUP11 TIMESTAMP PUSH1 0x40 MLOAD PUSH2 0xBB5 SWAP4 SWAP3 SWAP2 SWAP1 PUSH2 0x43C1 JUMP JUMPDEST PUSH1 0x40 MLOAD DUP1 SWAP2 SUB SWAP1 LOG3 CALLER PUSH1 0x1 PUSH1 0x1 PUSH1 0xA0 SHL SUB AND DUP2 PUSH1 0x0 DUP1 MLOAD PUSH1 0x20 PUSH2 0x45E0 DUP4 CODECOPY DUP2 MLOAD SWAP2 MSTORE PUSH1 0x1 DUP10 TIMESTAMP PUSH1 0x40 MLOAD PUSH2 0xBEA SWAP4 SWAP3 SWAP2 SWAP1 PUSH2 0x43F7 JUMP JUMPDEST PUSH1 0x40 MLOAD DUP1 SWAP2 SUB SWAP1 LOG3 SWAP8 SWAP7 POP POP POP POP POP POP POP JUMP JUMPDEST PUSH1 0x0 DUP1 PUSH1 0xB DUP4 PUSH1 0x40 MLOAD PUSH2 0xC10 SWAP2 SWAP1 PUSH2 0x4270 JUMP JUMPDEST SWAP1 DUP2 MSTORE PUSH1 0x20 ADD PUSH1 0x40 MLOAD DUP1 SWAP2 SUB SWAP1 KECCAK256 SLOAD SWAP1 POP DUP1 PUSH1 0x0 SUB PUSH2 0x5CB JUMPI PUSH1 0x40 MLOAD PUSH3 0x461BCD PUSH1 0xE5 SHL DUP2 MSTORE PUSH1 0x20 PUSH1 0x4 DUP3 ADD MSTORE PUSH1 0x11 PUSH1 0x24 DUP3 ADD MSTORE PUSH17 0x141C9BD91D58DD081B9BDD08199BDD5B99 PUSH1 0x7A SHL PUSH1 0x44 DUP3 ADD MSTORE PUSH1 0x64 ADD PUSH2 0x901 JUMP JUMPDEST PUSH1 0x0 PUSH2 0xC71 DUP4 DUP4 PUSH2 0x1C93 JUMP JUMPDEST SWAP4 SWAP3 POP POP POP JUMP JUMPDEST PUSH1 0x1 PUSH1 0x1 PUSH1 0xA0 SHL SUB DUP3 AND PUSH2 0xCA2 JUMPI PUSH1 0x40 MLOAD PUSH4 0x32505749 PUSH1 0xE1 SHL DUP2 MSTORE PUSH1 0x0 PUSH1 0x4 DUP3 ADD MSTORE PUSH1 0x24 ADD PUSH2 0x901 JUMP JUMPDEST PUSH1 0x0 PUSH2 0xCAF DUP4 DUP4 CALLER PUSH2 0x2F62 JUMP JUMPDEST SWAP1 POP DUP4 PUSH1 0x1 PUSH1 0x1 PUSH1 0xA0 SHL SUB AND DUP2 PUSH1 0x1 PUSH1 0x1 PUSH1 0xA0 SHL SUB AND EQ PUSH2 0xCFD JUMPI PUSH1 0x40 MLOAD PUSH4 0x64283D7B PUSH1 0xE0 SHL DUP2 MSTORE PUSH1 0x1 PUSH1 0x1 PUSH1 0xA0 SHL SUB DUP1 DUP7 AND PUSH1 0x4 DUP4 ADD MSTORE PUSH1 0x24 DUP3 ADD DUP5 SWAP1 MSTORE DUP3 AND PUSH1 0x44 DUP3 ADD MSTORE PUSH1 0x64 ADD PUSH2 0x901 JUMP JUMPDEST POP POP POP POP JUMP JUMPDEST PUSH1 0x60 PUSH2 0xD1D PUSH1 0x0 DUP1 MLOAD PUSH1 0x20 PUSH2 0x45C0 DUP4 CODECOPY DUP2 MLOAD SWAP2 MSTORE DUP4 PUSH2 0x1C93 JUMP JUMPDEST ISZERO PUSH2 0xD43 JUMPI POP POP PUSH1 0x40 DUP1 MLOAD DUP1 DUP3 ADD SWAP1 SWAP2 MSTORE PUSH1 0x5 DUP2 MSTORE PUSH5 0x20A226A4A7 PUSH1 0xD9 SHL PUSH1 0x20 DUP3 ADD MSTORE SWAP1 JUMP JUMPDEST PUSH2 0xD5B PUSH1 0x0 DUP1 MLOAD PUSH1 0x20 PUSH2 0x4560 DUP4 CODECOPY DUP2 MLOAD SWAP2 MSTORE DUP4 PUSH2 0x1C93 JUMP JUMPDEST ISZERO PUSH2 0xD88 JUMPI POP POP PUSH1 0x40 DUP1 MLOAD DUP1 DUP3 ADD SWAP1 SWAP2 MSTORE PUSH1 0xC DUP2 MSTORE PUSH12 0x26A0A72AA320A1AA2AA922A9 PUSH1 0xA1 SHL PUSH1 0x20 DUP3 ADD MSTORE SWAP1 JUMP JUMPDEST PUSH2 0xDA0 PUSH1 0x0 DUP1 MLOAD PUSH1 0x20 PUSH2 0x4580 DUP4 CODECOPY DUP2 MLOAD SWAP2 MSTORE DUP4 PUSH2 0x1C93 JUMP JUMPDEST ISZERO PUSH2 0xDCC JUMPI POP POP PUSH1 0x40 DUP1 MLOAD DUP1 DUP3 ADD SWAP1 SWAP2 MSTORE PUSH1 0xB DUP2 MSTORE PUSH11 0x2224A9AA2924A12AAA27A9 PUSH1 0xA9 SHL PUSH1 0x20 DUP3 ADD MSTORE SWAP1 JUMP JUMPDEST PUSH2 0xDE4 PUSH1 0x0 DUP1 MLOAD PUSH1 0x20 PUSH2 0x45A0 DUP4 CODECOPY DUP2 MLOAD SWAP2 MSTORE DUP4 PUSH2 0x1C93 JUMP JUMPDEST ISZERO PUSH2 0xE0D JUMPI POP POP PUSH1 0x40 DUP1 MLOAD DUP1 DUP3 ADD SWAP1 SWAP2 MSTORE PUSH1 0x8 DUP2 MSTORE PUSH8 0x2922AA20A4A622A9 PUSH1 0xC1 SHL PUSH1 0x20 DUP3 ADD MSTORE SWAP1 JUMP JUMPDEST POP POP PUSH1 0x40 DUP1 MLOAD DUP1 DUP3 ADD SWAP1 SWAP2 MSTORE PUSH1 0x8 DUP2 MSTORE PUSH8 0x21A7A729AAA6A2A9 PUSH1 0xC1 SHL PUSH1 0x20 DUP3 ADD MSTORE SWAP1 JUMP JUMPDEST PUSH1 0x0 DUP3 DUP2 MSTORE PUSH1 0x7 PUSH1 0x20 MSTORE PUSH1 0x40 SWAP1 KECCAK256 PUSH1 0x1 ADD SLOAD PUSH2 0xE4C DUP2 PUSH2 0x2EEB JUMP JUMPDEST PUSH2 0xCFD DUP4 DUP4 PUSH2 0x305B JUMP JUMPDEST PUSH1 0x0 DUP1 MLOAD PUSH1 0x20 PUSH2 0x45C0 DUP4 CODECOPY DUP2 MLOAD SWAP2 MSTORE PUSH2 0xE6E DUP2 PUSH2 0x2EEB JUMP JUMPDEST PUSH2 0xE78 DUP4 DUP4 PUSH2 0xE31 JUMP JUMPDEST PUSH1 0x40 MLOAD CALLER SWAP1 PUSH1 0x1 PUSH1 0x1 PUSH1 0xA0 SHL SUB DUP5 AND SWAP1 DUP6 SWAP1 PUSH32 0x3353A854F0595FB4016CFA84DF1DA352F25377C86BD1891E9EB17FEEAAE7C2A SWAP1 PUSH1 0x0 SWAP1 LOG4 POP POP POP JUMP JUMPDEST PUSH1 0x1 PUSH1 0x1 PUSH1 0xA0 SHL SUB DUP2 AND CALLER EQ PUSH2 0xEDE JUMPI PUSH1 0x40 MLOAD PUSH4 0x334BD919 PUSH1 0xE1 SHL DUP2 MSTORE PUSH1 0x4 ADD PUSH1 0x40 MLOAD DUP1 SWAP2 SUB SWAP1 REVERT JUMPDEST PUSH2 0xEE8 DUP3 DUP3 PUSH2 0x30EF JUMP JUMPDEST POP POP POP JUMP JUMPDEST PUSH2 0xEE8 DUP4 DUP4 DUP4 PUSH1 0x40 MLOAD DUP1 PUSH1 0x20 ADD PUSH1 0x40 MSTORE DUP1 PUSH1 0x0 DUP2 MSTORE POP PUSH2 0x1CD8 JUMP JUMPDEST PUSH1 0x0 DUP2 DUP2 MSTORE PUSH1 0x9 PUSH1 0x20 MSTORE PUSH1 0x40 SWAP1 KECCAK256 PUSH1 0x4 ADD SLOAD PUSH1 0x60 SWAP1 PUSH1 0x1 PUSH1 0xA8 SHL SWAP1 DIV PUSH1 0xFF AND PUSH2 0xF43 JUMPI PUSH1 0x40 MLOAD PUSH3 0x461BCD PUSH1 0xE5 SHL DUP2 MSTORE PUSH1 0x4 ADD PUSH2 0x901 SWAP1 PUSH2 0x4427 JUMP JUMPDEST PUSH1 0x0 DUP3 DUP2 MSTORE PUSH1 0xA PUSH1 0x20 SWAP1 DUP2 MSTORE PUSH1 0x40 DUP1 DUP4 KECCAK256 DUP1 SLOAD DUP3 MLOAD DUP2 DUP6 MUL DUP2 ADD DUP6 ADD SWAP1 SWAP4 MSTORE DUP1 DUP4 MSTORE SWAP2 SWAP3 SWAP1 SWAP2 SWAP1 DUP5 SWAP1 DUP5 ADD JUMPDEST DUP3 DUP3 LT ISZERO PUSH2 0x1241 JUMPI DUP4 DUP3 SWAP1 PUSH1 0x0 MSTORE PUSH1 0x20 PUSH1 0x0 KECCAK256 SWAP1 PUSH1 0x6 MUL ADD PUSH1 0x40 MLOAD DUP1 PUSH1 0xE0 ADD PUSH1 0x40 MSTORE SWAP1 DUP2 PUSH1 0x0 DUP3 ADD DUP1 SLOAD PUSH2 0xFA2 SWAP1 PUSH2 0x4236 JUMP JUMPDEST DUP1 PUSH1 0x1F ADD PUSH1 0x20 DUP1 SWAP2 DIV MUL PUSH1 0x20 ADD PUSH1 0x40 MLOAD SWAP1 DUP2 ADD PUSH1 0x40 MSTORE DUP1 SWAP3 SWAP2 SWAP1 DUP2 DUP2 MSTORE PUSH1 0x20 ADD DUP3 DUP1 SLOAD PUSH2 0xFCE SWAP1 PUSH2 0x4236 JUMP JUMPDEST DUP1 ISZERO PUSH2 0x101B JUMPI DUP1 PUSH1 0x1F LT PUSH2 0xFF0 JUMPI PUSH2 0x100 DUP1 DUP4 SLOAD DIV MUL DUP4 MSTORE SWAP2 PUSH1 0x20 ADD SWAP2 PUSH2 0x101B JUMP JUMPDEST DUP3 ADD SWAP2 SWAP1 PUSH1 0x0 MSTORE PUSH1 0x20 PUSH1 0x0 KECCAK256 SWAP1 JUMPDEST DUP2 SLOAD DUP2 MSTORE SWAP1 PUSH1 0x1 ADD SWAP1 PUSH1 0x20 ADD DUP1 DUP4 GT PUSH2 0xFFE JUMPI DUP3 SWAP1 SUB PUSH1 0x1F AND DUP3 ADD SWAP2 JUMPDEST POP POP POP POP POP DUP2 MSTORE PUSH1 0x20 ADD PUSH1 0x1 DUP3 ADD DUP1 SLOAD PUSH2 0x1034 SWAP1 PUSH2 0x4236 JUMP JUMPDEST DUP1 PUSH1 0x1F ADD PUSH1 0x20 DUP1 SWAP2 DIV MUL PUSH1 0x20 ADD PUSH1 0x40 MLOAD SWAP1 DUP2 ADD PUSH1 0x40 MSTORE DUP1 SWAP3 SWAP2 SWAP1 DUP2 DUP2 MSTORE PUSH1 0x20 ADD DUP3 DUP1 SLOAD PUSH2 0x1060 SWAP1 PUSH2 0x4236 JUMP JUMPDEST DUP1 ISZERO PUSH2 0x10AD JUMPI DUP1 PUSH1 0x1F LT PUSH2 0x1082 JUMPI PUSH2 0x100 DUP1 DUP4 SLOAD DIV MUL DUP4 MSTORE SWAP2 PUSH1 0x20 ADD SWAP2 PUSH2 0x10AD JUMP JUMPDEST DUP3 ADD SWAP2 SWAP1 PUSH1 0x0 MSTORE PUSH1 0x20 PUSH1 0x0 KECCAK256 SWAP1 JUMPDEST DUP2 SLOAD DUP2 MSTORE SWAP1 PUSH1 0x1 ADD SWAP1 PUSH1 0x20 ADD DUP1 DUP4 GT PUSH2 0x1090 JUMPI DUP3 SWAP1 SUB PUSH1 0x1F AND DUP3 ADD SWAP2 JUMPDEST POP POP POP POP POP DUP2 MSTORE PUSH1 0x20 ADD PUSH1 0x2 DUP3 ADD SLOAD DUP2 MSTORE PUSH1 0x20 ADD PUSH1 0x3 DUP3 ADD DUP1 SLOAD PUSH2 0x10D0 SWAP1 PUSH2 0x4236 JUMP JUMPDEST DUP1 PUSH1 0x1F ADD PUSH1 0x20 DUP1 SWAP2 DIV MUL PUSH1 0x20 ADD PUSH1 0x40 MLOAD SWAP1 DUP2 ADD PUSH1 0x40 MSTORE DUP1 SWAP3 SWAP2 SWAP1 DUP2 DUP2 MSTORE PUSH1 0x20 ADD DUP3 DUP1 SLOAD PUSH2 0x10FC SWAP1 PUSH2 0x4236 JUMP JUMPDEST DUP1 ISZERO PUSH2 0x1149 JUMPI DUP1 PUSH1 0x1F LT PUSH2 0x111E JUMPI PUSH2 0x100 DUP1 DUP4 SLOAD DIV MUL DUP4 MSTORE SWAP2 PUSH1 0x20 ADD SWAP2 PUSH2 0x1149 JUMP JUMPDEST DUP3 ADD SWAP2 SWAP1 PUSH1 0x0 MSTORE PUSH1 0x20 PUSH1 0x0 KECCAK256 SWAP1 JUMPDEST DUP2 SLOAD DUP2 MSTORE SWAP1 PUSH1 0x1 ADD SWAP1 PUSH1 0x20 ADD DUP1 DUP4 GT PUSH2 0x112C JUMPI DUP3 SWAP1 SUB PUSH1 0x1F AND DUP3 ADD SWAP2 JUMPDEST POP POP POP SWAP2 DUP4 MSTORE POP POP PUSH1 0x4 DUP3 DUP2 ADD SLOAD PUSH1 0x20 SWAP1 SWAP3 ADD SWAP2 PUSH1 0xFF AND SWAP1 DUP2 GT ISZERO PUSH2 0x1170 JUMPI PUSH2 0x1170 PUSH2 0x3D7A JUMP JUMPDEST PUSH1 0x4 DUP2 GT ISZERO PUSH2 0x1181 JUMPI PUSH2 0x1181 PUSH2 0x3D7A JUMP JUMPDEST DUP2 MSTORE PUSH1 0x4 DUP3 ADD SLOAD PUSH2 0x100 SWAP1 DIV PUSH1 0x1 PUSH1 0x1 PUSH1 0xA0 SHL SUB AND PUSH1 0x20 DUP3 ADD MSTORE PUSH1 0x5 DUP3 ADD DUP1 SLOAD PUSH1 0x40 SWAP1 SWAP3 ADD SWAP2 PUSH2 0x11B0 SWAP1 PUSH2 0x4236 JUMP JUMPDEST DUP1 PUSH1 0x1F ADD PUSH1 0x20 DUP1 SWAP2 DIV MUL PUSH1 0x20 ADD PUSH1 0x40 MLOAD SWAP1 DUP2 ADD PUSH1 0x40 MSTORE DUP1 SWAP3 SWAP2 SWAP1 DUP2 DUP2 MSTORE PUSH1 0x20 ADD DUP3 DUP1 SLOAD PUSH2 0x11DC SWAP1 PUSH2 0x4236 JUMP JUMPDEST DUP1 ISZERO PUSH2 0x1229 JUMPI DUP1 PUSH1 0x1F LT PUSH2 0x11FE JUMPI PUSH2 0x100 DUP1 DUP4 SLOAD DIV MUL DUP4 MSTORE SWAP2 PUSH1 0x20 ADD SWAP2 PUSH2 0x1229 JUMP JUMPDEST DUP3 ADD SWAP2 SWAP1 PUSH1 0x0 MSTORE PUSH1 0x20 PUSH1 0x0 KECCAK256 SWAP1 JUMPDEST DUP2 SLOAD DUP2 MSTORE SWAP1 PUSH1 0x1 ADD SWAP1 PUSH1 0x20 ADD DUP1 DUP4 GT PUSH2 0x120C JUMPI DUP3 SWAP1 SUB PUSH1 0x1F AND DUP3 ADD SWAP2 JUMPDEST POP POP POP POP POP DUP2 MSTORE POP POP DUP2 MSTORE PUSH1 0x20 ADD SWAP1 PUSH1 0x1 ADD SWAP1 PUSH2 0xF6F JUMP JUMPDEST POP POP POP POP SWAP1 POP PUSH1 0x0 PUSH2 0x1261 PUSH1 0x0 DUP1 MLOAD PUSH1 0x20 PUSH2 0x45C0 DUP4 CODECOPY DUP2 MLOAD SWAP2 MSTORE CALLER PUSH2 0x1C93 JUMP JUMPDEST DUP1 PUSH2 0x127C JUMPI POP CALLER PUSH2 0x1271 DUP6 PUSH2 0x1638 JUMP JUMPDEST PUSH1 0x1 PUSH1 0x1 PUSH1 0xA0 SHL SUB AND EQ JUMPDEST ISZERO PUSH2 0x1288 JUMPI POP SWAP3 SWAP2 POP POP JUMP JUMPDEST PUSH2 0x12A0 PUSH1 0x0 DUP1 MLOAD PUSH1 0x20 PUSH2 0x45A0 DUP4 CODECOPY DUP2 MLOAD SWAP2 MSTORE CALLER PUSH2 0x1C93 JUMP JUMPDEST ISZERO PUSH2 0x130D JUMPI PUSH1 0x0 JUMPDEST DUP3 MLOAD DUP2 LT ISZERO PUSH2 0x1307 JUMPI PUSH1 0x3 DUP4 DUP3 DUP2 MLOAD DUP2 LT PUSH2 0x12C5 JUMPI PUSH2 0x12C5 PUSH2 0x4457 JUMP JUMPDEST PUSH1 0x20 MUL PUSH1 0x20 ADD ADD MLOAD PUSH1 0x80 ADD MLOAD PUSH1 0x4 DUP2 GT ISZERO PUSH2 0x12E2 JUMPI PUSH2 0x12E2 PUSH2 0x3D7A JUMP JUMPDEST GT PUSH2 0x12F5 JUMPI DUP2 PUSH2 0x12F1 DUP2 PUSH2 0x428C JUMP JUMPDEST SWAP3 POP POP JUMPDEST DUP1 PUSH2 0x12FF DUP2 PUSH2 0x428C JUMP JUMPDEST SWAP2 POP POP PUSH2 0x12A8 JUMP JUMPDEST POP PUSH2 0x1442 JUMP JUMPDEST PUSH2 0x1325 PUSH1 0x0 DUP1 MLOAD PUSH1 0x20 PUSH2 0x4580 DUP4 CODECOPY DUP2 MLOAD SWAP2 MSTORE CALLER PUSH2 0x1C93 JUMP JUMPDEST ISZERO PUSH2 0x138C JUMPI PUSH1 0x0 JUMPDEST DUP3 MLOAD DUP2 LT ISZERO PUSH2 0x1307 JUMPI PUSH1 0x2 DUP4 DUP3 DUP2 MLOAD DUP2 LT PUSH2 0x134A JUMPI PUSH2 0x134A PUSH2 0x4457 JUMP JUMPDEST PUSH1 0x20 MUL PUSH1 0x20 ADD ADD MLOAD PUSH1 0x80 ADD MLOAD PUSH1 0x4 DUP2 GT ISZERO PUSH2 0x1367 JUMPI PUSH2 0x1367 PUSH2 0x3D7A JUMP JUMPDEST GT PUSH2 0x137A JUMPI DUP2 PUSH2 0x1376 DUP2 PUSH2 0x428C JUMP JUMPDEST SWAP3 POP POP JUMPDEST DUP1 PUSH2 0x1384 DUP2 PUSH2 0x428C JUMP JUMPDEST SWAP2 POP POP PUSH2 0x132D JUMP JUMPDEST PUSH2 0x13A4 PUSH1 0x0 DUP1 MLOAD PUSH1 0x20 PUSH2 0x4560 DUP4 CODECOPY DUP2 MLOAD SWAP2 MSTORE CALLER PUSH2 0x1C93 JUMP JUMPDEST ISZERO PUSH2 0x140B JUMPI PUSH1 0x0 JUMPDEST DUP3 MLOAD DUP2 LT ISZERO PUSH2 0x1307 JUMPI PUSH1 0x1 DUP4 DUP3 DUP2 MLOAD DUP2 LT PUSH2 0x13C9 JUMPI PUSH2 0x13C9 PUSH2 0x4457 JUMP JUMPDEST PUSH1 0x20 MUL PUSH1 0x20 ADD ADD MLOAD PUSH1 0x80 ADD MLOAD PUSH1 0x4 DUP2 GT ISZERO PUSH2 0x13E6 JUMPI PUSH2 0x13E6 PUSH2 0x3D7A JUMP JUMPDEST SUB PUSH2 0x13F9 JUMPI DUP2 PUSH2 0x13F5 DUP2 PUSH2 0x428C JUMP JUMPDEST SWAP3 POP POP JUMPDEST DUP1 PUSH2 0x1403 DUP2 PUSH2 0x428C JUMP JUMPDEST SWAP2 POP POP PUSH2 0x13AC JUMP JUMPDEST PUSH1 0x0 DUP5 DUP2 MSTORE PUSH1 0x9 PUSH1 0x20 MSTORE PUSH1 0x40 SWAP1 KECCAK256 PUSH1 0x4 SWAP1 DUP2 ADD SLOAD PUSH1 0xFF AND DUP2 DUP2 GT ISZERO PUSH2 0x1432 JUMPI PUSH2 0x1432 PUSH2 0x3D7A JUMP JUMPDEST SUB PUSH2 0x143E JUMPI POP SWAP3 SWAP2 POP POP JUMP JUMPDEST POP PUSH1 0x0 JUMPDEST PUSH1 0x0 DUP2 PUSH8 0xFFFFFFFFFFFFFFFF DUP2 GT ISZERO PUSH2 0x145D JUMPI PUSH2 0x145D PUSH2 0x3B5F JUMP JUMPDEST PUSH1 0x40 MLOAD SWAP1 DUP1 DUP3 MSTORE DUP1 PUSH1 0x20 MUL PUSH1 0x20 ADD DUP3 ADD PUSH1 0x40 MSTORE DUP1 ISZERO PUSH2 0x1496 JUMPI DUP2 PUSH1 0x20 ADD JUMPDEST PUSH2 0x1483 PUSH2 0x39B3 JUMP JUMPDEST DUP2 MSTORE PUSH1 0x20 ADD SWAP1 PUSH1 0x1 SWAP1 SUB SWAP1 DUP2 PUSH2 0x147B JUMPI SWAP1 POP JUMPDEST POP SWAP1 POP PUSH1 0x0 DUP1 JUMPDEST DUP5 MLOAD DUP2 LT DUP1 ISZERO PUSH2 0x14AC JUMPI POP DUP4 DUP3 LT JUMPDEST ISZERO PUSH2 0x162D JUMPI PUSH1 0x0 PUSH2 0x14CB PUSH1 0x0 DUP1 MLOAD PUSH1 0x20 PUSH2 0x45A0 DUP4 CODECOPY DUP2 MLOAD SWAP2 MSTORE CALLER PUSH2 0x1C93 JUMP JUMPDEST DUP1 ISZERO PUSH2 0x1506 JUMPI POP PUSH1 0x3 DUP7 DUP4 DUP2 MLOAD DUP2 LT PUSH2 0x14E6 JUMPI PUSH2 0x14E6 PUSH2 0x4457 JUMP JUMPDEST PUSH1 0x20 MUL PUSH1 0x20 ADD ADD MLOAD PUSH1 0x80 ADD MLOAD PUSH1 0x4 DUP2 GT ISZERO PUSH2 0x1503 JUMPI PUSH2 0x1503 PUSH2 0x3D7A JUMP JUMPDEST GT ISZERO JUMPDEST ISZERO PUSH2 0x1513 JUMPI POP PUSH1 0x1 PUSH2 0x15CE JUMP JUMPDEST PUSH2 0x152B PUSH1 0x0 DUP1 MLOAD PUSH1 0x20 PUSH2 0x4580 DUP4 CODECOPY DUP2 MLOAD SWAP2 MSTORE CALLER PUSH2 0x1C93 JUMP JUMPDEST DUP1 ISZERO PUSH2 0x1566 JUMPI POP PUSH1 0x2 DUP7 DUP4 DUP2 MLOAD DUP2 LT PUSH2 0x1546 JUMPI PUSH2 0x1546 PUSH2 0x4457 JUMP JUMPDEST PUSH1 0x20 MUL PUSH1 0x20 ADD ADD MLOAD PUSH1 0x80 ADD MLOAD PUSH1 0x4 DUP2 GT ISZERO PUSH2 0x1563 JUMPI PUSH2 0x1563 PUSH2 0x3D7A JUMP JUMPDEST GT ISZERO JUMPDEST ISZERO PUSH2 0x1573 JUMPI POP PUSH1 0x1 PUSH2 0x15CE JUMP JUMPDEST PUSH2 0x158B PUSH1 0x0 DUP1 MLOAD PUSH1 0x20 PUSH2 0x4560 DUP4 CODECOPY DUP2 MLOAD SWAP2 MSTORE CALLER PUSH2 0x1C93 JUMP JUMPDEST DUP1 ISZERO PUSH2 0x15C5 JUMPI POP PUSH1 0x1 DUP7 DUP4 DUP2 MLOAD DUP2 LT PUSH2 0x15A6 JUMPI PUSH2 0x15A6 PUSH2 0x4457 JUMP JUMPDEST PUSH1 0x20 MUL PUSH1 0x20 ADD ADD MLOAD PUSH1 0x80 ADD MLOAD PUSH1 0x4 DUP2 GT ISZERO PUSH2 0x15C3 JUMPI PUSH2 0x15C3 PUSH2 0x3D7A JUMP JUMPDEST EQ JUMPDEST ISZERO PUSH2 0x15CE JUMPI POP PUSH1 0x1 JUMPDEST DUP1 ISZERO PUSH2 0x161A JUMPI DUP6 DUP3 DUP2 MLOAD DUP2 LT PUSH2 0x15E6 JUMPI PUSH2 0x15E6 PUSH2 0x4457 JUMP JUMPDEST PUSH1 0x20 MUL PUSH1 0x20 ADD ADD MLOAD DUP5 DUP5 DUP2 MLOAD DUP2 LT PUSH2 0x1600 JUMPI PUSH2 0x1600 PUSH2 0x4457 JUMP JUMPDEST PUSH1 0x20 MUL PUSH1 0x20 ADD ADD DUP2 SWAP1 MSTORE POP DUP3 DUP1 PUSH2 0x1616 SWAP1 PUSH2 0x428C JUMP JUMPDEST SWAP4 POP POP JUMPDEST POP DUP1 PUSH2 0x1625 DUP2 PUSH2 0x428C JUMP JUMPDEST SWAP2 POP POP PUSH2 0x149D JUMP JUMPDEST POP SWAP1 SWAP6 SWAP5 POP POP POP POP POP JUMP JUMPDEST PUSH1 0x0 PUSH2 0x5CB DUP3 PUSH2 0x2EA5 JUMP JUMPDEST PUSH1 0x0 PUSH1 0x1 PUSH1 0x1 PUSH1 0xA0 SHL SUB DUP3 AND PUSH2 0x166F JUMPI PUSH1 0x40 MLOAD PUSH4 0x22718AD9 PUSH1 0xE2 SHL DUP2 MSTORE PUSH1 0x0 PUSH1 0x4 DUP3 ADD MSTORE PUSH1 0x24 ADD PUSH2 0x901 JUMP JUMPDEST POP PUSH1 0x1 PUSH1 0x1 PUSH1 0xA0 SHL SUB AND PUSH1 0x0 SWAP1 DUP2 MSTORE PUSH1 0x3 PUSH1 0x20 MSTORE PUSH1 0x40 SWAP1 KECCAK256 SLOAD SWAP1 JUMP JUMPDEST PUSH1 0x0 DUP2 DUP2 MSTORE PUSH1 0x9 PUSH1 0x20 MSTORE PUSH1 0x40 DUP2 KECCAK256 PUSH1 0x4 ADD SLOAD PUSH1 0x1 PUSH1 0xA8 SHL SWAP1 DIV PUSH1 0xFF AND PUSH2 0x16C3 JUMPI PUSH1 0x40 MLOAD PUSH3 0x461BCD PUSH1 0xE5 SHL DUP2 MSTORE PUSH1 0x4 ADD PUSH2 0x901 SWAP1 PUSH2 0x4427 JUMP JUMPDEST POP PUSH1 0x0 SWAP1 DUP2 MSTORE PUSH1 0xA PUSH1 0x20 MSTORE PUSH1 0x40 SWAP1 KECCAK256 SLOAD SWAP1 JUMP JUMPDEST PUSH1 0x9 PUSH1 0x20 MSTORE PUSH1 0x0 SWAP1 DUP2 MSTORE PUSH1 0x40 SWAP1 KECCAK256 DUP1 SLOAD DUP2 SWAP1 PUSH2 0x16F1 SWAP1 PUSH2 0x4236 JUMP JUMPDEST DUP1 PUSH1 0x1F ADD PUSH1 0x20 DUP1 SWAP2 DIV MUL PUSH1 0x20 ADD PUSH1 0x40 MLOAD SWAP1 DUP2 ADD PUSH1 0x40 MSTORE DUP1 SWAP3 SWAP2 SWAP1 DUP2 DUP2 MSTORE PUSH1 0x20 ADD DUP3 DUP1 SLOAD PUSH2 0x171D SWAP1 PUSH2 0x4236 JUMP JUMPDEST DUP1 ISZERO PUSH2 0x176A JUMPI DUP1 PUSH1 0x1F LT PUSH2 0x173F JUMPI PUSH2 0x100 DUP1 DUP4 SLOAD DIV MUL DUP4 MSTORE SWAP2 PUSH1 0x20 ADD SWAP2 PUSH2 0x176A JUMP JUMPDEST DUP3 ADD SWAP2 SWAP1 PUSH1 0x0 MSTORE PUSH1 0x20 PUSH1 0x0 KECCAK256 SWAP1 JUMPDEST DUP2 SLOAD DUP2 MSTORE SWAP1 PUSH1 0x1 ADD SWAP1 PUSH1 0x20 ADD DUP1 DUP4 GT PUSH2 0x174D JUMPI DUP3 SWAP1 SUB PUSH1 0x1F AND DUP3 ADD SWAP2 JUMPDEST POP POP POP POP POP SWAP1 DUP1 PUSH1 0x1 ADD DUP1 SLOAD PUSH2 0x177F SWAP1 PUSH2 0x4236 JUMP JUMPDEST DUP1 PUSH1 0x1F ADD PUSH1 0x20 DUP1 SWAP2 DIV MUL PUSH1 0x20 ADD PUSH1 0x40 MLOAD SWAP1 DUP2 ADD PUSH1 0x40 MSTORE DUP1 SWAP3 SWAP2 SWAP1 DUP2 DUP2 MSTORE PUSH1 0x20 ADD DUP3 DUP1 SLOAD PUSH2 0x17AB SWAP1 PUSH2 0x4236 JUMP JUMPDEST DUP1 ISZERO PUSH2 0x17F8 JUMPI DUP1 PUSH1 0x1F LT PUSH2 0x17CD JUMPI PUSH2 0x100 DUP1 DUP4 SLOAD DIV MUL DUP4 MSTORE SWAP2 PUSH1 0x20 ADD SWAP2 PUSH2 0x17F8 JUMP JUMPDEST DUP3 ADD SWAP2 SWAP1 PUSH1 0x0 MSTORE PUSH1 0x20 PUSH1 0x0 KECCAK256 SWAP1 JUMPDEST DUP2 SLOAD DUP2 MSTORE SWAP1 PUSH1 0x1 ADD SWAP1 PUSH1 0x20 ADD DUP1 DUP4 GT PUSH2 0x17DB JUMPI DUP3 SWAP1 SUB PUSH1 0x1F AND DUP3 ADD SWAP2 JUMPDEST POP POP POP POP POP SWAP1 DUP1 PUSH1 0x2 ADD SLOAD SWAP1 DUP1 PUSH1 0x3 ADD DUP1 SLOAD PUSH2 0x1813 SWAP1 PUSH2 0x4236 JUMP JUMPDEST DUP1 PUSH1 0x1F ADD PUSH1 0x20 DUP1 SWAP2 DIV MUL PUSH1 0x20 ADD PUSH1 0x40 MLOAD SWAP1 DUP2 ADD PUSH1 0x40 MSTORE DUP1 SWAP3 SWAP2 SWAP1 DUP2 DUP2 MSTORE PUSH1 0x20 ADD DUP3 DUP1 SLOAD PUSH2 0x183F SWAP1 PUSH2 0x4236 JUMP JUMPDEST DUP1 ISZERO PUSH2 0x188C JUMPI DUP1 PUSH1 0x1F LT PUSH2 0x1861 JUMPI PUSH2 0x100 DUP1 DUP4 SLOAD DIV MUL DUP4 MSTORE SWAP2 PUSH1 0x20 ADD SWAP2 PUSH2 0x188C JUMP JUMPDEST DUP3 ADD SWAP2 SWAP1 PUSH1 0x0 MSTORE PUSH1 0x20 PUSH1 0x0 KECCAK256 SWAP1 JUMPDEST DUP2 SLOAD DUP2 MSTORE SWAP1 PUSH1 0x1 ADD SWAP1 PUSH1 0x20 ADD DUP1 DUP4 GT PUSH2 0x186F JUMPI DUP3 SWAP1 SUB PUSH1 0x1F AND DUP3 ADD SWAP2 JUMPDEST POP POP POP PUSH1 0x4 SWAP1 SWAP4 ADD SLOAD SWAP2 SWAP3 POP POP PUSH1 0xFF DUP1 DUP3 AND SWAP2 PUSH1 0x1 PUSH1 0x1 PUSH1 0xA0 SHL SUB PUSH2 0x100 DUP3 DIV AND SWAP2 PUSH1 0x1 PUSH1 0xA8 SHL SWAP1 SWAP2 DIV AND DUP8 JUMP JUMPDEST PUSH1 0x0 DUP1 MLOAD PUSH1 0x20 PUSH2 0x45A0 DUP4 CODECOPY DUP2 MLOAD SWAP2 MSTORE PUSH2 0x18D2 DUP2 PUSH2 0x2EEB JUMP JUMPDEST PUSH1 0x0 DUP6 DUP2 MSTORE PUSH1 0x9 PUSH1 0x20 MSTORE PUSH1 0x40 SWAP1 KECCAK256 PUSH1 0x4 ADD SLOAD PUSH1 0x1 PUSH1 0xA8 SHL SWAP1 DIV PUSH1 0xFF AND PUSH2 0x190A JUMPI PUSH1 0x40 MLOAD PUSH3 0x461BCD PUSH1 0xE5 SHL DUP2 MSTORE PUSH1 0x4 ADD PUSH2 0x901 SWAP1 PUSH2 0x4427 JUMP JUMPDEST CALLER PUSH2 0x1914 DUP7 PUSH2 0x1638 JUMP JUMPDEST PUSH1 0x1 PUSH1 0x1 PUSH1 0xA0 SHL SUB AND EQ PUSH2 0x193A JUMPI PUSH1 0x40 MLOAD PUSH3 0x461BCD PUSH1 0xE5 SHL DUP2 MSTORE PUSH1 0x4 ADD PUSH2 0x901 SWAP1 PUSH2 0x446D JUMP JUMPDEST PUSH1 0x3 PUSH1 0x0 DUP7 DUP2 MSTORE PUSH1 0x9 PUSH1 0x20 MSTORE PUSH1 0x40 SWAP1 KECCAK256 PUSH1 0x4 SWAP1 DUP2 ADD SLOAD PUSH1 0xFF AND SWAP1 DUP2 GT ISZERO PUSH2 0x1963 JUMPI PUSH2 0x1963 PUSH2 0x3D7A JUMP JUMPDEST EQ PUSH2 0x1980 JUMPI PUSH1 0x40 MLOAD PUSH3 0x461BCD PUSH1 0xE5 SHL DUP2 MSTORE PUSH1 0x4 ADD PUSH2 0x901 SWAP1 PUSH2 0x4494 JUMP JUMPDEST PUSH2 0x198B CALLER DUP6 DUP8 PUSH2 0x315C JUMP JUMPDEST PUSH1 0x0 DUP6 DUP2 MSTORE PUSH1 0x9 PUSH1 0x20 DUP2 DUP2 MSTORE PUSH1 0x40 DUP1 DUP5 KECCAK256 PUSH1 0x4 DUP1 DUP3 ADD DUP1 SLOAD PUSH1 0x1 PUSH1 0x1 PUSH1 0xA8 SHL SUB NOT AND PUSH2 0x100 PUSH1 0x1 PUSH1 0x1 PUSH1 0xA0 SHL SUB DUP14 AND MUL OR SWAP1 SWAP2 OR SWAP1 SSTORE PUSH1 0xA DUP4 MSTORE SWAP4 DUP2 SWAP1 KECCAK256 DUP2 MLOAD PUSH1 0xE0 DUP2 ADD SWAP1 SWAP3 MSTORE SWAP3 SWAP1 SWAP2 MSTORE DUP3 SLOAD SWAP2 SWAP3 SWAP1 SWAP2 DUP3 SWAP2 SWAP1 PUSH2 0x19E8 SWAP1 PUSH2 0x4236 JUMP JUMPDEST DUP1 PUSH1 0x1F ADD PUSH1 0x20 DUP1 SWAP2 DIV MUL PUSH1 0x20 ADD PUSH1 0x40 MLOAD SWAP1 DUP2 ADD PUSH1 0x40 MSTORE DUP1 SWAP3 SWAP2 SWAP1 DUP2 DUP2 MSTORE PUSH1 0x20 ADD DUP3 DUP1 SLOAD PUSH2 0x1A14 SWAP1 PUSH2 0x4236 JUMP JUMPDEST DUP1 ISZERO PUSH2 0x1A61 JUMPI DUP1 PUSH1 0x1F LT PUSH2 0x1A36 JUMPI PUSH2 0x100 DUP1 DUP4 SLOAD DIV MUL DUP4 MSTORE SWAP2 PUSH1 0x20 ADD SWAP2 PUSH2 0x1A61 JUMP JUMPDEST DUP3 ADD SWAP2 SWAP1 PUSH1 0x0 MSTORE PUSH1 0x20 PUSH1 0x0 KECCAK256 SWAP1 JUMPDEST DUP2 SLOAD DUP2 MSTORE SWAP1 PUSH1 0x1 ADD SWAP1 PUSH1 0x20 ADD DUP1 DUP4 GT PUSH2 0x1A44 JUMPI DUP3 SWAP1 SUB PUSH1 0x1F AND DUP3 ADD SWAP2 JUMPDEST POP POP POP POP POP DUP2 MSTORE PUSH1 0x20 ADD PUSH1 0x9 PUSH1 0x0 DUP10 DUP2 MSTORE PUSH1 0x20 ADD SWAP1 DUP2 MSTORE PUSH1 0x20 ADD PUSH1 0x0 KECCAK256 PUSH1 0x1 ADD DUP1 SLOAD PUSH2 0x1A8C SWAP1 PUSH2 0x4236 JUMP JUMPDEST DUP1 PUSH1 0x1F ADD PUSH1 0x20 DUP1 SWAP2 DIV MUL PUSH1 0x20 ADD PUSH1 0x40 MLOAD SWAP1 DUP2 ADD PUSH1 0x40 MSTORE DUP1 SWAP3 SWAP2 SWAP1 DUP2 DUP2 MSTORE PUSH1 0x20 ADD DUP3 DUP1 SLOAD PUSH2 0x1AB8 SWAP1 PUSH2 0x4236 JUMP JUMPDEST DUP1 ISZERO PUSH2 0x1B05 JUMPI DUP1 PUSH1 0x1F LT PUSH2 0x1ADA JUMPI PUSH2 0x100 DUP1 DUP4 SLOAD DIV MUL DUP4 MSTORE SWAP2 PUSH1 0x20 ADD SWAP2 PUSH2 0x1B05 JUMP JUMPDEST DUP3 ADD SWAP2 SWAP1 PUSH1 0x0 MSTORE PUSH1 0x20 PUSH1 0x0 KECCAK256 SWAP1 JUMPDEST DUP2 SLOAD DUP2 MSTORE SWAP1 PUSH1 0x1 ADD SWAP1 PUSH1 0x20 ADD DUP1 DUP4 GT PUSH2 0x1AE8 JUMPI DUP3 SWAP1 SUB PUSH1 0x1F AND DUP3 ADD SWAP2 JUMPDEST POP POP POP SWAP2 DUP4 MSTORE POP POP TIMESTAMP PUSH1 0x20 DUP3 ADD MSTORE PUSH1 0x40 DUP2 ADD DUP7 SWAP1 MSTORE PUSH1 0x60 ADD PUSH1 0x4 DUP2 MSTORE PUSH1 0x1 PUSH1 0x1 PUSH1 0xA0 SHL SUB DUP8 AND PUSH1 0x20 DUP1 DUP4 ADD SWAP2 SWAP1 SWAP2 MSTORE PUSH1 0x40 SWAP1 SWAP2 ADD DUP6 SWAP1 MSTORE DUP3 SLOAD PUSH1 0x1 DUP2 ADD DUP5 SSTORE PUSH1 0x0 SWAP4 DUP5 MSTORE SWAP3 KECCAK256 DUP2 MLOAD SWAP2 SWAP3 PUSH1 0x6 MUL ADD SWAP1 DUP2 SWAP1 PUSH2 0x1B60 SWAP1 DUP3 PUSH2 0x4301 JUMP JUMPDEST POP PUSH1 0x20 DUP3 ADD MLOAD PUSH1 0x1 DUP3 ADD SWAP1 PUSH2 0x1B75 SWAP1 DUP3 PUSH2 0x4301 JUMP JUMPDEST POP PUSH1 0x40 DUP3 ADD MLOAD PUSH1 0x2 DUP3 ADD SSTORE PUSH1 0x60 DUP3 ADD MLOAD PUSH1 0x3 DUP3 ADD SWAP1 PUSH2 0x1B94 SWAP1 DUP3 PUSH2 0x4301 JUMP JUMPDEST POP PUSH1 0x80 DUP3 ADD MLOAD DUP2 PUSH1 0x4 ADD PUSH1 0x0 PUSH2 0x100 EXP DUP2 SLOAD DUP2 PUSH1 0xFF MUL NOT AND SWAP1 DUP4 PUSH1 0x4 DUP2 GT ISZERO PUSH2 0x1BBF JUMPI PUSH2 0x1BBF PUSH2 0x3D7A JUMP JUMPDEST MUL OR SWAP1 SSTORE POP PUSH1 0xA0 DUP3 ADD MLOAD PUSH1 0x4 DUP3 ADD DUP1 SLOAD PUSH1 0x1 PUSH1 0x1 PUSH1 0xA0 SHL SUB SWAP1 SWAP3 AND PUSH2 0x100 MUL PUSH2 0x100 PUSH1 0x1 PUSH1 0xA8 SHL SUB NOT SWAP1 SWAP3 AND SWAP2 SWAP1 SWAP2 OR SWAP1 SSTORE PUSH1 0xC0 DUP3 ADD MLOAD PUSH1 0x5 DUP3 ADD SWAP1 PUSH2 0x1C05 SWAP1 DUP3 PUSH2 0x4301 JUMP JUMPDEST POP POP POP DUP4 PUSH1 0x1 PUSH1 0x1 PUSH1 0xA0 SHL SUB AND CALLER PUSH1 0x1 PUSH1 0x1 PUSH1 0xA0 SHL SUB AND DUP7 PUSH32 0x9FA92E8B138A6A0678480E61B6E7A0EE30AF964EA75BC7B4A7006435E0F9B537 PUSH1 0x4 TIMESTAMP PUSH1 0x40 MLOAD PUSH2 0x1C4F SWAP3 SWAP2 SWAP1 PUSH2 0x44BB JUMP JUMPDEST PUSH1 0x40 MLOAD DUP1 SWAP2 SUB SWAP1 LOG4 DUP4 PUSH1 0x1 PUSH1 0x1 PUSH1 0xA0 SHL SUB AND DUP6 PUSH1 0x0 DUP1 MLOAD PUSH1 0x20 PUSH2 0x45E0 DUP4 CODECOPY DUP2 MLOAD SWAP2 MSTORE PUSH1 0x4 DUP7 TIMESTAMP PUSH1 0x40 MLOAD PUSH2 0x1C84 SWAP4 SWAP3 SWAP2 SWAP1 PUSH2 0x43F7 JUMP JUMPDEST PUSH1 0x40 MLOAD DUP1 SWAP2 SUB SWAP1 LOG3 POP POP POP POP POP JUMP JUMPDEST PUSH1 0x0 SWAP2 DUP3 MSTORE PUSH1 0x7 PUSH1 0x20 SWAP1 DUP2 MSTORE PUSH1 0x40 DUP1 DUP5 KECCAK256 PUSH1 0x1 PUSH1 0x1 PUSH1 0xA0 SHL SUB SWAP4 SWAP1 SWAP4 AND DUP5 MSTORE SWAP2 SWAP1 MSTORE SWAP1 KECCAK256 SLOAD PUSH1 0xFF AND SWAP1 JUMP JUMPDEST PUSH1 0x60 PUSH1 0x1 DUP1 SLOAD PUSH2 0x7C2 SWAP1 PUSH2 0x4236 JUMP JUMPDEST PUSH2 0x879 CALLER DUP4 DUP4 PUSH2 0x320C JUMP JUMPDEST PUSH2 0x1CE3 DUP5 DUP5 DUP5 PUSH2 0xC78 JUMP JUMPDEST PUSH2 0xCFD DUP5 DUP5 DUP5 DUP5 PUSH2 0x32AB JUMP JUMPDEST PUSH2 0x1CF7 PUSH2 0x3A01 JUMP JUMPDEST PUSH1 0x0 DUP3 DUP2 MSTORE PUSH1 0x9 PUSH1 0x20 MSTORE PUSH1 0x40 SWAP1 KECCAK256 PUSH1 0x4 ADD SLOAD PUSH1 0x1 PUSH1 0xA8 SHL SWAP1 DIV PUSH1 0xFF AND PUSH2 0x1D2F JUMPI PUSH1 0x40 MLOAD PUSH3 0x461BCD PUSH1 0xE5 SHL DUP2 MSTORE PUSH1 0x4 ADD PUSH2 0x901 SWAP1 PUSH2 0x4427 JUMP JUMPDEST PUSH1 0x0 DUP3 DUP2 MSTORE PUSH1 0x9 PUSH1 0x20 MSTORE PUSH1 0x40 SWAP1 DUP2 SWAP1 KECCAK256 DUP2 MLOAD PUSH1 0xE0 DUP2 ADD SWAP1 SWAP3 MSTORE DUP1 SLOAD DUP3 SWAP1 DUP3 SWAP1 PUSH2 0x1D57 SWAP1 PUSH2 0x4236 JUMP JUMPDEST DUP1 PUSH1 0x1F ADD PUSH1 0x20 DUP1 SWAP2 DIV MUL PUSH1 0x20 ADD PUSH1 0x40 MLOAD SWAP1 DUP2 ADD PUSH1 0x40 MSTORE DUP1 SWAP3 SWAP2 SWAP1 DUP2 DUP2 MSTORE PUSH1 0x20 ADD DUP3 DUP1 SLOAD PUSH2 0x1D83 SWAP1 PUSH2 0x4236 JUMP JUMPDEST DUP1 ISZERO PUSH2 0x1DD0 JUMPI DUP1 PUSH1 0x1F LT PUSH2 0x1DA5 JUMPI PUSH2 0x100 DUP1 DUP4 SLOAD DIV MUL DUP4 MSTORE SWAP2 PUSH1 0x20 ADD SWAP2 PUSH2 0x1DD0 JUMP JUMPDEST DUP3 ADD SWAP2 SWAP1 PUSH1 0x0 MSTORE PUSH1 0x20 PUSH1 0x0 KECCAK256 SWAP1 JUMPDEST DUP2 SLOAD DUP2 MSTORE SWAP1 PUSH1 0x1 ADD SWAP1 PUSH1 0x20 ADD DUP1 DUP4 GT PUSH2 0x1DB3 JUMPI DUP3 SWAP1 SUB PUSH1 0x1F AND DUP3 ADD SWAP2 JUMPDEST POP POP POP POP POP DUP2 MSTORE PUSH1 0x20 ADD PUSH1 0x1 DUP3 ADD DUP1 SLOAD PUSH2 0x1DE9 SWAP1 PUSH2 0x4236 JUMP JUMPDEST DUP1 PUSH1 0x1F ADD PUSH1 0x20 DUP1 SWAP2 DIV MUL PUSH1 0x20 ADD PUSH1 0x40 MLOAD SWAP1 DUP2 ADD PUSH1 0x40 MSTORE DUP1 SWAP3 SWAP2 SWAP1 DUP2 DUP2 MSTORE PUSH1 0x20 ADD DUP3 DUP1 SLOAD PUSH2 0x1E15 SWAP1 PUSH2 0x4236 JUMP JUMPDEST DUP1 ISZERO PUSH2 0x1E62 JUMPI DUP1 PUSH1 0x1F LT PUSH2 0x1E37 JUMPI PUSH2 0x100 DUP1 DUP4 SLOAD DIV MUL DUP4 MSTORE SWAP2 PUSH1 0x20 ADD SWAP2 PUSH2 0x1E62 JUMP JUMPDEST DUP3 ADD SWAP2 SWAP1 PUSH1 0x0 MSTORE PUSH1 0x20 PUSH1 0x0 KECCAK256 SWAP1 JUMPDEST DUP2 SLOAD DUP2 MSTORE SWAP1 PUSH1 0x1 ADD SWAP1 PUSH1 0x20 ADD DUP1 DUP4 GT PUSH2 0x1E45 JUMPI DUP3 SWAP1 SUB PUSH1 0x1F AND DUP3 ADD SWAP2 JUMPDEST POP POP POP POP POP DUP2 MSTORE PUSH1 0x20 ADD PUSH1 0x2 DUP3 ADD SLOAD DUP2 MSTORE PUSH1 0x20 ADD PUSH1 0x3 DUP3 ADD DUP1 SLOAD PUSH2 0x1E85 SWAP1 PUSH2 0x4236 JUMP JUMPDEST DUP1 PUSH1 0x1F ADD PUSH1 0x20 DUP1 SWAP2 DIV MUL PUSH1 0x20 ADD PUSH1 0x40 MLOAD SWAP1 DUP2 ADD PUSH1 0x40 MSTORE DUP1 SWAP3 SWAP2 SWAP1 DUP2 DUP2 MSTORE PUSH1 0x20 ADD DUP3 DUP1 SLOAD PUSH2 0x1EB1 SWAP1 PUSH2 0x4236 JUMP JUMPDEST DUP1 ISZERO PUSH2 0x1EFE JUMPI DUP1 PUSH1 0x1F LT PUSH2 0x1ED3 JUMPI PUSH2 0x100 DUP1 DUP4 SLOAD DIV MUL DUP4 MSTORE SWAP2 PUSH1 0x20 ADD SWAP2 PUSH2 0x1EFE JUMP JUMPDEST DUP3 ADD SWAP2 SWAP1 PUSH1 0x0 MSTORE PUSH1 0x20 PUSH1 0x0 KECCAK256 SWAP1 JUMPDEST DUP2 SLOAD DUP2 MSTORE SWAP1 PUSH1 0x1 ADD SWAP1 PUSH1 0x20 ADD DUP1 DUP4 GT PUSH2 0x1EE1 JUMPI DUP3 SWAP1 SUB PUSH1 0x1F AND DUP3 ADD SWAP2 JUMPDEST POP POP POP SWAP2 DUP4 MSTORE POP POP PUSH1 0x4 DUP3 DUP2 ADD SLOAD PUSH1 0x20 SWAP1 SWAP3 ADD SWAP2 PUSH1 0xFF AND SWAP1 DUP2 GT ISZERO PUSH2 0x1F25 JUMPI PUSH2 0x1F25 PUSH2 0x3D7A JUMP JUMPDEST PUSH1 0x4 DUP2 GT ISZERO PUSH2 0x1F36 JUMPI PUSH2 0x1F36 PUSH2 0x3D7A JUMP JUMPDEST DUP2 MSTORE PUSH1 0x4 SWAP2 SWAP1 SWAP2 ADD SLOAD PUSH2 0x100 DUP2 DIV PUSH1 0x1 PUSH1 0x1 PUSH1 0xA0 SHL SUB AND PUSH1 0x20 DUP4 ADD MSTORE PUSH1 0x1 PUSH1 0xA8 SHL SWAP1 DIV PUSH1 0xFF AND ISZERO ISZERO PUSH1 0x40 SWAP1 SWAP2 ADD MSTORE SWAP3 SWAP2 POP POP JUMP JUMPDEST PUSH1 0x60 PUSH2 0x5CB DUP3 PUSH2 0x33D4 JUMP JUMPDEST PUSH1 0x0 DUP1 MLOAD PUSH1 0x20 PUSH2 0x4580 DUP4 CODECOPY DUP2 MLOAD SWAP2 MSTORE PUSH2 0x1F8D DUP2 PUSH2 0x2EEB JUMP JUMPDEST PUSH1 0x0 DUP6 DUP2 MSTORE PUSH1 0x9 PUSH1 0x20 MSTORE PUSH1 0x40 SWAP1 KECCAK256 PUSH1 0x4 ADD SLOAD PUSH1 0x1 PUSH1 0xA8 SHL SWAP1 DIV PUSH1 0xFF AND PUSH2 0x1FC5 JUMPI PUSH1 0x40 MLOAD PUSH3 0x461BCD PUSH1 0xE5 SHL DUP2 MSTORE PUSH1 0x4 ADD PUSH2 0x901 SWAP1 PUSH2 0x4427 JUMP JUMPDEST CALLER PUSH2 0x1FCF DUP7 PUSH2 0x1638 JUMP JUMPDEST PUSH1 0x1 PUSH1 0x1 PUSH1 0xA0 SHL SUB AND EQ PUSH2 0x1FF5 JUMPI PUSH1 0x40 MLOAD PUSH3 0x461BCD PUSH1 0xE5 SHL DUP2 MSTORE PUSH1 0x4 ADD PUSH2 0x901 SWAP1 PUSH2 0x446D JUMP JUMPDEST PUSH1 0x2 PUSH1 0x0 DUP7 DUP2 MSTORE PUSH1 0x9 PUSH1 0x20 MSTORE PUSH1 0x40 SWAP1 KECCAK256 PUSH1 0x4 SWAP1 DUP2 ADD SLOAD PUSH1 0xFF AND SWAP1 DUP2 GT ISZERO PUSH2 0x201E JUMPI PUSH2 0x201E PUSH2 0x3D7A JUMP JUMPDEST EQ PUSH2 0x203B JUMPI PUSH1 0x40 MLOAD PUSH3 0x461BCD PUSH1 0xE5 SHL DUP2 MSTORE PUSH1 0x4 ADD PUSH2 0x901 SWAP1 PUSH2 0x4494 JUMP JUMPDEST PUSH2 0x2053 PUSH1 0x0 DUP1 MLOAD PUSH1 0x20 PUSH2 0x45A0 DUP4 CODECOPY DUP2 MLOAD SWAP2 MSTORE DUP6 PUSH2 0x1C93 JUMP JUMPDEST PUSH2 0x209F JUMPI PUSH1 0x40 MLOAD PUSH3 0x461BCD PUSH1 0xE5 SHL DUP2 MSTORE PUSH1 0x20 PUSH1 0x4 DUP3 ADD MSTORE PUSH1 0x1B PUSH1 0x24 DUP3 ADD MSTORE PUSH32 0x526563697069656E74206973206E6F7420612072657461696C65720000000000 PUSH1 0x44 DUP3 ADD MSTORE PUSH1 0x64 ADD PUSH2 0x901 JUMP JUMPDEST PUSH2 0x20AA CALLER DUP6 DUP8 PUSH2 0x315C JUMP JUMPDEST PUSH1 0x0 DUP6 DUP2 MSTORE PUSH1 0x9 PUSH1 0x20 DUP2 DUP2 MSTORE PUSH1 0x40 DUP1 DUP5 KECCAK256 PUSH1 0x4 DUP2 ADD DUP1 SLOAD PUSH1 0x1 PUSH1 0x1 PUSH1 0xA0 SHL SUB DUP12 AND PUSH2 0x100 MUL PUSH1 0x1 PUSH1 0x1 PUSH1 0xA8 SHL SUB NOT SWAP1 SWAP2 AND OR PUSH1 0x3 OR SWAP1 SSTORE PUSH1 0xA DUP4 MSTORE SWAP4 DUP2 SWAP1 KECCAK256 DUP2 MLOAD PUSH1 0xE0 DUP2 ADD SWAP1 SWAP3 MSTORE SWAP3 SWAP1 SWAP2 MSTORE DUP3 SLOAD SWAP2 SWAP3 SWAP1 SWAP2 DUP3 SWAP2 SWAP1 PUSH2 0x2108 SWAP1 PUSH2 0x4236 JUMP JUMPDEST DUP1 PUSH1 0x1F ADD PUSH1 0x20 DUP1 SWAP2 DIV MUL PUSH1 0x20 ADD PUSH1 0x40 MLOAD SWAP1 DUP2 ADD PUSH1 0x40 MSTORE DUP1 SWAP3 SWAP2 SWAP1 DUP2 DUP2 MSTORE PUSH1 0x20 ADD DUP3 DUP1 SLOAD PUSH2 0x2134 SWAP1 PUSH2 0x4236 JUMP JUMPDEST DUP1 ISZERO PUSH2 0x2181 JUMPI DUP1 PUSH1 0x1F LT PUSH2 0x2156 JUMPI PUSH2 0x100 DUP1 DUP4 SLOAD DIV MUL DUP4 MSTORE SWAP2 PUSH1 0x20 ADD SWAP2 PUSH2 0x2181 JUMP JUMPDEST DUP3 ADD SWAP2 SWAP1 PUSH1 0x0 MSTORE PUSH1 0x20 PUSH1 0x0 KECCAK256 SWAP1 JUMPDEST DUP2 SLOAD DUP2 MSTORE SWAP1 PUSH1 0x1 ADD SWAP1 PUSH1 0x20 ADD DUP1 DUP4 GT PUSH2 0x2164 JUMPI DUP3 SWAP1 SUB PUSH1 0x1F AND DUP3 ADD SWAP2 JUMPDEST POP POP POP POP POP DUP2 MSTORE PUSH1 0x20 ADD PUSH1 0x9 PUSH1 0x0 DUP10 DUP2 MSTORE PUSH1 0x20 ADD SWAP1 DUP2 MSTORE PUSH1 0x20 ADD PUSH1 0x0 KECCAK256 PUSH1 0x1 ADD DUP1 SLOAD PUSH2 0x21AC SWAP1 PUSH2 0x4236 JUMP JUMPDEST DUP1 PUSH1 0x1F ADD PUSH1 0x20 DUP1 SWAP2 DIV MUL PUSH1 0x20 ADD PUSH1 0x40 MLOAD SWAP1 DUP2 ADD PUSH1 0x40 MSTORE DUP1 SWAP3 SWAP2 SWAP1 DUP2 DUP2 MSTORE PUSH1 0x20 ADD DUP3 DUP1 SLOAD PUSH2 0x21D8 SWAP1 PUSH2 0x4236 JUMP JUMPDEST DUP1 ISZERO PUSH2 0x2225 JUMPI DUP1 PUSH1 0x1F LT PUSH2 0x21FA JUMPI PUSH2 0x100 DUP1 DUP4 SLOAD DIV MUL DUP4 MSTORE SWAP2 PUSH1 0x20 ADD SWAP2 PUSH2 0x2225 JUMP JUMPDEST DUP3 ADD SWAP2 SWAP1 PUSH1 0x0 MSTORE PUSH1 0x20 PUSH1 0x0 KECCAK256 SWAP1 JUMPDEST DUP2 SLOAD DUP2 MSTORE SWAP1 PUSH1 0x1 ADD SWAP1 PUSH1 0x20 ADD DUP1 DUP4 GT PUSH2 0x2208 JUMPI DUP3 SWAP1 SUB PUSH1 0x1F AND DUP3 ADD SWAP2 JUMPDEST POP POP POP SWAP2 DUP4 MSTORE POP POP TIMESTAMP PUSH1 0x20 DUP3 ADD MSTORE PUSH1 0x40 DUP2 ADD DUP7 SWAP1 MSTORE PUSH1 0x60 ADD PUSH1 0x3 DUP2 MSTORE PUSH1 0x1 PUSH1 0x1 PUSH1 0xA0 SHL SUB DUP8 AND PUSH1 0x20 DUP1 DUP4 ADD SWAP2 SWAP1 SWAP2 MSTORE PUSH1 0x40 SWAP1 SWAP2 ADD DUP6 SWAP1 MSTORE DUP3 SLOAD PUSH1 0x1 DUP2 ADD DUP5 SSTORE PUSH1 0x0 SWAP4 DUP5 MSTORE SWAP3 KECCAK256 DUP2 MLOAD SWAP2 SWAP3 PUSH1 0x6 MUL ADD SWAP1 DUP2 SWAP1 PUSH2 0x2280 SWAP1 DUP3 PUSH2 0x4301 JUMP JUMPDEST POP PUSH1 0x20 DUP3 ADD MLOAD PUSH1 0x1 DUP3 ADD SWAP1 PUSH2 0x2295 SWAP1 DUP3 PUSH2 0x4301 JUMP JUMPDEST POP PUSH1 0x40 DUP3 ADD MLOAD PUSH1 0x2 DUP3 ADD SSTORE PUSH1 0x60 DUP3 ADD MLOAD PUSH1 0x3 DUP3 ADD SWAP1 PUSH2 0x22B4 SWAP1 DUP3 PUSH2 0x4301 JUMP JUMPDEST POP PUSH1 0x80 DUP3 ADD MLOAD DUP2 PUSH1 0x4 ADD PUSH1 0x0 PUSH2 0x100 EXP DUP2 SLOAD DUP2 PUSH1 0xFF MUL NOT AND SWAP1 DUP4 PUSH1 0x4 DUP2 GT ISZERO PUSH2 0x22DF JUMPI PUSH2 0x22DF PUSH2 0x3D7A JUMP JUMPDEST MUL OR SWAP1 SSTORE POP PUSH1 0xA0 DUP3 ADD MLOAD PUSH1 0x4 DUP3 ADD DUP1 SLOAD PUSH1 0x1 PUSH1 0x1 PUSH1 0xA0 SHL SUB SWAP1 SWAP3 AND PUSH2 0x100 MUL PUSH2 0x100 PUSH1 0x1 PUSH1 0xA8 SHL SUB NOT SWAP1 SWAP3 AND SWAP2 SWAP1 SWAP2 OR SWAP1 SSTORE PUSH1 0xC0 DUP3 ADD MLOAD PUSH1 0x5 DUP3 ADD SWAP1 PUSH2 0x2325 SWAP1 DUP3 PUSH2 0x4301 JUMP JUMPDEST POP POP POP DUP4 PUSH1 0x1 PUSH1 0x1 PUSH1 0xA0 SHL SUB AND CALLER PUSH1 0x1 PUSH1 0x1 PUSH1 0xA0 SHL SUB AND DUP7 PUSH32 0x9FA92E8B138A6A0678480E61B6E7A0EE30AF964EA75BC7B4A7006435E0F9B537 PUSH1 0x3 TIMESTAMP PUSH1 0x40 MLOAD PUSH2 0x236F SWAP3 SWAP2 SWAP1 PUSH2 0x44BB JUMP JUMPDEST PUSH1 0x40 MLOAD DUP1 SWAP2 SUB SWAP1 LOG4 DUP4 PUSH1 0x1 PUSH1 0x1 PUSH1 0xA0 SHL SUB AND DUP6 PUSH1 0x0 DUP1 MLOAD PUSH1 0x20 PUSH2 0x45E0 DUP4 CODECOPY DUP2 MLOAD SWAP2 MSTORE PUSH1 0x3 DUP7 TIMESTAMP PUSH1 0x40 MLOAD PUSH2 0x1C84 SWAP4 SWAP3 SWAP2 SWAP1 PUSH2 0x43F7 JUMP JUMPDEST PUSH1 0x0 DUP2 DUP2 MSTORE PUSH1 0x9 PUSH1 0x20 MSTORE PUSH1 0x40 SWAP1 KECCAK256 PUSH1 0x4 ADD SLOAD PUSH1 0x60 SWAP1 PUSH1 0x1 PUSH1 0xA8 SHL SWAP1 DIV PUSH1 0xFF AND PUSH2 0x23DF JUMPI PUSH1 0x40 MLOAD PUSH3 0x461BCD PUSH1 0xE5 SHL DUP2 MSTORE PUSH1 0x4 ADD PUSH2 0x901 SWAP1 PUSH2 0x4427 JUMP JUMPDEST CALLER PUSH2 0x23E9 DUP4 PUSH2 0x1638 JUMP JUMPDEST PUSH1 0x1 PUSH1 0x1 PUSH1 0xA0 SHL SUB AND EQ DUP1 PUSH2 0x2411 JUMPI POP PUSH2 0x2411 PUSH1 0x0 DUP1 MLOAD PUSH1 0x20 PUSH2 0x45C0 DUP4 CODECOPY DUP2 MLOAD SWAP2 MSTORE CALLER PUSH2 0x1C93 JUMP JUMPDEST PUSH2 0x2469 JUMPI PUSH1 0x40 MLOAD PUSH3 0x461BCD PUSH1 0xE5 SHL DUP2 MSTORE PUSH1 0x20 PUSH1 0x4 DUP3 ADD MSTORE PUSH1 0x23 PUSH1 0x24 DUP3 ADD MSTORE PUSH32 0x4E6F7420617574686F72697A656420746F20766965772066756C6C2068697374 PUSH1 0x44 DUP3 ADD MSTORE PUSH3 0x6F7279 PUSH1 0xE8 SHL PUSH1 0x64 DUP3 ADD MSTORE PUSH1 0x84 ADD PUSH2 0x901 JUMP JUMPDEST PUSH1 0x0 DUP3 DUP2 MSTORE PUSH1 0xA PUSH1 0x20 SWAP1 DUP2 MSTORE PUSH1 0x40 DUP1 DUP4 KECCAK256 DUP1 SLOAD DUP3 MLOAD DUP2 DUP6 MUL DUP2 ADD DUP6 ADD SWAP1 SWAP4 MSTORE DUP1 DUP4 MSTORE SWAP2 SWAP4 SWAP1 SWAP3 DUP5 ADD JUMPDEST DUP3 DUP3 LT ISZERO PUSH2 0x2764 JUMPI DUP4 DUP3 SWAP1 PUSH1 0x0 MSTORE PUSH1 0x20 PUSH1 0x0 KECCAK256 SWAP1 PUSH1 0x6 MUL ADD PUSH1 0x40 MLOAD DUP1 PUSH1 0xE0 ADD PUSH1 0x40 MSTORE SWAP1 DUP2 PUSH1 0x0 DUP3 ADD DUP1 SLOAD PUSH2 0x24C5 SWAP1 PUSH2 0x4236 JUMP JUMPDEST DUP1 PUSH1 0x1F ADD PUSH1 0x20 DUP1 SWAP2 DIV MUL PUSH1 0x20 ADD PUSH1 0x40 MLOAD SWAP1 DUP2 ADD PUSH1 0x40 MSTORE DUP1 SWAP3 SWAP2 SWAP1 DUP2 DUP2 MSTORE PUSH1 0x20 ADD DUP3 DUP1 SLOAD PUSH2 0x24F1 SWAP1 PUSH2 0x4236 JUMP JUMPDEST DUP1 ISZERO PUSH2 0x253E JUMPI DUP1 PUSH1 0x1F LT PUSH2 0x2513 JUMPI PUSH2 0x100 DUP1 DUP4 SLOAD DIV MUL DUP4 MSTORE SWAP2 PUSH1 0x20 ADD SWAP2 PUSH2 0x253E JUMP JUMPDEST DUP3 ADD SWAP2 SWAP1 PUSH1 0x0 MSTORE PUSH1 0x20 PUSH1 0x0 KECCAK256 SWAP1 JUMPDEST DUP2 SLOAD DUP2 MSTORE SWAP1 PUSH1 0x1 ADD SWAP1 PUSH1 0x20 ADD DUP1 DUP4 GT PUSH2 0x2521 JUMPI DUP3 SWAP1 SUB PUSH1 0x1F AND DUP3 ADD SWAP2 JUMPDEST POP POP POP POP POP DUP2 MSTORE PUSH1 0x20 ADD PUSH1 0x1 DUP3 ADD DUP1 SLOAD PUSH2 0x2557 SWAP1 PUSH2 0x4236 JUMP JUMPDEST DUP1 PUSH1 0x1F ADD PUSH1 0x20 DUP1 SWAP2 DIV MUL PUSH1 0x20 ADD PUSH1 0x40 MLOAD SWAP1 DUP2 ADD PUSH1 0x40 MSTORE DUP1 SWAP3 SWAP2 SWAP1 DUP2 DUP2 MSTORE PUSH1 0x20 ADD DUP3 DUP1 SLOAD PUSH2 0x2583 SWAP1 PUSH2 0x4236 JUMP JUMPDEST DUP1 ISZERO PUSH2 0x25D0 JUMPI DUP1 PUSH1 0x1F LT PUSH2 0x25A5 JUMPI PUSH2 0x100 DUP1 DUP4 SLOAD DIV MUL DUP4 MSTORE SWAP2 PUSH1 0x20 ADD SWAP2 PUSH2 0x25D0 JUMP JUMPDEST DUP3 ADD SWAP2 SWAP1 PUSH1 0x0 MSTORE PUSH1 0x20 PUSH1 0x0 KECCAK256 SWAP1 JUMPDEST DUP2 SLOAD DUP2 MSTORE SWAP1 PUSH1 0x1 ADD SWAP1 PUSH1 0x20 ADD DUP1 DUP4 GT PUSH2 0x25B3 JUMPI DUP3 SWAP1 SUB PUSH1 0x1F AND DUP3 ADD SWAP2 JUMPDEST POP POP POP POP POP DUP2 MSTORE PUSH1 0x20 ADD PUSH1 0x2 DUP3 ADD SLOAD DUP2 MSTORE PUSH1 0x20 ADD PUSH1 0x3 DUP3 ADD DUP1 SLOAD PUSH2 0x25F3 SWAP1 PUSH2 0x4236 JUMP JUMPDEST DUP1 PUSH1 0x1F ADD PUSH1 0x20 DUP1 SWAP2 DIV MUL PUSH1 0x20 ADD PUSH1 0x40 MLOAD SWAP1 DUP2 ADD PUSH1 0x40 MSTORE DUP1 SWAP3 SWAP2 SWAP1 DUP2 DUP2 MSTORE PUSH1 0x20 ADD DUP3 DUP1 SLOAD PUSH2 0x261F SWAP1 PUSH2 0x4236 JUMP JUMPDEST DUP1 ISZERO PUSH2 0x266C JUMPI DUP1 PUSH1 0x1F LT PUSH2 0x2641 JUMPI PUSH2 0x100 DUP1 DUP4 SLOAD DIV MUL DUP4 MSTORE SWAP2 PUSH1 0x20 ADD SWAP2 PUSH2 0x266C JUMP JUMPDEST DUP3 ADD SWAP2 SWAP1 PUSH1 0x0 MSTORE PUSH1 0x20 PUSH1 0x0 KECCAK256 SWAP1 JUMPDEST DUP2 SLOAD DUP2 MSTORE SWAP1 PUSH1 0x1 ADD SWAP1 PUSH1 0x20 ADD DUP1 DUP4 GT PUSH2 0x264F JUMPI DUP3 SWAP1 SUB PUSH1 0x1F AND DUP3 ADD SWAP2 JUMPDEST POP POP POP SWAP2 DUP4 MSTORE POP POP PUSH1 0x4 DUP3 DUP2 ADD SLOAD PUSH1 0x20 SWAP1 SWAP3 ADD SWAP2 PUSH1 0xFF AND SWAP1 DUP2 GT ISZERO PUSH2 0x2693 JUMPI PUSH2 0x2693 PUSH2 0x3D7A JUMP JUMPDEST PUSH1 0x4 DUP2 GT ISZERO PUSH2 0x26A4 JUMPI PUSH2 0x26A4 PUSH2 0x3D7A JUMP JUMPDEST DUP2 MSTORE PUSH1 0x4 DUP3 ADD SLOAD PUSH2 0x100 SWAP1 DIV PUSH1 0x1 PUSH1 0x1 PUSH1 0xA0 SHL SUB AND PUSH1 0x20 DUP3 ADD MSTORE PUSH1 0x5 DUP3 ADD DUP1 SLOAD PUSH1 0x40 SWAP1 SWAP3 ADD SWAP2 PUSH2 0x26D3 SWAP1 PUSH2 0x4236 JUMP JUMPDEST DUP1 PUSH1 0x1F ADD PUSH1 0x20 DUP1 SWAP2 DIV MUL PUSH1 0x20 ADD PUSH1 0x40 MLOAD SWAP1 DUP2 ADD PUSH1 0x40 MSTORE DUP1 SWAP3 SWAP2 SWAP1 DUP2 DUP2 MSTORE PUSH1 0x20 ADD DUP3 DUP1 SLOAD PUSH2 0x26FF SWAP1 PUSH2 0x4236 JUMP JUMPDEST DUP1 ISZERO PUSH2 0x274C JUMPI DUP1 PUSH1 0x1F LT PUSH2 0x2721 JUMPI PUSH2 0x100 DUP1 DUP4 SLOAD DIV MUL DUP4 MSTORE SWAP2 PUSH1 0x20 ADD SWAP2 PUSH2 0x274C JUMP JUMPDEST DUP3 ADD SWAP2 SWAP1 PUSH1 0x0 MSTORE PUSH1 0x20 PUSH1 0x0 KECCAK256 SWAP1 JUMPDEST DUP2 SLOAD DUP2 MSTORE SWAP1 PUSH1 0x1 ADD SWAP1 PUSH1 0x20 ADD DUP1 DUP4 GT PUSH2 0x272F JUMPI DUP3 SWAP1 SUB PUSH1 0x1F AND DUP3 ADD SWAP2 JUMPDEST POP POP POP POP POP DUP2 MSTORE POP POP DUP2 MSTORE PUSH1 0x20 ADD SWAP1 PUSH1 0x1 ADD SWAP1 PUSH2 0x2492 JUMP JUMPDEST POP POP POP POP SWAP1 POP SWAP2 SWAP1 POP JUMP JUMPDEST PUSH1 0x0 DUP3 DUP2 MSTORE PUSH1 0x7 PUSH1 0x20 MSTORE PUSH1 0x40 SWAP1 KECCAK256 PUSH1 0x1 ADD SLOAD PUSH2 0x278A DUP2 PUSH2 0x2EEB JUMP JUMPDEST PUSH2 0xCFD DUP4 DUP4 PUSH2 0x30EF JUMP JUMPDEST PUSH1 0xA PUSH1 0x20 MSTORE DUP2 PUSH1 0x0 MSTORE PUSH1 0x40 PUSH1 0x0 KECCAK256 DUP2 DUP2 SLOAD DUP2 LT PUSH2 0x27B0 JUMPI PUSH1 0x0 DUP1 REVERT JUMPDEST SWAP1 PUSH1 0x0 MSTORE PUSH1 0x20 PUSH1 0x0 KECCAK256 SWAP1 PUSH1 0x6 MUL ADD PUSH1 0x0 SWAP2 POP SWAP2 POP POP DUP1 PUSH1 0x0 ADD DUP1 SLOAD PUSH2 0x27D4 SWAP1 PUSH2 0x4236 JUMP JUMPDEST DUP1 PUSH1 0x1F ADD PUSH1 0x20 DUP1 SWAP2 DIV MUL PUSH1 0x20 ADD PUSH1 0x40 MLOAD SWAP1 DUP2 ADD PUSH1 0x40 MSTORE DUP1 SWAP3 SWAP2 SWAP1 DUP2 DUP2 MSTORE PUSH1 0x20 ADD DUP3 DUP1 SLOAD PUSH2 0x2800 SWAP1 PUSH2 0x4236 JUMP JUMPDEST DUP1 ISZERO PUSH2 0x284D JUMPI DUP1 PUSH1 0x1F LT PUSH2 0x2822 JUMPI PUSH2 0x100 DUP1 DUP4 SLOAD DIV MUL DUP4 MSTORE SWAP2 PUSH1 0x20 ADD SWAP2 PUSH2 0x284D JUMP JUMPDEST DUP3 ADD SWAP2 SWAP1 PUSH1 0x0 MSTORE PUSH1 0x20 PUSH1 0x0 KECCAK256 SWAP1 JUMPDEST DUP2 SLOAD DUP2 MSTORE SWAP1 PUSH1 0x1 ADD SWAP1 PUSH1 0x20 ADD DUP1 DUP4 GT PUSH2 0x2830 JUMPI DUP3 SWAP1 SUB PUSH1 0x1F AND DUP3 ADD SWAP2 JUMPDEST POP POP POP POP POP SWAP1 DUP1 PUSH1 0x1 ADD DUP1 SLOAD PUSH2 0x2862 SWAP1 PUSH2 0x4236 JUMP JUMPDEST DUP1 PUSH1 0x1F ADD PUSH1 0x20 DUP1 SWAP2 DIV MUL PUSH1 0x20 ADD PUSH1 0x40 MLOAD SWAP1 DUP2 ADD PUSH1 0x40 MSTORE DUP1 SWAP3 SWAP2 SWAP1 DUP2 DUP2 MSTORE PUSH1 0x20 ADD DUP3 DUP1 SLOAD PUSH2 0x288E SWAP1 PUSH2 0x4236 JUMP JUMPDEST DUP1 ISZERO PUSH2 0x28DB JUMPI DUP1 PUSH1 0x1F LT PUSH2 0x28B0 JUMPI PUSH2 0x100 DUP1 DUP4 SLOAD DIV MUL DUP4 MSTORE SWAP2 PUSH1 0x20 ADD SWAP2 PUSH2 0x28DB JUMP JUMPDEST DUP3 ADD SWAP2 SWAP1 PUSH1 0x0 MSTORE PUSH1 0x20 PUSH1 0x0 KECCAK256 SWAP1 JUMPDEST DUP2 SLOAD DUP2 MSTORE SWAP1 PUSH1 0x1 ADD SWAP1 PUSH1 0x20 ADD DUP1 DUP4 GT PUSH2 0x28BE JUMPI DUP3 SWAP1 SUB PUSH1 0x1F AND DUP3 ADD SWAP2 JUMPDEST POP POP POP POP POP SWAP1 DUP1 PUSH1 0x2 ADD SLOAD SWAP1 DUP1 PUSH1 0x3 ADD DUP1 SLOAD PUSH2 0x28F6 SWAP1 PUSH2 0x4236 JUMP JUMPDEST DUP1 PUSH1 0x1F ADD PUSH1 0x20 DUP1 SWAP2 DIV MUL PUSH1 0x20 ADD PUSH1 0x40 MLOAD SWAP1 DUP2 ADD PUSH1 0x40 MSTORE DUP1 SWAP3 SWAP2 SWAP1 DUP2 DUP2 MSTORE PUSH1 0x20 ADD DUP3 DUP1 SLOAD PUSH2 0x2922 SWAP1 PUSH2 0x4236 JUMP JUMPDEST DUP1 ISZERO PUSH2 0x296F JUMPI DUP1 PUSH1 0x1F LT PUSH2 0x2944 JUMPI PUSH2 0x100 DUP1 DUP4 SLOAD DIV MUL DUP4 MSTORE SWAP2 PUSH1 0x20 ADD SWAP2 PUSH2 0x296F JUMP JUMPDEST DUP3 ADD SWAP2 SWAP1 PUSH1 0x0 MSTORE PUSH1 0x20 PUSH1 0x0 KECCAK256 SWAP1 JUMPDEST DUP2 SLOAD DUP2 MSTORE SWAP1 PUSH1 0x1 ADD SWAP1 PUSH1 0x20 ADD DUP1 DUP4 GT PUSH2 0x2952 JUMPI DUP3 SWAP1 SUB PUSH1 0x1F AND DUP3 ADD SWAP2 JUMPDEST POP POP POP POP PUSH1 0x4 DUP4 ADD SLOAD PUSH1 0x5 DUP5 ADD DUP1 SLOAD SWAP4 SWAP5 PUSH1 0xFF DUP4 AND SWAP5 PUSH2 0x100 SWAP1 SWAP4 DIV PUSH1 0x1 PUSH1 0x1 PUSH1 0xA0 SHL SUB AND SWAP4 POP SWAP2 PUSH2 0x29A0 SWAP1 PUSH2 0x4236 JUMP JUMPDEST DUP1 PUSH1 0x1F ADD PUSH1 0x20 DUP1 SWAP2 DIV MUL PUSH1 0x20 ADD PUSH1 0x40 MLOAD SWAP1 DUP2 ADD PUSH1 0x40 MSTORE DUP1 SWAP3 SWAP2 SWAP1 DUP2 DUP2 MSTORE PUSH1 0x20 ADD DUP3 DUP1 SLOAD PUSH2 0x29CC SWAP1 PUSH2 0x4236 JUMP JUMPDEST DUP1 ISZERO PUSH2 0x2A19 JUMPI DUP1 PUSH1 0x1F LT PUSH2 0x29EE JUMPI PUSH2 0x100 DUP1 DUP4 SLOAD DIV MUL DUP4 MSTORE SWAP2 PUSH1 0x20 ADD SWAP2 PUSH2 0x2A19 JUMP JUMPDEST DUP3 ADD SWAP2 SWAP1 PUSH1 0x0 MSTORE PUSH1 0x20 PUSH1 0x0 KECCAK256 SWAP1 JUMPDEST DUP2 SLOAD DUP2 MSTORE SWAP1 PUSH1 0x1 ADD SWAP1 PUSH1 0x20 ADD DUP1 DUP4 GT PUSH2 0x29FC JUMPI DUP3 SWAP1 SUB PUSH1 0x1F AND DUP3 ADD SWAP2 JUMPDEST POP POP POP POP POP SWAP1 POP DUP8 JUMP JUMPDEST PUSH1 0x0 DUP1 MLOAD PUSH1 0x20 PUSH2 0x4560 DUP4 CODECOPY DUP2 MLOAD SWAP2 MSTORE PUSH2 0x2A3B DUP2 PUSH2 0x2EEB JUMP JUMPDEST PUSH1 0x0 DUP6 DUP2 MSTORE PUSH1 0x9 PUSH1 0x20 MSTORE PUSH1 0x40 SWAP1 KECCAK256 PUSH1 0x4 ADD SLOAD PUSH1 0x1 PUSH1 0xA8 SHL SWAP1 DIV PUSH1 0xFF AND PUSH2 0x2A73 JUMPI PUSH1 0x40 MLOAD PUSH3 0x461BCD PUSH1 0xE5 SHL DUP2 MSTORE PUSH1 0x4 ADD PUSH2 0x901 SWAP1 PUSH2 0x4427 JUMP JUMPDEST CALLER PUSH2 0x2A7D DUP7 PUSH2 0x1638 JUMP JUMPDEST PUSH1 0x1 PUSH1 0x1 PUSH1 0xA0 SHL SUB AND EQ PUSH2 0x2AA3 JUMPI PUSH1 0x40 MLOAD PUSH3 0x461BCD PUSH1 0xE5 SHL DUP2 MSTORE PUSH1 0x4 ADD PUSH2 0x901 SWAP1 PUSH2 0x446D JUMP JUMPDEST PUSH1 0x1 PUSH1 0x0 DUP7 DUP2 MSTORE PUSH1 0x9 PUSH1 0x20 MSTORE PUSH1 0x40 SWAP1 KECCAK256 PUSH1 0x4 SWAP1 DUP2 ADD SLOAD PUSH1 0xFF AND SWAP1 DUP2 GT ISZERO PUSH2 0x2ACC JUMPI PUSH2 0x2ACC PUSH2 0x3D7A JUMP JUMPDEST EQ PUSH2 0x2AE9 JUMPI PUSH1 0x40 MLOAD PUSH3 0x461BCD PUSH1 0xE5 SHL DUP2 MSTORE PUSH1 0x4 ADD PUSH2 0x901 SWAP1 PUSH2 0x4494 JUMP JUMPDEST PUSH2 0x2B01 PUSH1 0x0 DUP1 MLOAD PUSH1 0x20 PUSH2 0x4580 DUP4 CODECOPY DUP2 MLOAD SWAP2 MSTORE DUP6 PUSH2 0x1C93 JUMP JUMPDEST PUSH2 0x2B4D JUMPI PUSH1 0x40 MLOAD PUSH3 0x461BCD PUSH1 0xE5 SHL DUP2 MSTORE PUSH1 0x20 PUSH1 0x4 DUP3 ADD MSTORE PUSH1 0x1E PUSH1 0x24 DUP3 ADD MSTORE PUSH32 0x526563697069656E74206973206E6F742061206469737472696275746F720000 PUSH1 0x44 DUP3 ADD MSTORE PUSH1 0x64 ADD PUSH2 0x901 JUMP JUMPDEST PUSH2 0x2B58 CALLER DUP6 DUP8 PUSH2 0x315C JUMP JUMPDEST PUSH1 0x0 DUP6 DUP2 MSTORE PUSH1 0x9 PUSH1 0x20 DUP2 DUP2 MSTORE PUSH1 0x40 DUP1 DUP5 KECCAK256 PUSH1 0x4 DUP2 ADD DUP1 SLOAD PUSH1 0x1 PUSH1 0x1 PUSH1 0xA0 SHL SUB DUP12 AND PUSH2 0x100 MUL PUSH1 0x1 PUSH1 0x1 PUSH1 0xA8 SHL SUB NOT SWAP1 SWAP2 AND OR PUSH1 0x2 OR SWAP1 SSTORE PUSH1 0xA DUP4 MSTORE SWAP4 DUP2 SWAP1 KECCAK256 DUP2 MLOAD PUSH1 0xE0 DUP2 ADD SWAP1 SWAP3 MSTORE SWAP3 SWAP1 SWAP2 MSTORE DUP3 SLOAD SWAP2 SWAP3 SWAP1 SWAP2 DUP3 SWAP2 SWAP1 PUSH2 0x2BB6 SWAP1 PUSH2 0x4236 JUMP JUMPDEST DUP1 PUSH1 0x1F ADD PUSH1 0x20 DUP1 SWAP2 DIV MUL PUSH1 0x20 ADD PUSH1 0x40 MLOAD SWAP1 DUP2 ADD PUSH1 0x40 MSTORE DUP1 SWAP3 SWAP2 SWAP1 DUP2 DUP2 MSTORE PUSH1 0x20 ADD DUP3 DUP1 SLOAD PUSH2 0x2BE2 SWAP1 PUSH2 0x4236 JUMP JUMPDEST DUP1 ISZERO PUSH2 0x2C2F JUMPI DUP1 PUSH1 0x1F LT PUSH2 0x2C04 JUMPI PUSH2 0x100 DUP1 DUP4 SLOAD DIV MUL DUP4 MSTORE SWAP2 PUSH1 0x20 ADD SWAP2 PUSH2 0x2C2F JUMP JUMPDEST DUP3 ADD SWAP2 SWAP1 PUSH1 0x0 MSTORE PUSH1 0x20 PUSH1 0x0 KECCAK256 SWAP1 JUMPDEST DUP2 SLOAD DUP2 MSTORE SWAP1 PUSH1 0x1 ADD SWAP1 PUSH1 0x20 ADD DUP1 DUP4 GT PUSH2 0x2C12 JUMPI DUP3 SWAP1 SUB PUSH1 0x1F AND DUP3 ADD SWAP2 JUMPDEST POP POP POP POP POP DUP2 MSTORE PUSH1 0x20 ADD PUSH1 0x9 PUSH1 0x0 DUP10 DUP2 MSTORE PUSH1 0x20 ADD SWAP1 DUP2 MSTORE PUSH1 0x20 ADD PUSH1 0x0 KECCAK256 PUSH1 0x1 ADD DUP1 SLOAD PUSH2 0x2C5A SWAP1 PUSH2 0x4236 JUMP JUMPDEST DUP1 PUSH1 0x1F ADD PUSH1 0x20 DUP1 SWAP2 DIV MUL PUSH1 0x20 ADD PUSH1 0x40 MLOAD SWAP1 DUP2 ADD PUSH1 0x40 MSTORE DUP1 SWAP3 SWAP2 SWAP1 DUP2 DUP2 MSTORE PUSH1 0x20 ADD DUP3 DUP1 SLOAD PUSH2 0x2C86 SWAP1 PUSH2 0x4236 JUMP JUMPDEST DUP1 ISZERO PUSH2 0x2CD3 JUMPI DUP1 PUSH1 0x1F LT PUSH2 0x2CA8 JUMPI PUSH2 0x100 DUP1 DUP4 SLOAD DIV MUL DUP4 MSTORE SWAP2 PUSH1 0x20 ADD SWAP2 PUSH2 0x2CD3 JUMP JUMPDEST DUP3 ADD SWAP2 SWAP1 PUSH1 0x0 MSTORE PUSH1 0x20 PUSH1 0x0 KECCAK256 SWAP1 JUMPDEST DUP2 SLOAD DUP2 MSTORE SWAP1 PUSH1 0x1 ADD SWAP1 PUSH1 0x20 ADD DUP1 DUP4 GT PUSH2 0x2CB6 JUMPI DUP3 SWAP1 SUB PUSH1 0x1F AND DUP3 ADD SWAP2 JUMPDEST POP POP POP SWAP2 DUP4 MSTORE POP POP TIMESTAMP PUSH1 0x20 DUP3 ADD MSTORE PUSH1 0x40 DUP2 ADD DUP7 SWAP1 MSTORE PUSH1 0x60 ADD PUSH1 0x2 DUP2 MSTORE PUSH1 0x1 PUSH1 0x1 PUSH1 0xA0 SHL SUB DUP8 AND PUSH1 0x20 DUP1 DUP4 ADD SWAP2 SWAP1 SWAP2 MSTORE PUSH1 0x40 SWAP1 SWAP2 ADD DUP6 SWAP1 MSTORE DUP3 SLOAD PUSH1 0x1 DUP2 ADD DUP5 SSTORE PUSH1 0x0 SWAP4 DUP5 MSTORE SWAP3 KECCAK256 DUP2 MLOAD SWAP2 SWAP3 PUSH1 0x6 MUL ADD SWAP1 DUP2 SWAP1 PUSH2 0x2D2E SWAP1 DUP3 PUSH2 0x4301 JUMP JUMPDEST POP PUSH1 0x20 DUP3 ADD MLOAD PUSH1 0x1 DUP3 ADD SWAP1 PUSH2 0x2D43 SWAP1 DUP3 PUSH2 0x4301 JUMP JUMPDEST POP PUSH1 0x40 DUP3 ADD MLOAD PUSH1 0x2 DUP3 ADD SSTORE PUSH1 0x60 DUP3 ADD MLOAD PUSH1 0x3 DUP3 ADD SWAP1 PUSH2 0x2D62 SWAP1 DUP3 PUSH2 0x4301 JUMP JUMPDEST POP PUSH1 0x80 DUP3 ADD MLOAD DUP2 PUSH1 0x4 ADD PUSH1 0x0 PUSH2 0x100 EXP DUP2 SLOAD DUP2 PUSH1 0xFF MUL NOT AND SWAP1 DUP4 PUSH1 0x4 DUP2 GT ISZERO PUSH2 0x2D8D JUMPI PUSH2 0x2D8D PUSH2 0x3D7A JUMP JUMPDEST MUL OR SWAP1 SSTORE POP PUSH1 0xA0 DUP3 ADD MLOAD PUSH1 0x4 DUP3 ADD DUP1 SLOAD PUSH1 0x1 PUSH1 0x1 PUSH1 0xA0 SHL SUB SWAP1 SWAP3 AND PUSH2 0x100 MUL PUSH2 0x100 PUSH1 0x1 PUSH1 0xA8 SHL SUB NOT SWAP1 SWAP3 AND SWAP2 SWAP1 SWAP2 OR SWAP1 SSTORE PUSH1 0xC0 DUP3 ADD MLOAD PUSH1 0x5 DUP3 ADD SWAP1 PUSH2 0x2DD3 SWAP1 DUP3 PUSH2 0x4301 JUMP JUMPDEST POP POP POP DUP4 PUSH1 0x1 PUSH1 0x1 PUSH1 0xA0 SHL SUB AND CALLER PUSH1 0x1 PUSH1 0x1 PUSH1 0xA0 SHL SUB AND DUP7 PUSH32 0x9FA92E8B138A6A0678480E61B6E7A0EE30AF964EA75BC7B4A7006435E0F9B537 PUSH1 0x2 TIMESTAMP PUSH1 0x40 MLOAD PUSH2 0x2E1D SWAP3 SWAP2 SWAP1 PUSH2 0x44BB JUMP JUMPDEST PUSH1 0x40 MLOAD DUP1 SWAP2 SUB SWAP1 LOG4 DUP4 PUSH1 0x1 PUSH1 0x1 PUSH1 0xA0 SHL SUB AND DUP6 PUSH1 0x0 DUP1 MLOAD PUSH1 0x20 PUSH2 0x45E0 DUP4 CODECOPY DUP2 MLOAD SWAP2 MSTORE PUSH1 0x2 DUP7 TIMESTAMP PUSH1 0x40 MLOAD PUSH2 0x1C84 SWAP4 SWAP3 SWAP2 SWAP1 PUSH2 0x43F7 JUMP JUMPDEST PUSH1 0x1 PUSH1 0x1 PUSH1 0xA0 SHL SUB SWAP2 DUP3 AND PUSH1 0x0 SWAP1 DUP2 MSTORE PUSH1 0x5 PUSH1 0x20 SWAP1 DUP2 MSTORE PUSH1 0x40 DUP1 DUP4 KECCAK256 SWAP4 SWAP1 SWAP5 AND DUP3 MSTORE SWAP2 SWAP1 SWAP2 MSTORE KECCAK256 SLOAD PUSH1 0xFF AND SWAP1 JUMP JUMPDEST PUSH1 0x0 PUSH1 0x1 PUSH1 0x1 PUSH1 0xE0 SHL SUB NOT DUP3 AND PUSH4 0x7965DB0B PUSH1 0xE0 SHL EQ DUP1 PUSH2 0x5CB JUMPI POP PUSH2 0x5CB DUP3 PUSH2 0x34DD JUMP JUMPDEST PUSH1 0x0 DUP2 DUP2 MSTORE PUSH1 0x2 PUSH1 0x20 MSTORE PUSH1 0x40 DUP2 KECCAK256 SLOAD PUSH1 0x1 PUSH1 0x1 PUSH1 0xA0 SHL SUB AND DUP1 PUSH2 0x5CB JUMPI PUSH1 0x40 MLOAD PUSH4 0x7E273289 PUSH1 0xE0 SHL DUP2 MSTORE PUSH1 0x4 DUP2 ADD DUP5 SWAP1 MSTORE PUSH1 0x24 ADD PUSH2 0x901 JUMP JUMPDEST PUSH2 0xEE8 DUP4 DUP4 DUP4 PUSH1 0x1 PUSH2 0x3502 JUMP JUMPDEST PUSH2 0x2EF5 DUP2 CALLER PUSH2 0x3608 JUMP JUMPDEST POP JUMP JUMPDEST PUSH2 0x879 DUP3 DUP3 PUSH1 0x40 MLOAD DUP1 PUSH1 0x20 ADD PUSH1 0x40 MSTORE DUP1 PUSH1 0x0 DUP2 MSTORE POP PUSH2 0x3641 JUMP JUMPDEST PUSH1 0x0 DUP3 DUP2 MSTORE PUSH1 0x6 PUSH1 0x20 MSTORE PUSH1 0x40 SWAP1 KECCAK256 PUSH2 0x2F2A DUP3 DUP3 PUSH2 0x4301 JUMP JUMPDEST POP PUSH1 0x40 MLOAD DUP3 DUP2 MSTORE PUSH32 0xF8E1A15ABA9398E019F0B49DF1A4FDE98EE17AE345CB5F6B5E2C27F5033E8CE7 SWAP1 PUSH1 0x20 ADD PUSH1 0x40 MLOAD DUP1 SWAP2 SUB SWAP1 LOG1 POP POP JUMP JUMPDEST PUSH1 0x0 DUP3 DUP2 MSTORE PUSH1 0x2 PUSH1 0x20 MSTORE PUSH1 0x40 DUP2 KECCAK256 SLOAD PUSH1 0x1 PUSH1 0x1 PUSH1 0xA0 SHL SUB SWAP1 DUP2 AND SWAP1 DUP4 AND ISZERO PUSH2 0x2F8F JUMPI PUSH2 0x2F8F DUP2 DUP5 DUP7 PUSH2 0x3658 JUMP JUMPDEST PUSH1 0x1 PUSH1 0x1 PUSH1 0xA0 SHL SUB DUP2 AND ISZERO PUSH2 0x2FCD JUMPI PUSH2 0x2FAC PUSH1 0x0 DUP6 PUSH1 0x0 DUP1 PUSH2 0x3502 JUMP JUMPDEST PUSH1 0x1 PUSH1 0x1 PUSH1 0xA0 SHL SUB DUP2 AND PUSH1 0x0 SWAP1 DUP2 MSTORE PUSH1 0x3 PUSH1 0x20 MSTORE PUSH1 0x40 SWAP1 KECCAK256 DUP1 SLOAD PUSH1 0x0 NOT ADD SWAP1 SSTORE JUMPDEST PUSH1 0x1 PUSH1 0x1 PUSH1 0xA0 SHL SUB DUP6 AND ISZERO PUSH2 0x2FFC JUMPI PUSH1 0x1 PUSH1 0x1 PUSH1 0xA0 SHL SUB DUP6 AND PUSH1 0x0 SWAP1 DUP2 MSTORE PUSH1 0x3 PUSH1 0x20 MSTORE PUSH1 0x40 SWAP1 KECCAK256 DUP1 SLOAD PUSH1 0x1 ADD SWAP1 SSTORE JUMPDEST PUSH1 0x0 DUP5 DUP2 MSTORE PUSH1 0x2 PUSH1 0x20 MSTORE PUSH1 0x40 DUP1 DUP3 KECCAK256 DUP1 SLOAD PUSH1 0x1 PUSH1 0x1 PUSH1 0xA0 SHL SUB NOT AND PUSH1 0x1 PUSH1 0x1 PUSH1 0xA0 SHL SUB DUP10 DUP2 AND SWAP2 DUP3 OR SWAP1 SWAP3 SSTORE SWAP2 MLOAD DUP8 SWAP4 SWAP2 DUP6 AND SWAP2 PUSH32 0xDDF252AD1BE2C89B69C2B068FC378DAA952BA7F163C4A11628F55A4DF523B3EF SWAP2 LOG4 SWAP5 SWAP4 POP POP POP POP JUMP JUMPDEST PUSH1 0x0 PUSH2 0x3067 DUP4 DUP4 PUSH2 0x1C93 JUMP JUMPDEST PUSH2 0x30E7 JUMPI PUSH1 0x0 DUP4 DUP2 MSTORE PUSH1 0x7 PUSH1 0x20 SWAP1 DUP2 MSTORE PUSH1 0x40 DUP1 DUP4 KECCAK256 PUSH1 0x1 PUSH1 0x1 PUSH1 0xA0 SHL SUB DUP7 AND DUP5 MSTORE SWAP1 SWAP2 MSTORE SWAP1 KECCAK256 DUP1 SLOAD PUSH1 0xFF NOT AND PUSH1 0x1 OR SWAP1 SSTORE PUSH2 0x309F CALLER SWAP1 JUMP JUMPDEST PUSH1 0x1 PUSH1 0x1 PUSH1 0xA0 SHL SUB AND DUP3 PUSH1 0x1 PUSH1 0x1 PUSH1 0xA0 SHL SUB AND DUP5 PUSH32 0x2F8788117E7EFF1D82E926EC794901D17C78024A50270940304540A733656F0D PUSH1 0x40 MLOAD PUSH1 0x40 MLOAD DUP1 SWAP2 SUB SWAP1 LOG4 POP PUSH1 0x1 PUSH2 0x5CB JUMP JUMPDEST POP PUSH1 0x0 PUSH2 0x5CB JUMP JUMPDEST PUSH1 0x0 PUSH2 0x30FB DUP4 DUP4 PUSH2 0x1C93 JUMP JUMPDEST ISZERO PUSH2 0x30E7 JUMPI PUSH1 0x0 DUP4 DUP2 MSTORE PUSH1 0x7 PUSH1 0x20 SWAP1 DUP2 MSTORE PUSH1 0x40 DUP1 DUP4 KECCAK256 PUSH1 0x1 PUSH1 0x1 PUSH1 0xA0 SHL SUB DUP7 AND DUP1 DUP6 MSTORE SWAP3 MSTORE DUP1 DUP4 KECCAK256 DUP1 SLOAD PUSH1 0xFF NOT AND SWAP1 SSTORE MLOAD CALLER SWAP3 DUP7 SWAP2 PUSH32 0xF6391F5C32D9C69D2A47EA670B442974B53935D1EDC7FD64EB21E047A839171B SWAP2 SWAP1 LOG4 POP PUSH1 0x1 PUSH2 0x5CB JUMP JUMPDEST PUSH1 0x1 PUSH1 0x1 PUSH1 0xA0 SHL SUB DUP3 AND PUSH2 0x3186 JUMPI PUSH1 0x40 MLOAD PUSH4 0x32505749 PUSH1 0xE1 SHL DUP2 MSTORE PUSH1 0x0 PUSH1 0x4 DUP3 ADD MSTORE PUSH1 0x24 ADD PUSH2 0x901 JUMP JUMPDEST PUSH1 0x0 PUSH2 0x3194 DUP4 DUP4 PUSH1 0x0 PUSH2 0x2F62 JUMP JUMPDEST SWAP1 POP PUSH1 0x1 PUSH1 0x1 PUSH1 0xA0 SHL SUB DUP2 AND PUSH2 0x31C0 JUMPI PUSH1 0x40 MLOAD PUSH4 0x7E273289 PUSH1 0xE0 SHL DUP2 MSTORE PUSH1 0x4 DUP2 ADD DUP4 SWAP1 MSTORE PUSH1 0x24 ADD PUSH2 0x901 JUMP JUMPDEST DUP4 PUSH1 0x1 PUSH1 0x1 PUSH1 0xA0 SHL SUB AND DUP2 PUSH1 0x1 PUSH1 0x1 PUSH1 0xA0 SHL SUB AND EQ PUSH2 0xCFD JUMPI PUSH1 0x40 MLOAD PUSH4 0x64283D7B PUSH1 0xE0 SHL DUP2 MSTORE PUSH1 0x1 PUSH1 0x1 PUSH1 0xA0 SHL SUB DUP1 DUP7 AND PUSH1 0x4 DUP4 ADD MSTORE PUSH1 0x24 DUP3 ADD DUP5 SWAP1 MSTORE DUP3 AND PUSH1 0x44 DUP3 ADD MSTORE PUSH1 0x64 ADD PUSH2 0x901 JUMP JUMPDEST PUSH1 0x1 PUSH1 0x1 PUSH1 0xA0 SHL SUB DUP3 AND PUSH2 0x323E JUMPI PUSH1 0x40 MLOAD PUSH4 0xB611743 PUSH1 0xE3 SHL DUP2 MSTORE PUSH1 0x1 PUSH1 0x1 PUSH1 0xA0 SHL SUB DUP4 AND PUSH1 0x4 DUP3 ADD MSTORE PUSH1 0x24 ADD PUSH2 0x901 JUMP JUMPDEST PUSH1 0x1 PUSH1 0x1 PUSH1 0xA0 SHL SUB DUP4 DUP2 AND PUSH1 0x0 DUP2 DUP2 MSTORE PUSH1 0x5 PUSH1 0x20 SWAP1 DUP2 MSTORE PUSH1 0x40 DUP1 DUP4 KECCAK256 SWAP5 DUP8 AND DUP1 DUP5 MSTORE SWAP5 DUP3 MSTORE SWAP2 DUP3 SWAP1 KECCAK256 DUP1 SLOAD PUSH1 0xFF NOT AND DUP7 ISZERO ISZERO SWAP1 DUP2 OR SWAP1 SWAP2 SSTORE SWAP2 MLOAD SWAP2 DUP3 MSTORE PUSH32 0x17307EAB39AB6107E8899845AD3D59BD9653F200F220920489CA2B5937696C31 SWAP2 ADD PUSH1 0x40 MLOAD DUP1 SWAP2 SUB SWAP1 LOG3 POP POP POP JUMP JUMPDEST PUSH1 0x1 PUSH1 0x1 PUSH1 0xA0 SHL SUB DUP4 AND EXTCODESIZE ISZERO PUSH2 0xCFD JUMPI PUSH1 0x40 MLOAD PUSH4 0xA85BD01 PUSH1 0xE1 SHL DUP2 MSTORE PUSH1 0x1 PUSH1 0x1 PUSH1 0xA0 SHL SUB DUP5 AND SWAP1 PUSH4 0x150B7A02 SWAP1 PUSH2 0x32ED SWAP1 CALLER SWAP1 DUP9 SWAP1 DUP8 SWAP1 DUP8 SWAP1 PUSH1 0x4 ADD PUSH2 0x44D6 JUMP JUMPDEST PUSH1 0x20 PUSH1 0x40 MLOAD DUP1 DUP4 SUB DUP2 PUSH1 0x0 DUP8 GAS CALL SWAP3 POP POP POP DUP1 ISZERO PUSH2 0x3328 JUMPI POP PUSH1 0x40 DUP1 MLOAD PUSH1 0x1F RETURNDATASIZE SWAP1 DUP2 ADD PUSH1 0x1F NOT AND DUP3 ADD SWAP1 SWAP3 MSTORE PUSH2 0x3325 SWAP2 DUP2 ADD SWAP1 PUSH2 0x4513 JUMP JUMPDEST PUSH1 0x1 JUMPDEST PUSH2 0x3391 JUMPI RETURNDATASIZE DUP1 DUP1 ISZERO PUSH2 0x3356 JUMPI PUSH1 0x40 MLOAD SWAP2 POP PUSH1 0x1F NOT PUSH1 0x3F RETURNDATASIZE ADD AND DUP3 ADD PUSH1 0x40 MSTORE RETURNDATASIZE DUP3 MSTORE RETURNDATASIZE PUSH1 0x0 PUSH1 0x20 DUP5 ADD RETURNDATACOPY PUSH2 0x335B JUMP JUMPDEST PUSH1 0x60 SWAP2 POP JUMPDEST POP DUP1 MLOAD PUSH1 0x0 SUB PUSH2 0x3389 JUMPI PUSH1 0x40 MLOAD PUSH4 0x32505749 PUSH1 0xE1 SHL DUP2 MSTORE PUSH1 0x1 PUSH1 0x1 PUSH1 0xA0 SHL SUB DUP6 AND PUSH1 0x4 DUP3 ADD MSTORE PUSH1 0x24 ADD PUSH2 0x901 JUMP JUMPDEST DUP1 MLOAD DUP2 PUSH1 0x20 ADD REVERT JUMPDEST PUSH1 0x1 PUSH1 0x1 PUSH1 0xE0 SHL SUB NOT DUP2 AND PUSH4 0xA85BD01 PUSH1 0xE1 SHL EQ PUSH2 0x33CD JUMPI PUSH1 0x40 MLOAD PUSH4 0x32505749 PUSH1 0xE1 SHL DUP2 MSTORE PUSH1 0x1 PUSH1 0x1 PUSH1 0xA0 SHL SUB DUP6 AND PUSH1 0x4 DUP3 ADD MSTORE PUSH1 0x24 ADD PUSH2 0x901 JUMP JUMPDEST POP POP POP POP POP JUMP JUMPDEST PUSH1 0x60 PUSH2 0x33DF DUP3 PUSH2 0x2EA5 JUMP JUMPDEST POP PUSH1 0x0 DUP3 DUP2 MSTORE PUSH1 0x6 PUSH1 0x20 MSTORE PUSH1 0x40 DUP2 KECCAK256 DUP1 SLOAD PUSH2 0x33F9 SWAP1 PUSH2 0x4236 JUMP JUMPDEST DUP1 PUSH1 0x1F ADD PUSH1 0x20 DUP1 SWAP2 DIV MUL PUSH1 0x20 ADD PUSH1 0x40 MLOAD SWAP1 DUP2 ADD PUSH1 0x40 MSTORE DUP1 SWAP3 SWAP2 SWAP1 DUP2 DUP2 MSTORE PUSH1 0x20 ADD DUP3 DUP1 SLOAD PUSH2 0x3425 SWAP1 PUSH2 0x4236 JUMP JUMPDEST DUP1 ISZERO PUSH2 0x3472 JUMPI DUP1 PUSH1 0x1F LT PUSH2 0x3447 JUMPI PUSH2 0x100 DUP1 DUP4 SLOAD DIV MUL DUP4 MSTORE SWAP2 PUSH1 0x20 ADD SWAP2 PUSH2 0x3472 JUMP JUMPDEST DUP3 ADD SWAP2 SWAP1 PUSH1 0x0 MSTORE PUSH1 0x20 PUSH1 0x0 KECCAK256 SWAP1 JUMPDEST DUP2 SLOAD DUP2 MSTORE SWAP1 PUSH1 0x1 ADD SWAP1 PUSH1 0x20 ADD DUP1 DUP4 GT PUSH2 0x3455 JUMPI DUP3 SWAP1 SUB PUSH1 0x1F AND DUP3 ADD SWAP2 JUMPDEST POP POP POP POP POP SWAP1 POP PUSH1 0x0 PUSH2 0x3490 PUSH1 0x40 DUP1 MLOAD PUSH1 0x20 DUP2 ADD SWAP1 SWAP2 MSTORE PUSH1 0x0 DUP2 MSTORE SWAP1 JUMP JUMPDEST SWAP1 POP DUP1 MLOAD PUSH1 0x0 SUB PUSH2 0x34A2 JUMPI POP SWAP3 SWAP2 POP POP JUMP JUMPDEST DUP2 MLOAD ISZERO PUSH2 0x34D4 JUMPI DUP1 DUP3 PUSH1 0x40 MLOAD PUSH1 0x20 ADD PUSH2 0x34BC SWAP3 SWAP2 SWAP1 PUSH2 0x4530 JUMP JUMPDEST PUSH1 0x40 MLOAD PUSH1 0x20 DUP2 DUP4 SUB SUB DUP2 MSTORE SWAP1 PUSH1 0x40 MSTORE SWAP3 POP POP POP SWAP2 SWAP1 POP JUMP JUMPDEST PUSH2 0x7AB DUP5 PUSH2 0x36BC JUMP JUMPDEST PUSH1 0x0 PUSH1 0x1 PUSH1 0x1 PUSH1 0xE0 SHL SUB NOT DUP3 AND PUSH4 0x24832483 PUSH1 0xE1 SHL EQ DUP1 PUSH2 0x5CB JUMPI POP PUSH2 0x5CB DUP3 PUSH2 0x3730 JUMP JUMPDEST DUP1 DUP1 PUSH2 0x3516 JUMPI POP PUSH1 0x1 PUSH1 0x1 PUSH1 0xA0 SHL SUB DUP3 AND ISZERO ISZERO JUMPDEST ISZERO PUSH2 0x35D8 JUMPI PUSH1 0x0 PUSH2 0x3526 DUP5 PUSH2 0x2EA5 JUMP JUMPDEST SWAP1 POP PUSH1 0x1 PUSH1 0x1 PUSH1 0xA0 SHL SUB DUP4 AND ISZERO DUP1 ISZERO SWAP1 PUSH2 0x3552 JUMPI POP DUP3 PUSH1 0x1 PUSH1 0x1 PUSH1 0xA0 SHL SUB AND DUP2 PUSH1 0x1 PUSH1 0x1 PUSH1 0xA0 SHL SUB AND EQ ISZERO JUMPDEST DUP1 ISZERO PUSH2 0x3565 JUMPI POP PUSH2 0x3563 DUP2 DUP5 PUSH2 0x2E52 JUMP JUMPDEST ISZERO JUMPDEST ISZERO PUSH2 0x358E JUMPI PUSH1 0x40 MLOAD PUSH4 0xA9FBF51F PUSH1 0xE0 SHL DUP2 MSTORE PUSH1 0x1 PUSH1 0x1 PUSH1 0xA0 SHL SUB DUP5 AND PUSH1 0x4 DUP3 ADD MSTORE PUSH1 0x24 ADD PUSH2 0x901 JUMP JUMPDEST DUP2 ISZERO PUSH2 0x35D6 JUMPI DUP4 DUP6 PUSH1 0x1 PUSH1 0x1 PUSH1 0xA0 SHL SUB AND DUP3 PUSH1 0x1 PUSH1 0x1 PUSH1 0xA0 SHL SUB AND PUSH32 0x8C5BE1E5EBEC7D5BD14F71427D1E84F3DD0314C0F7B2291E5B200AC8C7C3B925 PUSH1 0x40 MLOAD PUSH1 0x40 MLOAD DUP1 SWAP2 SUB SWAP1 LOG4 JUMPDEST POP JUMPDEST POP POP PUSH1 0x0 SWAP1 DUP2 MSTORE PUSH1 0x4 PUSH1 0x20 MSTORE PUSH1 0x40 SWAP1 KECCAK256 DUP1 SLOAD PUSH1 0x1 PUSH1 0x1 PUSH1 0xA0 SHL SUB NOT AND PUSH1 0x1 PUSH1 0x1 PUSH1 0xA0 SHL SUB SWAP3 SWAP1 SWAP3 AND SWAP2 SWAP1 SWAP2 OR SWAP1 SSTORE JUMP JUMPDEST PUSH2 0x3612 DUP3 DUP3 PUSH2 0x1C93 JUMP JUMPDEST PUSH2 0x879 JUMPI PUSH1 0x40 MLOAD PUSH4 0xE2517D3F PUSH1 0xE0 SHL DUP2 MSTORE PUSH1 0x1 PUSH1 0x1 PUSH1 0xA0 SHL SUB DUP3 AND PUSH1 0x4 DUP3 ADD MSTORE PUSH1 0x24 DUP2 ADD DUP4 SWAP1 MSTORE PUSH1 0x44 ADD PUSH2 0x901 JUMP JUMPDEST PUSH2 0x364B DUP4 DUP4 PUSH2 0x3780 JUMP JUMPDEST PUSH2 0xEE8 PUSH1 0x0 DUP5 DUP5 DUP5 PUSH2 0x32AB JUMP JUMPDEST PUSH2 0x3663 DUP4 DUP4 DUP4 PUSH2 0x37E5 JUMP JUMPDEST PUSH2 0xEE8 JUMPI PUSH1 0x1 PUSH1 0x1 PUSH1 0xA0 SHL SUB DUP4 AND PUSH2 0x3691 JUMPI PUSH1 0x40 MLOAD PUSH4 0x7E273289 PUSH1 0xE0 SHL DUP2 MSTORE PUSH1 0x4 DUP2 ADD DUP3 SWAP1 MSTORE PUSH1 0x24 ADD PUSH2 0x901 JUMP JUMPDEST PUSH1 0x40 MLOAD PUSH4 0x177E802F PUSH1 0xE0 SHL DUP2 MSTORE PUSH1 0x1 PUSH1 0x1 PUSH1 0xA0 SHL SUB DUP4 AND PUSH1 0x4 DUP3 ADD MSTORE PUSH1 0x24 DUP2 ADD DUP3 SWAP1 MSTORE PUSH1 0x44 ADD PUSH2 0x901 JUMP JUMPDEST PUSH1 0x60 PUSH2 0x36C7 DUP3 PUSH2 0x2EA5 JUMP JUMPDEST POP PUSH1 0x0 PUSH2 0x36DF PUSH1 0x40 DUP1 MLOAD PUSH1 0x20 DUP2 ADD SWAP1 SWAP2 MSTORE PUSH1 0x0 DUP2 MSTORE SWAP1 JUMP JUMPDEST SWAP1 POP PUSH1 0x0 DUP2 MLOAD GT PUSH2 0x36FF JUMPI PUSH1 0x40 MLOAD DUP1 PUSH1 0x20 ADD PUSH1 0x40 MSTORE DUP1 PUSH1 0x0 DUP2 MSTORE POP PUSH2 0xC71 JUMP JUMPDEST DUP1 PUSH2 0x3709 DUP5 PUSH2 0x3848 JUMP JUMPDEST PUSH1 0x40 MLOAD PUSH1 0x20 ADD PUSH2 0x371A SWAP3 SWAP2 SWAP1 PUSH2 0x4530 JUMP JUMPDEST PUSH1 0x40 MLOAD PUSH1 0x20 DUP2 DUP4 SUB SUB DUP2 MSTORE SWAP1 PUSH1 0x40 MSTORE SWAP4 SWAP3 POP POP POP JUMP JUMPDEST PUSH1 0x0 PUSH1 0x1 PUSH1 0x1 PUSH1 0xE0 SHL SUB NOT DUP3 AND PUSH4 0x80AC58CD PUSH1 0xE0 SHL EQ DUP1 PUSH2 0x3761 JUMPI POP PUSH1 0x1 PUSH1 0x1 PUSH1 0xE0 SHL SUB NOT DUP3 AND PUSH4 0x5B5E139F PUSH1 0xE0 SHL EQ JUMPDEST DUP1 PUSH2 0x5CB JUMPI POP PUSH4 0x1FFC9A7 PUSH1 0xE0 SHL PUSH1 0x1 PUSH1 0x1 PUSH1 0xE0 SHL SUB NOT DUP4 AND EQ PUSH2 0x5CB JUMP JUMPDEST PUSH1 0x1 PUSH1 0x1 PUSH1 0xA0 SHL SUB DUP3 AND PUSH2 0x37AA JUMPI PUSH1 0x40 MLOAD PUSH4 0x32505749 PUSH1 0xE1 SHL DUP2 MSTORE PUSH1 0x0 PUSH1 0x4 DUP3 ADD MSTORE PUSH1 0x24 ADD PUSH2 0x901 JUMP JUMPDEST PUSH1 0x0 PUSH2 0x37B8 DUP4 DUP4 PUSH1 0x0 PUSH2 0x2F62 JUMP JUMPDEST SWAP1 POP PUSH1 0x1 PUSH1 0x1 PUSH1 0xA0 SHL SUB DUP2 AND ISZERO PUSH2 0xEE8 JUMPI PUSH1 0x40 MLOAD PUSH4 0x39E35637 PUSH1 0xE1 SHL DUP2 MSTORE PUSH1 0x0 PUSH1 0x4 DUP3 ADD MSTORE PUSH1 0x24 ADD PUSH2 0x901 JUMP JUMPDEST PUSH1 0x0 PUSH1 0x1 PUSH1 0x1 PUSH1 0xA0 SHL SUB DUP4 AND ISZERO DUP1 ISZERO SWAP1 PUSH2 0x7AB JUMPI POP DUP3 PUSH1 0x1 PUSH1 0x1 PUSH1 0xA0 SHL SUB AND DUP5 PUSH1 0x1 PUSH1 0x1 PUSH1 0xA0 SHL SUB AND EQ DUP1 PUSH2 0x381F JUMPI POP PUSH2 0x381F DUP5 DUP5 PUSH2 0x2E52 JUMP JUMPDEST DUP1 PUSH2 0x7AB JUMPI POP POP PUSH1 0x0 SWAP1 DUP2 MSTORE PUSH1 0x4 PUSH1 0x20 MSTORE PUSH1 0x40 SWAP1 KECCAK256 SLOAD PUSH1 0x1 PUSH1 0x1 PUSH1 0xA0 SHL SUB SWAP1 DUP2 AND SWAP2 AND EQ SWAP2 SWAP1 POP JUMP JUMPDEST PUSH1 0x60 PUSH1 0x0 PUSH2 0x3855 DUP4 PUSH2 0x38DB JUMP JUMPDEST PUSH1 0x1 ADD SWAP1 POP PUSH1 0x0 DUP2 PUSH8 0xFFFFFFFFFFFFFFFF DUP2 GT ISZERO PUSH2 0x3875 JUMPI PUSH2 0x3875 PUSH2 0x3B5F JUMP JUMPDEST PUSH1 0x40 MLOAD SWAP1 DUP1 DUP3 MSTORE DUP1 PUSH1 0x1F ADD PUSH1 0x1F NOT AND PUSH1 0x20 ADD DUP3 ADD PUSH1 0x40 MSTORE DUP1 ISZERO PUSH2 0x389F JUMPI PUSH1 0x20 DUP3 ADD DUP2 DUP1 CALLDATASIZE DUP4 CALLDATACOPY ADD SWAP1 POP JUMPDEST POP SWAP1 POP DUP2 DUP2 ADD PUSH1 0x20 ADD JUMPDEST PUSH1 0x0 NOT ADD PUSH16 0x181899199A1A9B1B9C1CB0B131B232B3 PUSH1 0x81 SHL PUSH1 0xA DUP7 MOD BYTE DUP2 MSTORE8 PUSH1 0xA DUP6 DIV SWAP5 POP DUP5 PUSH2 0x38A9 JUMPI POP SWAP4 SWAP3 POP POP POP JUMP JUMPDEST PUSH1 0x0 DUP1 PUSH19 0x184F03E93FF9F4DAA797ED6E38ED64BF6A1F01 PUSH1 0x40 SHL DUP4 LT PUSH2 0x391A JUMPI PUSH19 0x184F03E93FF9F4DAA797ED6E38ED64BF6A1F01 PUSH1 0x40 SHL DUP4 DIV SWAP3 POP PUSH1 0x40 ADD JUMPDEST PUSH14 0x4EE2D6D415B85ACEF8100000000 DUP4 LT PUSH2 0x3946 JUMPI PUSH14 0x4EE2D6D415B85ACEF8100000000 DUP4 DIV SWAP3 POP PUSH1 0x20 ADD JUMPDEST PUSH7 0x2386F26FC10000 DUP4 LT PUSH2 0x3964 JUMPI PUSH7 0x2386F26FC10000 DUP4 DIV SWAP3 POP PUSH1 0x10 ADD JUMPDEST PUSH4 0x5F5E100 DUP4 LT PUSH2 0x397C JUMPI PUSH4 0x5F5E100 DUP4 DIV SWAP3 POP PUSH1 0x8 ADD JUMPDEST PUSH2 0x2710 DUP4 LT PUSH2 0x3990 JUMPI PUSH2 0x2710 DUP4 DIV SWAP3 POP PUSH1 0x4 ADD JUMPDEST PUSH1 0x64 DUP4 LT PUSH2 0x39A2 JUMPI PUSH1 0x64 DUP4 DIV SWAP3 POP PUSH1 0x2 ADD JUMPDEST PUSH1 0xA DUP4 LT PUSH2 0x5CB JUMPI PUSH1 0x1 ADD SWAP3 SWAP2 POP POP JUMP JUMPDEST PUSH1 0x40 MLOAD DUP1 PUSH1 0xE0 ADD PUSH1 0x40 MSTORE DUP1 PUSH1 0x60 DUP2 MSTORE PUSH1 0x20 ADD PUSH1 0x60 DUP2 MSTORE PUSH1 0x20 ADD PUSH1 0x0 DUP2 MSTORE PUSH1 0x20 ADD PUSH1 0x60 DUP2 MSTORE PUSH1 0x20 ADD PUSH1 0x0 PUSH1 0x4 DUP2 GT ISZERO PUSH2 0x39ED JUMPI PUSH2 0x39ED PUSH2 0x3D7A JUMP JUMPDEST DUP2 MSTORE PUSH1 0x0 PUSH1 0x20 DUP3 ADD MSTORE PUSH1 0x60 PUSH1 0x40 SWAP1 SWAP2 ADD MSTORE SWAP1 JUMP JUMPDEST PUSH1 0x40 MLOAD DUP1 PUSH1 0xE0 ADD PUSH1 0x40 MSTORE DUP1 PUSH1 0x60 DUP2 MSTORE PUSH1 0x20 ADD PUSH1 0x60 DUP2 MSTORE PUSH1 0x20 ADD PUSH1 0x0 DUP2 MSTORE PUSH1 0x20 ADD PUSH1 0x60 DUP2 MSTORE PUSH1 0x20 ADD PUSH1 0x0 PUSH1 0x4 DUP2 GT ISZERO PUSH2 0x3A3B JUMPI PUSH2 0x3A3B PUSH2 0x3D7A JUMP JUMPDEST DUP2 MSTORE PUSH1 0x0 PUSH1 0x20 DUP3 ADD DUP2 SWAP1 MSTORE PUSH1 0x40 SWAP1 SWAP2 ADD MSTORE SWAP1 JUMP JUMPDEST PUSH1 0x1 PUSH1 0x1 PUSH1 0xE0 SHL SUB NOT DUP2 AND DUP2 EQ PUSH2 0x2EF5 JUMPI PUSH1 0x0 DUP1 REVERT JUMPDEST PUSH1 0x0 PUSH1 0x20 DUP3 DUP5 SUB SLT ISZERO PUSH2 0x3A77 JUMPI PUSH1 0x0 DUP1 REVERT JUMPDEST DUP2 CALLDATALOAD PUSH2 0xC71 DUP2 PUSH2 0x3A4F JUMP JUMPDEST DUP1 CALLDATALOAD PUSH1 0x1 PUSH1 0x1 PUSH1 0xA0 SHL SUB DUP2 AND DUP2 EQ PUSH2 0x3A99 JUMPI PUSH1 0x0 DUP1 REVERT JUMPDEST SWAP2 SWAP1 POP JUMP JUMPDEST PUSH1 0x0 PUSH1 0x20 DUP3 DUP5 SUB SLT ISZERO PUSH2 0x3AB0 JUMPI PUSH1 0x0 DUP1 REVERT JUMPDEST PUSH2 0xC71 DUP3 PUSH2 0x3A82 JUMP JUMPDEST PUSH1 0x0 JUMPDEST DUP4 DUP2 LT ISZERO PUSH2 0x3AD4 JUMPI DUP2 DUP2 ADD MLOAD DUP4 DUP3 ADD MSTORE PUSH1 0x20 ADD PUSH2 0x3ABC JUMP JUMPDEST POP POP PUSH1 0x0 SWAP2 ADD MSTORE JUMP JUMPDEST PUSH1 0x0 DUP2 MLOAD DUP1 DUP5 MSTORE PUSH2 0x3AF5 DUP2 PUSH1 0x20 DUP7 ADD PUSH1 0x20 DUP7 ADD PUSH2 0x3AB9 JUMP JUMPDEST PUSH1 0x1F ADD PUSH1 0x1F NOT AND SWAP3 SWAP1 SWAP3 ADD PUSH1 0x20 ADD SWAP3 SWAP2 POP POP JUMP JUMPDEST PUSH1 0x20 DUP2 MSTORE PUSH1 0x0 PUSH2 0xC71 PUSH1 0x20 DUP4 ADD DUP5 PUSH2 0x3ADD JUMP JUMPDEST PUSH1 0x0 PUSH1 0x20 DUP3 DUP5 SUB SLT ISZERO PUSH2 0x3B2E JUMPI PUSH1 0x0 DUP1 REVERT JUMPDEST POP CALLDATALOAD SWAP2 SWAP1 POP JUMP JUMPDEST PUSH1 0x0 DUP1 PUSH1 0x40 DUP4 DUP6 SUB SLT ISZERO PUSH2 0x3B48 JUMPI PUSH1 0x0 DUP1 REVERT JUMPDEST PUSH2 0x3B51 DUP4 PUSH2 0x3A82 JUMP JUMPDEST SWAP5 PUSH1 0x20 SWAP4 SWAP1 SWAP4 ADD CALLDATALOAD SWAP4 POP POP POP JUMP JUMPDEST PUSH4 0x4E487B71 PUSH1 0xE0 SHL PUSH1 0x0 MSTORE PUSH1 0x41 PUSH1 0x4 MSTORE PUSH1 0x24 PUSH1 0x0 REVERT JUMPDEST PUSH1 0x0 PUSH8 0xFFFFFFFFFFFFFFFF DUP1 DUP5 GT ISZERO PUSH2 0x3B90 JUMPI PUSH2 0x3B90 PUSH2 0x3B5F JUMP JUMPDEST PUSH1 0x40 MLOAD PUSH1 0x1F DUP6 ADD PUSH1 0x1F NOT SWAP1 DUP2 AND PUSH1 0x3F ADD AND DUP2 ADD SWAP1 DUP3 DUP3 GT DUP2 DUP4 LT OR ISZERO PUSH2 0x3BB8 JUMPI PUSH2 0x3BB8 PUSH2 0x3B5F JUMP JUMPDEST DUP2 PUSH1 0x40 MSTORE DUP1 SWAP4 POP DUP6 DUP2 MSTORE DUP7 DUP7 DUP7 ADD GT ISZERO PUSH2 0x3BD1 JUMPI PUSH1 0x0 DUP1 REVERT JUMPDEST DUP6 DUP6 PUSH1 0x20 DUP4 ADD CALLDATACOPY PUSH1 0x0 PUSH1 0x20 DUP8 DUP4 ADD ADD MSTORE POP POP POP SWAP4 SWAP3 POP POP POP JUMP JUMPDEST PUSH1 0x0 DUP3 PUSH1 0x1F DUP4 ADD SLT PUSH2 0x3BFC JUMPI PUSH1 0x0 DUP1 REVERT JUMPDEST PUSH2 0xC71 DUP4 DUP4 CALLDATALOAD PUSH1 0x20 DUP6 ADD PUSH2 0x3B75 JUMP JUMPDEST PUSH1 0x0 DUP1 PUSH1 0x0 DUP1 PUSH1 0x0 PUSH1 0xA0 DUP7 DUP9 SUB SLT ISZERO PUSH2 0x3C23 JUMPI PUSH1 0x0 DUP1 REVERT JUMPDEST DUP6 CALLDATALOAD PUSH8 0xFFFFFFFFFFFFFFFF DUP1 DUP3 GT ISZERO PUSH2 0x3C3B JUMPI PUSH1 0x0 DUP1 REVERT JUMPDEST PUSH2 0x3C47 DUP10 DUP4 DUP11 ADD PUSH2 0x3BEB JUMP JUMPDEST SWAP7 POP PUSH1 0x20 DUP9 ADD CALLDATALOAD SWAP2 POP DUP1 DUP3 GT ISZERO PUSH2 0x3C5D JUMPI PUSH1 0x0 DUP1 REVERT JUMPDEST PUSH2 0x3C69 DUP10 DUP4 DUP11 ADD PUSH2 0x3BEB JUMP JUMPDEST SWAP6 POP PUSH1 0x40 DUP9 ADD CALLDATALOAD SWAP2 POP DUP1 DUP3 GT ISZERO PUSH2 0x3C7F JUMPI PUSH1 0x0 DUP1 REVERT JUMPDEST PUSH2 0x3C8B DUP10 DUP4 DUP11 ADD PUSH2 0x3BEB JUMP JUMPDEST SWAP5 POP PUSH1 0x60 DUP9 ADD CALLDATALOAD SWAP2 POP DUP1 DUP3 GT ISZERO PUSH2 0x3CA1 JUMPI PUSH1 0x0 DUP1 REVERT JUMPDEST PUSH2 0x3CAD DUP10 DUP4 DUP11 ADD PUSH2 0x3BEB JUMP JUMPDEST SWAP4 POP PUSH1 0x80 DUP9 ADD CALLDATALOAD SWAP2 POP DUP1 DUP3 GT ISZERO PUSH2 0x3CC3 JUMPI PUSH1 0x0 DUP1 REVERT JUMPDEST POP PUSH2 0x3CD0 DUP9 DUP3 DUP10 ADD PUSH2 0x3BEB JUMP JUMPDEST SWAP2 POP POP SWAP3 SWAP6 POP SWAP3 SWAP6 SWAP1 SWAP4 POP JUMP JUMPDEST PUSH1 0x0 PUSH1 0x20 DUP3 DUP5 SUB SLT ISZERO PUSH2 0x3CEF JUMPI PUSH1 0x0 DUP1 REVERT JUMPDEST DUP2 CALLDATALOAD PUSH8 0xFFFFFFFFFFFFFFFF DUP2 GT ISZERO PUSH2 0x3D06 JUMPI PUSH1 0x0 DUP1 REVERT JUMPDEST PUSH2 0x7AB DUP5 DUP3 DUP6 ADD PUSH2 0x3BEB JUMP JUMPDEST PUSH1 0x0 DUP1 PUSH1 0x40 DUP4 DUP6 SUB SLT ISZERO PUSH2 0x3D25 JUMPI PUSH1 0x0 DUP1 REVERT JUMPDEST DUP3 CALLDATALOAD SWAP2 POP PUSH2 0x3D35 PUSH1 0x20 DUP5 ADD PUSH2 0x3A82 JUMP JUMPDEST SWAP1 POP SWAP3 POP SWAP3 SWAP1 POP JUMP JUMPDEST PUSH1 0x0 DUP1 PUSH1 0x0 PUSH1 0x60 DUP5 DUP7 SUB SLT ISZERO PUSH2 0x3D53 JUMPI PUSH1 0x0 DUP1 REVERT JUMPDEST PUSH2 0x3D5C DUP5 PUSH2 0x3A82 JUMP JUMPDEST SWAP3 POP PUSH2 0x3D6A PUSH1 0x20 DUP6 ADD PUSH2 0x3A82 JUMP JUMPDEST SWAP2 POP PUSH1 0x40 DUP5 ADD CALLDATALOAD SWAP1 POP SWAP3 POP SWAP3 POP SWAP3 JUMP JUMPDEST PUSH4 0x4E487B71 PUSH1 0xE0 SHL PUSH1 0x0 MSTORE PUSH1 0x21 PUSH1 0x4 MSTORE PUSH1 0x24 PUSH1 0x0 REVERT JUMPDEST PUSH1 0x5 DUP2 LT PUSH2 0x3DAE JUMPI PUSH4 0x4E487B71 PUSH1 0xE0 SHL PUSH1 0x0 MSTORE PUSH1 0x21 PUSH1 0x4 MSTORE PUSH1 0x24 PUSH1 0x0 REVERT JUMPDEST SWAP1 MSTORE JUMP JUMPDEST PUSH1 0x0 PUSH1 0x20 DUP1 DUP4 ADD DUP2 DUP5 MSTORE DUP1 DUP6 MLOAD DUP1 DUP4 MSTORE PUSH1 0x40 SWAP3 POP DUP3 DUP7 ADD SWAP2 POP DUP3 DUP2 PUSH1 0x5 SHL DUP8 ADD ADD DUP5 DUP9 ADD PUSH1 0x0 JUMPDEST DUP4 DUP2 LT ISZERO PUSH2 0x3E92 JUMPI PUSH1 0x3F NOT DUP10 DUP5 SUB ADD DUP6 MSTORE DUP2 MLOAD PUSH1 0xE0 DUP2 MLOAD DUP2 DUP7 MSTORE PUSH2 0x3DFF DUP3 DUP8 ADD DUP3 PUSH2 0x3ADD JUMP JUMPDEST SWAP2 POP POP DUP9 DUP3 ADD MLOAD DUP6 DUP3 SUB DUP11 DUP8 ADD MSTORE PUSH2 0x3E17 DUP3 DUP3 PUSH2 0x3ADD JUMP JUMPDEST SWAP2 POP POP DUP8 DUP3 ADD MLOAD DUP9 DUP7 ADD MSTORE PUSH1 0x60 DUP1 DUP4 ADD MLOAD DUP7 DUP4 SUB DUP3 DUP9 ADD MSTORE PUSH2 0x3E39 DUP4 DUP3 PUSH2 0x3ADD JUMP JUMPDEST SWAP3 POP POP POP PUSH1 0x80 DUP1 DUP4 ADD MLOAD PUSH2 0x3E4F DUP3 DUP9 ADD DUP3 PUSH2 0x3D90 JUMP JUMPDEST POP POP PUSH1 0xA0 DUP3 DUP2 ADD MLOAD PUSH1 0x1 PUSH1 0x1 PUSH1 0xA0 SHL SUB AND SWAP1 DUP7 ADD MSTORE PUSH1 0xC0 SWAP2 DUP3 ADD MLOAD DUP6 DUP3 SUB SWAP3 DUP7 ADD SWAP3 SWAP1 SWAP3 MSTORE PUSH2 0x3E7E DUP2 DUP4 PUSH2 0x3ADD JUMP JUMPDEST SWAP7 DUP10 ADD SWAP7 SWAP5 POP POP POP SWAP1 DUP7 ADD SWAP1 PUSH1 0x1 ADD PUSH2 0x3DD9 JUMP JUMPDEST POP SWAP1 SWAP9 SWAP8 POP POP POP POP POP POP POP POP JUMP JUMPDEST PUSH1 0xE0 DUP2 MSTORE PUSH1 0x0 PUSH2 0x3EB3 PUSH1 0xE0 DUP4 ADD DUP11 PUSH2 0x3ADD JUMP JUMPDEST DUP3 DUP2 SUB PUSH1 0x20 DUP5 ADD MSTORE PUSH2 0x3EC5 DUP2 DUP11 PUSH2 0x3ADD JUMP JUMPDEST SWAP1 POP DUP8 PUSH1 0x40 DUP5 ADD MSTORE DUP3 DUP2 SUB PUSH1 0x60 DUP5 ADD MSTORE PUSH2 0x3EDF DUP2 DUP9 PUSH2 0x3ADD JUMP JUMPDEST SWAP2 POP POP PUSH2 0x3EEF PUSH1 0x80 DUP4 ADD DUP7 PUSH2 0x3D90 JUMP JUMPDEST PUSH1 0x1 PUSH1 0x1 PUSH1 0xA0 SHL SUB SWAP4 SWAP1 SWAP4 AND PUSH1 0xA0 DUP3 ADD MSTORE SWAP1 ISZERO ISZERO PUSH1 0xC0 SWAP1 SWAP2 ADD MSTORE SWAP6 SWAP5 POP POP POP POP POP JUMP JUMPDEST PUSH1 0x0 DUP1 PUSH1 0x0 DUP1 PUSH1 0x80 DUP6 DUP8 SUB SLT ISZERO PUSH2 0x3F28 JUMPI PUSH1 0x0 DUP1 REVERT JUMPDEST DUP5 CALLDATALOAD SWAP4 POP PUSH2 0x3F38 PUSH1 0x20 DUP7 ADD PUSH2 0x3A82 JUMP JUMPDEST SWAP3 POP PUSH1 0x40 DUP6 ADD CALLDATALOAD PUSH8 0xFFFFFFFFFFFFFFFF DUP1 DUP3 GT ISZERO PUSH2 0x3F55 JUMPI PUSH1 0x0 DUP1 REVERT JUMPDEST PUSH2 0x3F61 DUP9 DUP4 DUP10 ADD PUSH2 0x3BEB JUMP JUMPDEST SWAP4 POP PUSH1 0x60 DUP8 ADD CALLDATALOAD SWAP2 POP DUP1 DUP3 GT ISZERO PUSH2 0x3F77 JUMPI PUSH1 0x0 DUP1 REVERT JUMPDEST POP PUSH2 0x3F84 DUP8 DUP3 DUP9 ADD PUSH2 0x3BEB JUMP JUMPDEST SWAP2 POP POP SWAP3 SWAP6 SWAP2 SWAP5 POP SWAP3 POP JUMP JUMPDEST PUSH1 0x0 DUP1 PUSH1 0x40 DUP4 DUP6 SUB SLT ISZERO PUSH2 0x3FA3 JUMPI PUSH1 0x0 DUP1 REVERT JUMPDEST PUSH2 0x3FAC DUP4 PUSH2 0x3A82 JUMP JUMPDEST SWAP2 POP PUSH1 0x20 DUP4 ADD CALLDATALOAD DUP1 ISZERO ISZERO DUP2 EQ PUSH2 0x3FC1 JUMPI PUSH1 0x0 DUP1 REVERT JUMPDEST DUP1 SWAP2 POP POP SWAP3 POP SWAP3 SWAP1 POP JUMP JUMPDEST PUSH1 0x0 DUP1 PUSH1 0x0 DUP1 PUSH1 0x80 DUP6 DUP8 SUB SLT ISZERO PUSH2 0x3FE2 JUMPI PUSH1 0x0 DUP1 REVERT JUMPDEST PUSH2 0x3FEB DUP6 PUSH2 0x3A82 JUMP JUMPDEST SWAP4 POP PUSH2 0x3FF9 PUSH1 0x20 DUP7 ADD PUSH2 0x3A82 JUMP JUMPDEST SWAP3 POP PUSH1 0x40 DUP6 ADD CALLDATALOAD SWAP2 POP PUSH1 0x60 DUP6 ADD CALLDATALOAD PUSH8 0xFFFFFFFFFFFFFFFF DUP2 GT ISZERO PUSH2 0x401C JUMPI PUSH1 0x0 DUP1 REVERT JUMPDEST DUP6 ADD PUSH1 0x1F DUP2 ADD DUP8 SGT PUSH2 0x402D JUMPI PUSH1 0x0 DUP1 REVERT JUMPDEST PUSH2 0x3F84 DUP8 DUP3 CALLDATALOAD PUSH1 0x20 DUP5 ADD PUSH2 0x3B75 JUMP JUMPDEST PUSH1 0x20 DUP2 MSTORE PUSH1 0x0 DUP3 MLOAD PUSH1 0xE0 PUSH1 0x20 DUP5 ADD MSTORE PUSH2 0x4059 PUSH2 0x100 DUP5 ADD DUP3 PUSH2 0x3ADD JUMP JUMPDEST SWAP1 POP PUSH1 0x20 DUP5 ADD MLOAD PUSH1 0x1F NOT DUP1 DUP6 DUP5 SUB ADD PUSH1 0x40 DUP7 ADD MSTORE PUSH2 0x4077 DUP4 DUP4 PUSH2 0x3ADD JUMP JUMPDEST SWAP3 POP PUSH1 0x40 DUP7 ADD MLOAD PUSH1 0x60 DUP7 ADD MSTORE PUSH1 0x60 DUP7 ADD MLOAD SWAP2 POP DUP1 DUP6 DUP5 SUB ADD PUSH1 0x80 DUP7 ADD MSTORE POP PUSH2 0x409F DUP3 DUP3 PUSH2 0x3ADD JUMP JUMPDEST SWAP2 POP POP PUSH1 0x80 DUP5 ADD MLOAD PUSH2 0x40B4 PUSH1 0xA0 DUP6 ADD DUP3 PUSH2 0x3D90 JUMP JUMPDEST POP PUSH1 0xA0 DUP5 ADD MLOAD PUSH1 0x1 PUSH1 0x1 PUSH1 0xA0 SHL SUB AND PUSH1 0xC0 DUP5 DUP2 ADD SWAP2 SWAP1 SWAP2 MSTORE SWAP1 SWAP4 ADD MLOAD ISZERO ISZERO PUSH1 0xE0 SWAP1 SWAP3 ADD SWAP2 SWAP1 SWAP2 MSTORE POP SWAP1 JUMP JUMPDEST PUSH1 0x0 DUP1 PUSH1 0x40 DUP4 DUP6 SUB SLT ISZERO PUSH2 0x40F2 JUMPI PUSH1 0x0 DUP1 REVERT JUMPDEST POP POP DUP1 CALLDATALOAD SWAP3 PUSH1 0x20 SWAP1 SWAP2 ADD CALLDATALOAD SWAP2 POP JUMP JUMPDEST PUSH1 0xE0 DUP2 MSTORE PUSH1 0x0 PUSH2 0x4114 PUSH1 0xE0 DUP4 ADD DUP11 PUSH2 0x3ADD JUMP JUMPDEST DUP3 DUP2 SUB PUSH1 0x20 DUP5 ADD MSTORE PUSH2 0x4126 DUP2 DUP11 PUSH2 0x3ADD JUMP JUMPDEST SWAP1 POP DUP8 PUSH1 0x40 DUP5 ADD MSTORE DUP3 DUP2 SUB PUSH1 0x60 DUP5 ADD MSTORE PUSH2 0x4140 DUP2 DUP9 PUSH2 0x3ADD JUMP JUMPDEST SWAP1 POP PUSH2 0x414F PUSH1 0x80 DUP5 ADD DUP8 PUSH2 0x3D90 JUMP JUMPDEST PUSH1 0x1 PUSH1 0x1 PUSH1 0xA0 SHL SUB DUP6 AND PUSH1 0xA0 DUP5 ADD MSTORE DUP3 DUP2 SUB PUSH1 0xC0 DUP5 ADD MSTORE PUSH2 0x4170 DUP2 DUP6 PUSH2 0x3ADD JUMP JUMPDEST SWAP11 SWAP10 POP POP POP POP POP POP POP POP POP POP JUMP JUMPDEST PUSH1 0x0 DUP1 PUSH1 0x40 DUP4 DUP6 SUB SLT ISZERO PUSH2 0x4191 JUMPI PUSH1 0x0 DUP1 REVERT JUMPDEST PUSH2 0x419A DUP4 PUSH2 0x3A82 JUMP JUMPDEST SWAP2 POP PUSH2 0x3D35 PUSH1 0x20 DUP5 ADD PUSH2 0x3A82 JUMP JUMPDEST PUSH1 0x0 DUP3 MLOAD PUSH2 0x41BA DUP2 DUP5 PUSH1 0x20 DUP8 ADD PUSH2 0x3AB9 JUMP JUMPDEST PUSH13 0x1626A0A72AA320A1AA2AA922A9 PUSH1 0x99 SHL SWAP3 ADD SWAP2 DUP3 MSTORE POP PUSH1 0xD ADD SWAP2 SWAP1 POP JUMP JUMPDEST PUSH1 0x0 DUP3 MLOAD PUSH2 0x41EB DUP2 DUP5 PUSH1 0x20 DUP8 ADD PUSH2 0x3AB9 JUMP JUMPDEST PUSH12 0x162224A9AA2924A12AAA27A9 PUSH1 0xA1 SHL SWAP3 ADD SWAP2 DUP3 MSTORE POP PUSH1 0xC ADD SWAP2 SWAP1 POP JUMP JUMPDEST PUSH1 0x0 DUP3 MLOAD PUSH2 0x421B DUP2 DUP5 PUSH1 0x20 DUP8 ADD PUSH2 0x3AB9 JUMP JUMPDEST PUSH9 0x162922AA20A4A622A9 PUSH1 0xB9 SHL SWAP3 ADD SWAP2 DUP3 MSTORE POP PUSH1 0x9 ADD SWAP2 SWAP1 POP JUMP JUMPDEST PUSH1 0x1 DUP2 DUP2 SHR SWAP1 DUP3 AND DUP1 PUSH2 0x424A JUMPI PUSH1 0x7F DUP3 AND SWAP2 POP JUMPDEST PUSH1 0x20 DUP3 LT DUP2 SUB PUSH2 0x426A JUMPI PUSH4 0x4E487B71 PUSH1 0xE0 SHL PUSH1 0x0 MSTORE PUSH1 0x22 PUSH1 0x4 MSTORE PUSH1 0x24 PUSH1 0x0 REVERT JUMPDEST POP SWAP2 SWAP1 POP JUMP JUMPDEST PUSH1 0x0 DUP3 MLOAD PUSH2 0x4282 DUP2 DUP5 PUSH1 0x20 DUP8 ADD PUSH2 0x3AB9 JUMP JUMPDEST SWAP2 SWAP1 SWAP2 ADD SWAP3 SWAP2 POP POP JUMP JUMPDEST PUSH1 0x0 PUSH1 0x1 DUP3 ADD PUSH2 0x42AC JUMPI PUSH4 0x4E487B71 PUSH1 0xE0 SHL PUSH1 0x0 MSTORE PUSH1 0x11 PUSH1 0x4 MSTORE PUSH1 0x24 PUSH1 0x0 REVERT JUMPDEST POP PUSH1 0x1 ADD SWAP1 JUMP JUMPDEST PUSH1 0x1F DUP3 GT ISZERO PUSH2 0xEE8 JUMPI PUSH1 0x0 DUP2 DUP2 MSTORE PUSH1 0x20 DUP2 KECCAK256 PUSH1 0x1F DUP6 ADD PUSH1 0x5 SHR DUP2 ADD PUSH1 0x20 DUP7 LT ISZERO PUSH2 0x42DA JUMPI POP DUP1 JUMPDEST PUSH1 0x1F DUP6 ADD PUSH1 0x5 SHR DUP3 ADD SWAP2 POP JUMPDEST DUP2 DUP2 LT ISZERO PUSH2 0x42F9 JUMPI DUP3 DUP2 SSTORE PUSH1 0x1 ADD PUSH2 0x42E6 JUMP JUMPDEST POP POP POP POP POP POP JUMP JUMPDEST DUP2 MLOAD PUSH8 0xFFFFFFFFFFFFFFFF DUP2 GT ISZERO PUSH2 0x431B JUMPI PUSH2 0x431B PUSH2 0x3B5F JUMP JUMPDEST PUSH2 0x432F DUP2 PUSH2 0x4329 DUP5 SLOAD PUSH2 0x4236 JUMP JUMPDEST DUP5 PUSH2 0x42B3 JUMP JUMPDEST PUSH1 0x20 DUP1 PUSH1 0x1F DUP4 GT PUSH1 0x1 DUP2 EQ PUSH2 0x4364 JUMPI PUSH1 0x0 DUP5 ISZERO PUSH2 0x434C JUMPI POP DUP6 DUP4 ADD MLOAD JUMPDEST PUSH1 0x0 NOT PUSH1 0x3 DUP7 SWAP1 SHL SHR NOT AND PUSH1 0x1 DUP6 SWAP1 SHL OR DUP6 SSTORE PUSH2 0x42F9 JUMP JUMPDEST PUSH1 0x0 DUP6 DUP2 MSTORE PUSH1 0x20 DUP2 KECCAK256 PUSH1 0x1F NOT DUP7 AND SWAP2 JUMPDEST DUP3 DUP2 LT ISZERO PUSH2 0x4393 JUMPI DUP9 DUP7 ADD MLOAD DUP3 SSTORE SWAP5 DUP5 ADD SWAP5 PUSH1 0x1 SWAP1 SWAP2 ADD SWAP1 DUP5 ADD PUSH2 0x4374 JUMP JUMPDEST POP DUP6 DUP3 LT ISZERO PUSH2 0x43B1 JUMPI DUP8 DUP6 ADD MLOAD PUSH1 0x0 NOT PUSH1 0x3 DUP9 SWAP1 SHL PUSH1 0xF8 AND SHR NOT AND DUP2 SSTORE JUMPDEST POP POP POP POP POP PUSH1 0x1 SWAP1 DUP2 SHL ADD SWAP1 SSTORE POP JUMP JUMPDEST PUSH1 0x60 DUP2 MSTORE PUSH1 0x0 PUSH2 0x43D4 PUSH1 0x60 DUP4 ADD DUP7 PUSH2 0x3ADD JUMP JUMPDEST DUP3 DUP2 SUB PUSH1 0x20 DUP5 ADD MSTORE PUSH2 0x43E6 DUP2 DUP7 PUSH2 0x3ADD JUMP JUMPDEST SWAP2 POP POP DUP3 PUSH1 0x40 DUP4 ADD MSTORE SWAP5 SWAP4 POP POP POP POP JUMP JUMPDEST PUSH2 0x4401 DUP2 DUP6 PUSH2 0x3D90 JUMP JUMPDEST PUSH1 0x60 PUSH1 0x20 DUP3 ADD MSTORE PUSH1 0x0 PUSH2 0x4417 PUSH1 0x60 DUP4 ADD DUP6 PUSH2 0x3ADD JUMP JUMPDEST SWAP1 POP DUP3 PUSH1 0x40 DUP4 ADD MSTORE SWAP5 SWAP4 POP POP POP POP JUMP JUMPDEST PUSH1 0x20 DUP1 DUP3 MSTORE PUSH1 0x16 SWAP1 DUP3 ADD MSTORE PUSH22 0x141C9BD91D58DD08191BD95CC81B9BDD08195E1A5CDD PUSH1 0x52 SHL PUSH1 0x40 DUP3 ADD MSTORE PUSH1 0x60 ADD SWAP1 JUMP JUMPDEST PUSH4 0x4E487B71 PUSH1 0xE0 SHL PUSH1 0x0 MSTORE PUSH1 0x32 PUSH1 0x4 MSTORE PUSH1 0x24 PUSH1 0x0 REVERT JUMPDEST PUSH1 0x20 DUP1 DUP3 MSTORE PUSH1 0xD SWAP1 DUP3 ADD MSTORE PUSH13 0x2737BA103A34329037BBB732B9 PUSH1 0x99 SHL PUSH1 0x40 DUP3 ADD MSTORE PUSH1 0x60 ADD SWAP1 JUMP JUMPDEST PUSH1 0x20 DUP1 DUP3 MSTORE PUSH1 0xD SWAP1 DUP3 ADD MSTORE PUSH13 0x496E76616C6964207374616765 PUSH1 0x98 SHL PUSH1 0x40 DUP3 ADD MSTORE PUSH1 0x60 ADD SWAP1 JUMP JUMPDEST PUSH1 0x40 DUP2 ADD PUSH2 0x44C9 DUP3 DUP6 PUSH2 0x3D90 JUMP JUMPDEST DUP3 PUSH1 0x20 DUP4 ADD MSTORE SWAP4 SWAP3 POP POP POP JUMP JUMPDEST PUSH1 0x1 PUSH1 0x1 PUSH1 0xA0 SHL SUB DUP6 DUP2 AND DUP3 MSTORE DUP5 AND PUSH1 0x20 DUP3 ADD MSTORE PUSH1 0x40 DUP2 ADD DUP4 SWAP1 MSTORE PUSH1 0x80 PUSH1 0x60 DUP3 ADD DUP2 SWAP1 MSTORE PUSH1 0x0 SWAP1 PUSH2 0x4509 SWAP1 DUP4 ADD DUP5 PUSH2 0x3ADD JUMP JUMPDEST SWAP7 SWAP6 POP POP POP POP POP POP JUMP JUMPDEST PUSH1 0x0 PUSH1 0x20 DUP3 DUP5 SUB SLT ISZERO PUSH2 0x4525 JUMPI PUSH1 0x0 DUP1 REVERT JUMPDEST DUP2 MLOAD PUSH2 0xC71 DUP2 PUSH2 0x3A4F JUMP JUMPDEST PUSH1 0x0 DUP4 MLOAD PUSH2 0x4542 DUP2 DUP5 PUSH1 0x20 DUP9 ADD PUSH2 0x3AB9 JUMP JUMPDEST DUP4 MLOAD SWAP1 DUP4 ADD SWAP1 PUSH2 0x4556 DUP2 DUP4 PUSH1 0x20 DUP9 ADD PUSH2 0x3AB9 JUMP JUMPDEST ADD SWAP5 SWAP4 POP POP POP POP JUMP INVALID 0xEE 0xFB SWAP6 0xE8 TIMESTAMP LOG3 0x28 PUSH18 0x79D933B4460BE539A1D5AF11AA8B325BB45C 0x5C DUP14 0xC9 0x2D 0xE4 0xED 0xFB 0xD4 SLOAD RETURN PUSH11 0x7E1A388BD6FC3AB10D434A LOG4 JUMPI DUP16 DUP2 BYTE 0xCB 0xBC RETURN GASPRICE 0xFB SHR PUSH10 0x7486313C2A5F906C256A 0x5D PUSH26 0x9494FCD066E1F6C077689DE1CDB65052A1624DE4BACE99BFA498 SMOD KECCAK256 0x5C 0xE4 0xD3 SSTORE MULMOD 0x2E CREATE2 0xA8 LOG1 DUP16 JUMP 0xE8 SWAP2 EXTCODECOPY DELEGATECALL LOG2 ADD 0xFB 0xE2 DUP8 DUP3 JUMPDEST MULMOD JUMP SWAP4 0xC2 OR PUSH22 0x7611E28780C0C8D39F1B6C14D9B288E25D9F96119DE9 PUSH16 0x9B070AA68731089AC5A2646970667358 0x22 SLT KECCAK256 0xD5 0xBC 0xD1 SWAP11 MUL 0xC7 0x21 DUP12 0x2B PUSH30 0x5B5B1F6BB84B6589290E0D56967C409AAC47B09953DA64736F6C63430008 EQ STOP CALLER "},"methodIdentifiers":{"ADMIN_ROLE()":"75b238fc","DEFAULT_ADMIN_ROLE()":"a217fddf","DISTRIBUTOR_ROLE()":"f0bd87cc","MANUFACTURER_ROLE()":"965288b0","RETAILER_ROLE()":"2115e7bf","approve(address,uint256)":"095ea7b3","assignRole(bytes32,address)":"30a727b3","balanceOf(address)":"70a08231","checkRole(bytes32,address)":"12d9a6ad","getApproved(uint256)":"081812fc","getCheckpointCount(uint256)":"73ec5a5b","getFullProductHistory(uint256)":"d0b6d478","getProduct(uint256)":"b9db15b4","getProductHistory(uint256)":"57a096a1","getRoleAdmin(bytes32)":"248a9ca3","getTokenIdByProductId(string)":"10b995b1","getUserRole(address)":"27820851","getUserRoles(address)":"06a36aee","grantRole(bytes32,address)":"2f2ff15d","hasRole(bytes32,address)":"91d14854","isApprovedForAll(address,address)":"e985e9c5","mintProduct(string,string,string,string,string)":"0e1b4e99","name()":"06fdde03","ownerOf(uint256)":"6352211e","productCheckpoints(uint256,uint256)":"e26c9098","productIdToTokenId(string)":"3a7d5d23","products(uint256)":"7acc0b20","renounceRole(bytes32,address)":"36568abe","revokeRole(bytes32,address)":"d547741f","safeTransferFrom(address,address,uint256)":"42842e0e","safeTransferFrom(address,address,uint256,bytes)":"b88d4fde","sellToConsumer(uint256,address,string,string)":"7e739d7e","setApprovalForAll(address,bool)":"a22cb465","supportsInterface(bytes4)":"01ffc9a7","symbol()":"95d89b41","tokenURI(uint256)":"c87b56dd","transferFrom(address,address,uint256)":"23b872dd","transferToDistributor(uint256,address,string,string)":"e96b878f","transferToRetailer(uint256,address,string,string)":"cc492254"}}}}}