{
  "_format": "hh-sol-artifact-1",
  "contractName": "SupplyChainNFT",
  "sourceName": "contracts/TraceXNFT.sol",
  "abi": [
    {
      "inputs": [],
      "stateMutability": "nonpayable",
      "type": "constructor"
    },
    {
      "inputs": [],
      "name": "AccessControlBadConfirmation",
      "type": "error"
    },
    {
      "inputs": [
        {
          "internalType": "address",
          "name": "account",
          "type": "address"
        },
        {
          "internalType": "bytes32",
          "name": "neededRole",
          "type": "bytes32"
        }
      ],
      "name": "AccessControlUnauthorizedAccount",
      "type": "error"
    },
    {
      "inputs": [
        {
          "internalType": "address",
          "name": "sender",
          "type": "address"
        },
        {
          "internalType": "uint256",
          "name": "tokenId",
          "type": "uint256"
        },
        {
          "internalType": "address",
          "name": "owner",
          "type": "address"
        }
      ],
      "name": "ERC721IncorrectOwner",
      "type": "error"
    },
    {
      "inputs": [
        {
          "internalType": "address",
          "name": "operator",
          "type": "address"
        },
        {
          "internalType": "uint256",
          "name": "tokenId",
          "type": "uint256"
        }
      ],
      "name": "ERC721InsufficientApproval",
      "type": "error"
    },
    {
      "inputs": [
        {
          "internalType": "address",
          "name": "approver",
          "type": "address"
        }
      ],
      "name": "ERC721InvalidApprover",
      "type": "error"
    },
    {
      "inputs": [
        {
          "internalType": "address",
          "name": "operator",
          "type": "address"
        }
      ],
      "name": "ERC721InvalidOperator",
      "type": "error"
    },
    {
      "inputs": [
        {
          "internalType": "address",
          "name": "owner",
          "type": "address"
        }
      ],
      "name": "ERC721InvalidOwner",
      "type": "error"
    },
    {
      "inputs": [
        {
          "internalType": "address",
          "name": "receiver",
          "type": "address"
        }
      ],
      "name": "ERC721InvalidReceiver",
      "type": "error"
    },
    {
      "inputs": [
        {
          "internalType": "address",
          "name": "sender",
          "type": "address"
        }
      ],
      "name": "ERC721InvalidSender",
      "type": "error"
    },
    {
      "inputs": [
        {
          "internalType": "uint256",
          "name": "tokenId",
          "type": "uint256"
        }
      ],
      "name": "ERC721NonexistentToken",
      "type": "error"
    },
    {
      "anonymous": false,
      "inputs": [
        {
          "indexed": true,
          "internalType": "address",
          "name": "owner",
          "type": "address"
        },
        {
          "indexed": true,
          "internalType": "address",
          "name": "approved",
          "type": "address"
        },
        {
          "indexed": true,
          "internalType": "uint256",
          "name": "tokenId",
          "type": "uint256"
        }
      ],
      "name": "Approval",
      "type": "event"
    },
    {
      "anonymous": false,
      "inputs": [
        {
          "indexed": true,
          "internalType": "address",
          "name": "owner",
          "type": "address"
        },
        {
          "indexed": true,
          "internalType": "address",
          "name": "operator",
          "type": "address"
        },
        {
          "indexed": false,
          "internalType": "bool",
          "name": "approved",
          "type": "bool"
        }
      ],
      "name": "ApprovalForAll",
      "type": "event"
    },
    {
      "anonymous": false,
      "inputs": [
        {
          "indexed": false,
          "internalType": "uint256",
          "name": "_fromTokenId",
          "type": "uint256"
        },
        {
          "indexed": false,
          "internalType": "uint256",
          "name": "_toTokenId",
          "type": "uint256"
        }
      ],
      "name": "BatchMetadataUpdate",
      "type": "event"
    },
    {
      "anonymous": false,
      "inputs": [
        {
          "indexed": true,
          "internalType": "uint256",
          "name": "tokenId",
          "type": "uint256"
        },
        {
          "indexed": false,
          "internalType": "enum SupplyChainNFT.Stage",
          "name": "stage",
          "type": "uint8"
        },
        {
          "indexed": false,
          "internalType": "string",
          "name": "location",
          "type": "string"
        },
        {
          "indexed": true,
          "internalType": "address",
          "name": "handler",
          "type": "address"
        },
        {
          "indexed": false,
          "internalType": "uint256",
          "name": "timestamp",
          "type": "uint256"
        }
      ],
      "name": "CheckpointAdded",
      "type": "event"
    },
    {
      "anonymous": false,
      "inputs": [
        {
          "indexed": false,
          "internalType": "uint256",
          "name": "_tokenId",
          "type": "uint256"
        }
      ],
      "name": "MetadataUpdate",
      "type": "event"
    },
    {
      "anonymous": false,
      "inputs": [
        {
          "indexed": true,
          "internalType": "uint256",
          "name": "tokenId",
          "type": "uint256"
        },
        {
          "indexed": false,
          "internalType": "string",
          "name": "productId",
          "type": "string"
        },
        {
          "indexed": false,
          "internalType": "string",
          "name": "batchNumber",
          "type": "string"
        },
        {
          "indexed": true,
          "internalType": "address",
          "name": "manufacturer",
          "type": "address"
        },
        {
          "indexed": false,
          "internalType": "uint256",
          "name": "timestamp",
          "type": "uint256"
        }
      ],
      "name": "ProductMinted",
      "type": "event"
    },
    {
      "anonymous": false,
      "inputs": [
        {
          "indexed": true,
          "internalType": "uint256",
          "name": "tokenId",
          "type": "uint256"
        },
        {
          "indexed": true,
          "internalType": "address",
          "name": "from",
          "type": "address"
        },
        {
          "indexed": true,
          "internalType": "address",
          "name": "to",
          "type": "address"
        },
        {
          "indexed": false,
          "internalType": "enum SupplyChainNFT.Stage",
          "name": "newStage",
          "type": "uint8"
        },
        {
          "indexed": false,
          "internalType": "uint256",
          "name": "timestamp",
          "type": "uint256"
        }
      ],
      "name": "ProductTransferred",
      "type": "event"
    },
    {
      "anonymous": false,
      "inputs": [
        {
          "indexed": true,
          "internalType": "bytes32",
          "name": "role",
          "type": "bytes32"
        },
        {
          "indexed": true,
          "internalType": "bytes32",
          "name": "previousAdminRole",
          "type": "bytes32"
        },
        {
          "indexed": true,
          "internalType": "bytes32",
          "name": "newAdminRole",
          "type": "bytes32"
        }
      ],
      "name": "RoleAdminChanged",
      "type": "event"
    },
    {
      "anonymous": false,
      "inputs": [
        {
          "indexed": true,
          "internalType": "bytes32",
          "name": "role",
          "type": "bytes32"
        },
        {
          "indexed": true,
          "internalType": "address",
          "name": "account",
          "type": "address"
        },
        {
          "indexed": true,
          "internalType": "address",
          "name": "sender",
          "type": "address"
        }
      ],
      "name": "RoleGranted",
      "type": "event"
    },
    {
      "anonymous": false,
      "inputs": [
        {
          "indexed": true,
          "internalType": "bytes32",
          "name": "role",
          "type": "bytes32"
        },
        {
          "indexed": true,
          "internalType": "address",
          "name": "account",
          "type": "address"
        },
        {
          "indexed": true,
          "internalType": "address",
          "name": "sender",
          "type": "address"
        }
      ],
      "name": "RoleGrantedToUser",
      "type": "event"
    },
    {
      "anonymous": false,
      "inputs": [
        {
          "indexed": true,
          "internalType": "bytes32",
          "name": "role",
          "type": "bytes32"
        },
        {
          "indexed": true,
          "internalType": "address",
          "name": "account",
          "type": "address"
        },
        {
          "indexed": true,
          "internalType": "address",
          "name": "sender",
          "type": "address"
        }
      ],
      "name": "RoleRevoked",
      "type": "event"
    },
    {
      "anonymous": false,
      "inputs": [
        {
          "indexed": true,
          "internalType": "address",
          "name": "from",
          "type": "address"
        },
        {
          "indexed": true,
          "internalType": "address",
          "name": "to",
          "type": "address"
        },
        {
          "indexed": true,
          "internalType": "uint256",
          "name": "tokenId",
          "type": "uint256"
        }
      ],
      "name": "Transfer",
      "type": "event"
    },
    {
      "inputs": [],
      "name": "ADMIN_ROLE",
      "outputs": [
        {
          "internalType": "bytes32",
          "name": "",
          "type": "bytes32"
        }
      ],
      "stateMutability": "view",
      "type": "function"
    },
    {
      "inputs": [],
      "name": "DEFAULT_ADMIN_ROLE",
      "outputs": [
        {
          "internalType": "bytes32",
          "name": "",
          "type": "bytes32"
        }
      ],
      "stateMutability": "view",
      "type": "function"
    },
    {
      "inputs": [],
      "name": "DISTRIBUTOR_ROLE",
      "outputs": [
        {
          "internalType": "bytes32",
          "name": "",
          "type": "bytes32"
        }
      ],
      "stateMutability": "view",
      "type": "function"
    },
    {
      "inputs": [],
      "name": "MANUFACTURER_ROLE",
      "outputs": [
        {
          "internalType": "bytes32",
          "name": "",
          "type": "bytes32"
        }
      ],
      "stateMutability": "view",
      "type": "function"
    },
    {
      "inputs": [],
      "name": "RETAILER_ROLE",
      "outputs": [
        {
          "internalType": "bytes32",
          "name": "",
          "type": "bytes32"
        }
      ],
      "stateMutability": "view",
      "type": "function"
    },
    {
      "inputs": [
        {
          "internalType": "address",
          "name": "to",
          "type": "address"
        },
        {
          "internalType": "uint256",
          "name": "tokenId",
          "type": "uint256"
        }
      ],
      "name": "approve",
      "outputs": [],
      "stateMutability": "nonpayable",
      "type": "function"
    },
    {
      "inputs": [
        {
          "internalType": "bytes32",
          "name": "role",
          "type": "bytes32"
        },
        {
          "internalType": "address",
          "name": "account",
          "type": "address"
        }
      ],
      "name": "assignRole",
      "outputs": [],
      "stateMutability": "nonpayable",
      "type": "function"
    },
    {
      "inputs": [
        {
          "internalType": "address",
          "name": "owner",
          "type": "address"
        }
      ],
      "name": "balanceOf",
      "outputs": [
        {
          "internalType": "uint256",
          "name": "",
          "type": "uint256"
        }
      ],
      "stateMutability": "view",
      "type": "function"
    },
    {
      "inputs": [
        {
          "internalType": "bytes32",
          "name": "role",
          "type": "bytes32"
        },
        {
          "internalType": "address",
          "name": "account",
          "type": "address"
        }
      ],
      "name": "checkRole",
      "outputs": [
        {
          "internalType": "bool",
          "name": "",
          "type": "bool"
        }
      ],
      "stateMutability": "view",
      "type": "function"
    },
    {
      "inputs": [
        {
          "internalType": "uint256",
          "name": "tokenId",
          "type": "uint256"
        }
      ],
      "name": "getApproved",
      "outputs": [
        {
          "internalType": "address",
          "name": "",
          "type": "address"
        }
      ],
      "stateMutability": "view",
      "type": "function"
    },
    {
      "inputs": [
        {
          "internalType": "uint256",
          "name": "tokenId",
          "type": "uint256"
        }
      ],
      "name": "getCheckpointCount",
      "outputs": [
        {
          "internalType": "uint256",
          "name": "",
          "type": "uint256"
        }
      ],
      "stateMutability": "view",
      "type": "function"
    },
    {
      "inputs": [
        {
          "internalType": "uint256",
          "name": "tokenId",
          "type": "uint256"
        }
      ],
      "name": "getFullProductHistory",
      "outputs": [
        {
          "components": [
            {
              "internalType": "string",
              "name": "productId",
              "type": "string"
            },
            {
              "internalType": "string",
              "name": "batchNumber",
              "type": "string"
            },
            {
              "internalType": "uint256",
              "name": "timestamp",
              "type": "uint256"
            },
            {
              "internalType": "string",
              "name": "location",
              "type": "string"
            },
            {
              "internalType": "enum SupplyChainNFT.Stage",
              "name": "stage",
              "type": "uint8"
            },
            {
              "internalType": "address",
              "name": "handler",
              "type": "address"
            },
            {
              "internalType": "string",
              "name": "notes",
              "type": "string"
            }
          ],
          "internalType": "struct SupplyChainNFT.Checkpoint[]",
          "name": "",
          "type": "tuple[]"
        }
      ],
      "stateMutability": "view",
      "type": "function"
    },
    {
      "inputs": [
        {
          "internalType": "uint256",
          "name": "tokenId",
          "type": "uint256"
        }
      ],
      "name": "getProduct",
      "outputs": [
        {
          "components": [
            {
              "internalType": "string",
              "name": "productId",
              "type": "string"
            },
            {
              "internalType": "string",
              "name": "batchNumber",
              "type": "string"
            },
            {
              "internalType": "uint256",
              "name": "manufacturingDate",
              "type": "uint256"
            },
            {
              "internalType": "string",
              "name": "manufacturingLocation",
              "type": "string"
            },
            {
              "internalType": "enum SupplyChainNFT.Stage",
              "name": "currentStage",
              "type": "uint8"
            },
            {
              "internalType": "address",
              "name": "currentOwner",
              "type": "address"
            },
            {
              "internalType": "bool",
              "name": "exists",
              "type": "bool"
            }
          ],
          "internalType": "struct SupplyChainNFT.Product",
          "name": "",
          "type": "tuple"
        }
      ],
      "stateMutability": "view",
      "type": "function"
    },
    {
      "inputs": [
        {
          "internalType": "uint256",
          "name": "tokenId",
          "type": "uint256"
        }
      ],
      "name": "getProductHistory",
      "outputs": [
        {
          "components": [
            {
              "internalType": "string",
              "name": "productId",
              "type": "string"
            },
            {
              "internalType": "string",
              "name": "batchNumber",
              "type": "string"
            },
            {
              "internalType": "uint256",
              "name": "timestamp",
              "type": "uint256"
            },
            {
              "internalType": "string",
              "name": "location",
              "type": "string"
            },
            {
              "internalType": "enum SupplyChainNFT.Stage",
              "name": "stage",
              "type": "uint8"
            },
            {
              "internalType": "address",
              "name": "handler",
              "type": "address"
            },
            {
              "internalType": "string",
              "name": "notes",
              "type": "string"
            }
          ],
          "internalType": "struct SupplyChainNFT.Checkpoint[]",
          "name": "",
          "type": "tuple[]"
        }
      ],
      "stateMutability": "view",
      "type": "function"
    },
    {
      "inputs": [
        {
          "internalType": "bytes32",
          "name": "role",
          "type": "bytes32"
        }
      ],
      "name": "getRoleAdmin",
      "outputs": [
        {
          "internalType": "bytes32",
          "name": "",
          "type": "bytes32"
        }
      ],
      "stateMutability": "view",
      "type": "function"
    },
    {
      "inputs": [
        {
          "internalType": "string",
          "name": "productId",
          "type": "string"
        }
      ],
      "name": "getTokenIdByProductId",
      "outputs": [
        {
          "internalType": "uint256",
          "name": "",
          "type": "uint256"
        }
      ],
      "stateMutability": "view",
      "type": "function"
    },
    {
      "inputs": [
        {
          "internalType": "address",
          "name": "account",
          "type": "address"
        }
      ],
      "name": "getUserRole",
      "outputs": [
        {
          "internalType": "string",
          "name": "",
          "type": "string"
        }
      ],
      "stateMutability": "view",
      "type": "function"
    },
    {
      "inputs": [
        {
          "internalType": "address",
          "name": "account",
          "type": "address"
        }
      ],
      "name": "getUserRoles",
      "outputs": [
        {
          "internalType": "string",
          "name": "",
          "type": "string"
        }
      ],
      "stateMutability": "view",
      "type": "function"
    },
    {
      "inputs": [
        {
          "internalType": "bytes32",
          "name": "role",
          "type": "bytes32"
        },
        {
          "internalType": "address",
          "name": "account",
          "type": "address"
        }
      ],
      "name": "grantRole",
      "outputs": [],
      "stateMutability": "nonpayable",
      "type": "function"
    },
    {
      "inputs": [
        {
          "internalType": "bytes32",
          "name": "role",
          "type": "bytes32"
        },
        {
          "internalType": "address",
          "name": "account",
          "type": "address"
        }
      ],
      "name": "hasRole",
      "outputs": [
        {
          "internalType": "bool",
          "name": "",
          "type": "bool"
        }
      ],
      "stateMutability": "view",
      "type": "function"
    },
    {
      "inputs": [
        {
          "internalType": "address",
          "name": "owner",
          "type": "address"
        },
        {
          "internalType": "address",
          "name": "operator",
          "type": "address"
        }
      ],
      "name": "isApprovedForAll",
      "outputs": [
        {
          "internalType": "bool",
          "name": "",
          "type": "bool"
        }
      ],
      "stateMutability": "view",
      "type": "function"
    },
    {
      "inputs": [
        {
          "internalType": "string",
          "name": "productId",
          "type": "string"
        },
        {
          "internalType": "string",
          "name": "batchNumber",
          "type": "string"
        },
        {
          "internalType": "string",
          "name": "location",
          "type": "string"
        },
        {
          "internalType": "string",
          "name": "tokenURI",
          "type": "string"
        },
        {
          "internalType": "string",
          "name": "notes",
          "type": "string"
        }
      ],
      "name": "mintProduct",
      "outputs": [
        {
          "internalType": "uint256",
          "name": "",
          "type": "uint256"
        }
      ],
      "stateMutability": "nonpayable",
      "type": "function"
    },
    {
      "inputs": [],
      "name": "name",
      "outputs": [
        {
          "internalType": "string",
          "name": "",
          "type": "string"
        }
      ],
      "stateMutability": "view",
      "type": "function"
    },
    {
      "inputs": [
        {
          "internalType": "uint256",
          "name": "tokenId",
          "type": "uint256"
        }
      ],
      "name": "ownerOf",
      "outputs": [
        {
          "internalType": "address",
          "name": "",
          "type": "address"
        }
      ],
      "stateMutability": "view",
      "type": "function"
    },
    {
      "inputs": [
        {
          "internalType": "uint256",
          "name": "",
          "type": "uint256"
        },
        {
          "internalType": "uint256",
          "name": "",
          "type": "uint256"
        }
      ],
      "name": "productCheckpoints",
      "outputs": [
        {
          "internalType": "string",
          "name": "productId",
          "type": "string"
        },
        {
          "internalType": "string",
          "name": "batchNumber",
          "type": "string"
        },
        {
          "internalType": "uint256",
          "name": "timestamp",
          "type": "uint256"
        },
        {
          "internalType": "string",
          "name": "location",
          "type": "string"
        },
        {
          "internalType": "enum SupplyChainNFT.Stage",
          "name": "stage",
          "type": "uint8"
        },
        {
          "internalType": "address",
          "name": "handler",
          "type": "address"
        },
        {
          "internalType": "string",
          "name": "notes",
          "type": "string"
        }
      ],
      "stateMutability": "view",
      "type": "function"
    },
    {
      "inputs": [
        {
          "internalType": "string",
          "name": "",
          "type": "string"
        }
      ],
      "name": "productIdToTokenId",
      "outputs": [
        {
          "internalType": "uint256",
          "name": "",
          "type": "uint256"
        }
      ],
      "stateMutability": "view",
      "type": "function"
    },
    {
      "inputs": [
        {
          "internalType": "uint256",
          "name": "",
          "type": "uint256"
        }
      ],
      "name": "products",
      "outputs": [
        {
          "internalType": "string",
          "name": "productId",
          "type": "string"
        },
        {
          "internalType": "string",
          "name": "batchNumber",
          "type": "string"
        },
        {
          "internalType": "uint256",
          "name": "manufacturingDate",
          "type": "uint256"
        },
        {
          "internalType": "string",
          "name": "manufacturingLocation",
          "type": "string"
        },
        {
          "internalType": "enum SupplyChainNFT.Stage",
          "name": "currentStage",
          "type": "uint8"
        },
        {
          "internalType": "address",
          "name": "currentOwner",
          "type": "address"
        },
        {
          "internalType": "bool",
          "name": "exists",
          "type": "bool"
        }
      ],
      "stateMutability": "view",
      "type": "function"
    },
    {
      "inputs": [
        {
          "internalType": "bytes32",
          "name": "role",
          "type": "bytes32"
        },
        {
          "internalType": "address",
          "name": "callerConfirmation",
          "type": "address"
        }
      ],
      "name": "renounceRole",
      "outputs": [],
      "stateMutability": "nonpayable",
      "type": "function"
    },
    {
      "inputs": [
        {
          "internalType": "bytes32",
          "name": "role",
          "type": "bytes32"
        },
        {
          "internalType": "address",
          "name": "account",
          "type": "address"
        }
      ],
      "name": "revokeRole",
      "outputs": [],
      "stateMutability": "nonpayable",
      "type": "function"
    },
    {
      "inputs": [
        {
          "internalType": "address",
          "name": "from",
          "type": "address"
        },
        {
          "internalType": "address",
          "name": "to",
          "type": "address"
        },
        {
          "internalType": "uint256",
          "name": "tokenId",
          "type": "uint256"
        }
      ],
      "name": "safeTransferFrom",
      "outputs": [],
      "stateMutability": "nonpayable",
      "type": "function"
    },
    {
      "inputs": [
        {
          "internalType": "address",
          "name": "from",
          "type": "address"
        },
        {
          "internalType": "address",
          "name": "to",
          "type": "address"
        },
        {
          "internalType": "uint256",
          "name": "tokenId",
          "type": "uint256"
        },
        {
          "internalType": "bytes",
          "name": "data",
          "type": "bytes"
        }
      ],
      "name": "safeTransferFrom",
      "outputs": [],
      "stateMutability": "nonpayable",
      "type": "function"
    },
    {
      "inputs": [
        {
          "internalType": "uint256",
          "name": "tokenId",
          "type": "uint256"
        },
        {
          "internalType": "address",
          "name": "consumer",
          "type": "address"
        },
        {
          "internalType": "string",
          "name": "location",
          "type": "string"
        },
        {
          "internalType": "string",
          "name": "notes",
          "type": "string"
        }
      ],
      "name": "sellToConsumer",
      "outputs": [],
      "stateMutability": "nonpayable",
      "type": "function"
    },
    {
      "inputs": [
        {
          "internalType": "address",
          "name": "operator",
          "type": "address"
        },
        {
          "internalType": "bool",
          "name": "approved",
          "type": "bool"
        }
      ],
      "name": "setApprovalForAll",
      "outputs": [],
      "stateMutability": "nonpayable",
      "type": "function"
    },
    {
      "inputs": [
        {
          "internalType": "bytes4",
          "name": "interfaceId",
          "type": "bytes4"
        }
      ],
      "name": "supportsInterface",
      "outputs": [
        {
          "internalType": "bool",
          "name": "",
          "type": "bool"
        }
      ],
      "stateMutability": "view",
      "type": "function"
    },
    {
      "inputs": [],
      "name": "symbol",
      "outputs": [
        {
          "internalType": "string",
          "name": "",
          "type": "string"
        }
      ],
      "stateMutability": "view",
      "type": "function"
    },
    {
      "inputs": [
        {
          "internalType": "uint256",
          "name": "tokenId",
          "type": "uint256"
        }
      ],
      "name": "tokenURI",
      "outputs": [
        {
          "internalType": "string",
          "name": "",
          "type": "string"
        }
      ],
      "stateMutability": "view",
      "type": "function"
    },
    {
      "inputs": [
        {
          "internalType": "address",
          "name": "from",
          "type": "address"
        },
        {
          "internalType": "address",
          "name": "to",
          "type": "address"
        },
        {
          "internalType": "uint256",
          "name": "tokenId",
          "type": "uint256"
        }
      ],
      "name": "transferFrom",
      "outputs": [],
      "stateMutability": "nonpayable",
      "type": "function"
    },
    {
      "inputs": [
        {
          "internalType": "uint256",
          "name": "tokenId",
          "type": "uint256"
        },
        {
          "internalType": "address",
          "name": "distributor",
          "type": "address"
        },
        {
          "internalType": "string",
          "name": "location",
          "type": "string"
        },
        {
          "internalType": "string",
          "name": "notes",
          "type": "string"
        }
      ],
      "name": "transferToDistributor",
      "outputs": [],
      "stateMutability": "nonpayable",
      "type": "function"
    },
    {
      "inputs": [
        {
          "internalType": "uint256",
          "name": "tokenId",
          "type": "uint256"
        },
        {
          "internalType": "address",
          "name": "retailer",
          "type": "address"
        },
        {
          "internalType": "string",
          "name": "location",
          "type": "string"
        },
        {
          "internalType": "string",
          "name": "notes",
          "type": "string"
        }
      ],
      "name": "transferToRetailer",
      "outputs": [],
      "stateMutability": "nonpayable",
      "type": "function"
    }
  ],
  "bytecode": "0x60806040523480156200001157600080fd5b506040518060400160405280601281526020017114dd5c1c1b1e50da185a5b941c9bd91d58dd60721b8152506040518060400160405280600381526020016205343560ec1b81525081600090816200006a919062000217565b50600162000079828262000217565b506200008b91506000905033620000bf565b50620000b87fa49807205ce4d355092ef5a8a18f56e8913cf4a201fbe287825b095693c2177533620000bf565b50620002e3565b60008281526007602090815260408083206001600160a01b038516845290915281205460ff16620001685760008381526007602090815260408083206001600160a01b03861684529091529020805460ff191660011790556200011f3390565b6001600160a01b0316826001600160a01b0316847f2f8788117e7eff1d82e926ec794901d17c78024a50270940304540a733656f0d60405160405180910390a45060016200016c565b5060005b92915050565b634e487b7160e01b600052604160045260246000fd5b600181811c908216806200019d57607f821691505b602082108103620001be57634e487b7160e01b600052602260045260246000fd5b50919050565b601f8211156200021257600081815260208120601f850160051c81016020861015620001ed5750805b601f850160051c820191505b818110156200020e57828155600101620001f9565b5050505b505050565b81516001600160401b0381111562000233576200023362000172565b6200024b8162000244845462000188565b84620001c4565b602080601f8311600181146200028357600084156200026a5750858301515b600019600386901b1c1916600185901b1785556200020e565b600085815260208120601f198616915b82811015620002b45788860151825594840194600190910190840162000293565b5085821015620002d35787850151600019600388901b60f8161c191681555b5050505050600190811b01905550565b61463580620002f36000396000f3fe608060405234801561001057600080fd5b506004361061023d5760003560e01c806370a082311161013b578063b88d4fde116100b8578063d547741f1161007c578063d547741f1461054c578063e26c90981461055f578063e96b878f14610585578063e985e9c514610598578063f0bd87cc146105ab57600080fd5b8063b88d4fde146104e0578063b9db15b4146104f3578063c87b56dd14610513578063cc49225414610526578063d0b6d4781461053957600080fd5b806391d14854116100ff57806391d148541461049557806395d89b41146104a8578063965288b0146104b0578063a217fddf146104c5578063a22cb465146104cd57600080fd5b806370a082311461042157806373ec5a5b1461043457806375b238fc146104475780637acc0b201461045c5780637e739d7e1461048257600080fd5b806323b872dd116101c957806336568abe1161018d57806336568abe1461039d5780633a7d5d23146103b057806342842e0e146103db57806357a096a1146103ee5780636352211e1461040e57600080fd5b806323b872dd1461032e578063248a9ca31461034157806327820851146103645780632f2ff15d1461037757806330a727b31461038a57600080fd5b8063095ea7b311610210578063095ea7b3146102bd5780630e1b4e99146102d257806310b995b1146102f357806312d9a6ad146103065780632115e7bf1461031957600080fd5b806301ffc9a71461024257806306a36aee1461026a57806306fdde031461028a578063081812fc14610292575b600080fd5b610255610250366004613a65565b6105c0565b60405190151581526020015b60405180910390f35b61027d610278366004613a9e565b6105d1565b6040516102619190613b09565b61027d6107b3565b6102a56102a0366004613b1c565b610845565b6040516001600160a01b039091168152602001610261565b6102d06102cb366004613b35565b61086e565b005b6102e56102e0366004613c0b565b61087d565b604051908152602001610261565b6102e5610301366004613cdd565b610bfd565b610255610314366004613d12565b610c65565b6102e56000805160206145a083398151915281565b6102d061033c366004613d3e565b610c78565b6102e561034f366004613b1c565b60009081526007602052604090206001015490565b61027d610372366004613a9e565b610d03565b6102d0610385366004613d12565b610e31565b6102d0610398366004613d12565b610e56565b6102d06103ab366004613d12565b610eb5565b6102e56103be366004613cdd565b8051602081830181018051600b8252928201919093012091525481565b6102d06103e9366004613d3e565b610eed565b6104016103fc366004613b1c565b610f08565b6040516102619190613db2565b6102a561041c366004613b1c565b611638565b6102e561042f366004613a9e565b611643565b6102e5610442366004613b1c565b61168b565b6102e56000805160206145c083398151915281565b61046f61046a366004613b1c565b6116d6565b6040516102619796959493929190613ea0565b6102d0610490366004613f12565b6118ba565b6102556104a3366004613d12565b611c93565b61027d611cbe565b6102e560008051602061456083398151915281565b6102e5600081565b6102d06104db366004613f90565b611ccd565b6102d06104ee366004613fcc565b611cd8565b610506610501366004613b1c565b611cef565b604051610261919061403c565b61027d610521366004613b1c565b611f6a565b6102d0610534366004613f12565b611f75565b610401610547366004613b1c565b6123a4565b6102d061055a366004613d12565b61276f565b61057261056d3660046140df565b612794565b6040516102619796959493929190614101565b6102d0610593366004613f12565b612a23565b6102556105a636600461417e565b612e52565b6102e560008051602061458083398151915281565b60006105cb82612e80565b92915050565b60408051602081019091526000815260609060016105fd6000805160206145c083398151915285611c93565b1561062357505060408051808201909152600581526420a226a4a760d91b602082015260005b61063b60008051602061456083398151915285611c93565b15610697578061066a578160405160200161065691906141a8565b604051602081830303815290604052610690565b6040518060400160405280600c81526020016b26a0a72aa320a1aa2aa922a960a11b8152505b9150600090505b6106af60008051602061458083398151915285611c93565b1561070a57806106de57816040516020016106ca91906141d9565b604051602081830303815290604052610703565b6040518060400160405280600b81526020016a2224a9aa2924a12aaa27a960a91b8152505b9150600090505b6107226000805160206145a083398151915285611c93565b1561077a5780610751578160405160200161073d9190614209565b604051602081830303815290604052610773565b604051806040016040528060088152602001672922aa20a4a622a960c11b8152505b9150600090505b60008251116107a9576040518060400160405280600881526020016721a7a729aaa6a2a960c11b8152506107ab565b815b949350505050565b6060600080546107c290614236565b80601f01602080910402602001604051908101604052809291908181526020018280546107ee90614236565b801561083b5780601f106108105761010080835404028352916020019161083b565b820191906000526020600020905b81548152906001019060200180831161081e57829003601f168201915b5050505050905090565b600061085082612ea5565b506000828152600460205260409020546001600160a01b03166105cb565b610879828233612ede565b5050565b600060008051602061456083398151915261089781612eeb565b600b876040516108a79190614270565b90815260200160405180910390205460001461090a5760405162461bcd60e51b815260206004820152601960248201527f50726f6475637420494420616c7265616479206578697374730000000000000060448201526064015b60405180910390fd5b6008805490600061091a8361428c565b909155505060085461092c3382612ef8565b6109368186612f12565b6040518060e001604052808981526020018881526020014281526020018781526020016001600481111561096c5761096c613d7a565b81523360208083019190915260016040928301526000848152600990915220815181906109999082614301565b50602082015160018201906109ae9082614301565b5060408201516002820155606082015160038201906109cd9082614301565b5060808201518160040160006101000a81548160ff021916908360048111156109f8576109f8613d7a565b021790555060a08201516004909101805460c0909301511515600160a81b0260ff60a81b196001600160a01b039093166101000292909216610100600160b01b0319909316929092171790556040518190600b90610a57908b90614270565b9081526040805160209281900383018120939093556000848152600a835281812060e0850183528c85528385018c90524292850192909252606084018a90526001608085018190523360a086015260c0850189905282549081018355918152919091208251600690920201908190610acf9082614301565b5060208201516001820190610ae49082614301565b506040820151600282015560608201516003820190610b039082614301565b5060808201518160040160006101000a81548160ff02191690836004811115610b2e57610b2e613d7a565b021790555060a08201516004820180546001600160a01b0390921661010002610100600160a81b031990921691909117905560c08201516005820190610b749082614301565b505050336001600160a01b0316817fecb0f81e16c5770adc9d6fa39399183db9e321383199ead1a4910854ba4802178a8a42604051610bb5939291906143c1565b60405180910390a3336001600160a01b0316816000805160206145e083398151915260018942604051610bea939291906143f7565b60405180910390a3979650505050505050565b600080600b83604051610c109190614270565b9081526020016040518091039020549050806000036105cb5760405162461bcd60e51b8152602060048201526011602482015270141c9bd91d58dd081b9bdd08199bdd5b99607a1b6044820152606401610901565b6000610c718383611c93565b9392505050565b6001600160a01b038216610ca257604051633250574960e11b815260006004820152602401610901565b6000610caf838333612f62565b9050836001600160a01b0316816001600160a01b031614610cfd576040516364283d7b60e01b81526001600160a01b0380861660048301526024820184905282166044820152606401610901565b50505050565b6060610d1d6000805160206145c083398151915283611c93565b15610d4357505060408051808201909152600581526420a226a4a760d91b602082015290565b610d5b60008051602061456083398151915283611c93565b15610d8857505060408051808201909152600c81526b26a0a72aa320a1aa2aa922a960a11b602082015290565b610da060008051602061458083398151915283611c93565b15610dcc57505060408051808201909152600b81526a2224a9aa2924a12aaa27a960a91b602082015290565b610de46000805160206145a083398151915283611c93565b15610e0d5750506040805180820190915260088152672922aa20a4a622a960c11b602082015290565b505060408051808201909152600881526721a7a729aaa6a2a960c11b602082015290565b600082815260076020526040902060010154610e4c81612eeb565b610cfd838361305b565b6000805160206145c0833981519152610e6e81612eeb565b610e788383610e31565b60405133906001600160a01b0384169085907f03353a854f0595fb4016cfa84df1da352f25377c86bd1891e9eb17feeaae7c2a90600090a4505050565b6001600160a01b0381163314610ede5760405163334bd91960e11b815260040160405180910390fd5b610ee882826130ef565b505050565b610ee883838360405180602001604052806000815250611cd8565b600081815260096020526040902060040154606090600160a81b900460ff16610f435760405162461bcd60e51b815260040161090190614427565b6000828152600a6020908152604080832080548251818502810185019093528083529192909190849084015b8282101561124157838290600052602060002090600602016040518060e0016040529081600082018054610fa290614236565b80601f0160208091040260200160405190810160405280929190818152602001828054610fce90614236565b801561101b5780601f10610ff05761010080835404028352916020019161101b565b820191906000526020600020905b815481529060010190602001808311610ffe57829003601f168201915b5050505050815260200160018201805461103490614236565b80601f016020809104026020016040519081016040528092919081815260200182805461106090614236565b80156110ad5780601f10611082576101008083540402835291602001916110ad565b820191906000526020600020905b81548152906001019060200180831161109057829003601f168201915b50505050508152602001600282015481526020016003820180546110d090614236565b80601f01602080910402602001604051908101604052809291908181526020018280546110fc90614236565b80156111495780601f1061111e57610100808354040283529160200191611149565b820191906000526020600020905b81548152906001019060200180831161112c57829003601f168201915b505050918352505060048281015460209092019160ff169081111561117057611170613d7a565b600481111561118157611181613d7a565b8152600482015461010090046001600160a01b031660208201526005820180546040909201916111b090614236565b80601f01602080910402602001604051908101604052809291908181526020018280546111dc90614236565b80156112295780601f106111fe57610100808354040283529160200191611229565b820191906000526020600020905b81548152906001019060200180831161120c57829003601f168201915b50505050508152505081526020019060010190610f6f565b50505050905060006112616000805160206145c083398151915233611c93565b8061127c57503361127185611638565b6001600160a01b0316145b15611288575092915050565b6112a06000805160206145a083398151915233611c93565b1561130d5760005b82518110156113075760038382815181106112c5576112c5614457565b60200260200101516080015160048111156112e2576112e2613d7a565b116112f557816112f18161428c565b9250505b806112ff8161428c565b9150506112a8565b50611442565b61132560008051602061458083398151915233611c93565b1561138c5760005b825181101561130757600283828151811061134a5761134a614457565b602002602001015160800151600481111561136757611367613d7a565b1161137a57816113768161428c565b9250505b806113848161428c565b91505061132d565b6113a460008051602061456083398151915233611c93565b1561140b5760005b82518110156113075760018382815181106113c9576113c9614457565b60200260200101516080015160048111156113e6576113e6613d7a565b036113f957816113f58161428c565b9250505b806114038161428c565b9150506113ac565b600084815260096020526040902060049081015460ff168181111561143257611432613d7a565b0361143e575092915050565b5060005b60008167ffffffffffffffff81111561145d5761145d613b5f565b60405190808252806020026020018201604052801561149657816020015b6114836139b3565b81526020019060019003908161147b5790505b5090506000805b8451811080156114ac57508382105b1561162d5760006114cb6000805160206145a083398151915233611c93565b8015611506575060038683815181106114e6576114e6614457565b602002602001015160800151600481111561150357611503613d7a565b11155b15611513575060016115ce565b61152b60008051602061458083398151915233611c93565b80156115665750600286838151811061154657611546614457565b602002602001015160800151600481111561156357611563613d7a565b11155b15611573575060016115ce565b61158b60008051602061456083398151915233611c93565b80156115c5575060018683815181106115a6576115a6614457565b60200260200101516080015160048111156115c3576115c3613d7a565b145b156115ce575060015b801561161a578582815181106115e6576115e6614457565b602002602001015184848151811061160057611600614457565b602002602001018190525082806116169061428c565b9350505b50806116258161428c565b91505061149d565b509095945050505050565b60006105cb82612ea5565b60006001600160a01b03821661166f576040516322718ad960e21b815260006004820152602401610901565b506001600160a01b031660009081526003602052604090205490565b600081815260096020526040812060040154600160a81b900460ff166116c35760405162461bcd60e51b815260040161090190614427565b506000908152600a602052604090205490565b6009602052600090815260409020805481906116f190614236565b80601f016020809104026020016040519081016040528092919081815260200182805461171d90614236565b801561176a5780601f1061173f5761010080835404028352916020019161176a565b820191906000526020600020905b81548152906001019060200180831161174d57829003601f168201915b50505050509080600101805461177f90614236565b80601f01602080910402602001604051908101604052809291908181526020018280546117ab90614236565b80156117f85780601f106117cd576101008083540402835291602001916117f8565b820191906000526020600020905b8154815290600101906020018083116117db57829003601f168201915b50505050509080600201549080600301805461181390614236565b80601f016020809104026020016040519081016040528092919081815260200182805461183f90614236565b801561188c5780601f106118615761010080835404028352916020019161188c565b820191906000526020600020905b81548152906001019060200180831161186f57829003601f168201915b5050506004909301549192505060ff808216916001600160a01b0361010082041691600160a81b9091041687565b6000805160206145a08339815191526118d281612eeb565b600085815260096020526040902060040154600160a81b900460ff1661190a5760405162461bcd60e51b815260040161090190614427565b3361191486611638565b6001600160a01b03161461193a5760405162461bcd60e51b81526004016109019061446d565b6003600086815260096020526040902060049081015460ff169081111561196357611963613d7a565b146119805760405162461bcd60e51b815260040161090190614494565b61198b33858761315c565b6000858152600960208181526040808420600480820180546001600160a81b0319166101006001600160a01b038d1602179091179055600a835293819020815160e08101909252929091528254919290918291906119e890614236565b80601f0160208091040260200160405190810160405280929190818152602001828054611a1490614236565b8015611a615780601f10611a3657610100808354040283529160200191611a61565b820191906000526020600020905b815481529060010190602001808311611a4457829003601f168201915b50505050508152602001600960008981526020019081526020016000206001018054611a8c90614236565b80601f0160208091040260200160405190810160405280929190818152602001828054611ab890614236565b8015611b055780601f10611ada57610100808354040283529160200191611b05565b820191906000526020600020905b815481529060010190602001808311611ae857829003601f168201915b505050918352505042602082015260408101869052606001600481526001600160a01b03871660208083019190915260409091018590528254600181018455600093845292208151919260060201908190611b609082614301565b5060208201516001820190611b759082614301565b506040820151600282015560608201516003820190611b949082614301565b5060808201518160040160006101000a81548160ff02191690836004811115611bbf57611bbf613d7a565b021790555060a08201516004820180546001600160a01b0390921661010002610100600160a81b031990921691909117905560c08201516005820190611c059082614301565b505050836001600160a01b0316336001600160a01b0316867f9fa92e8b138a6a0678480e61b6e7a0ee30af964ea75bc7b4a7006435e0f9b537600442604051611c4f9291906144bb565b60405180910390a4836001600160a01b0316856000805160206145e083398151915260048642604051611c84939291906143f7565b60405180910390a35050505050565b60009182526007602090815260408084206001600160a01b0393909316845291905290205460ff1690565b6060600180546107c290614236565b61087933838361320c565b611ce3848484610c78565b610cfd848484846132ab565b611cf7613a01565b600082815260096020526040902060040154600160a81b900460ff16611d2f5760405162461bcd60e51b815260040161090190614427565b60008281526009602052604090819020815160e08101909252805482908290611d5790614236565b80601f0160208091040260200160405190810160405280929190818152602001828054611d8390614236565b8015611dd05780601f10611da557610100808354040283529160200191611dd0565b820191906000526020600020905b815481529060010190602001808311611db357829003601f168201915b50505050508152602001600182018054611de990614236565b80601f0160208091040260200160405190810160405280929190818152602001828054611e1590614236565b8015611e625780601f10611e3757610100808354040283529160200191611e62565b820191906000526020600020905b815481529060010190602001808311611e4557829003601f168201915b5050505050815260200160028201548152602001600382018054611e8590614236565b80601f0160208091040260200160405190810160405280929190818152602001828054611eb190614236565b8015611efe5780601f10611ed357610100808354040283529160200191611efe565b820191906000526020600020905b815481529060010190602001808311611ee157829003601f168201915b505050918352505060048281015460209092019160ff1690811115611f2557611f25613d7a565b6004811115611f3657611f36613d7a565b81526004919091015461010081046001600160a01b03166020830152600160a81b900460ff16151560409091015292915050565b60606105cb826133d4565b600080516020614580833981519152611f8d81612eeb565b600085815260096020526040902060040154600160a81b900460ff16611fc55760405162461bcd60e51b815260040161090190614427565b33611fcf86611638565b6001600160a01b031614611ff55760405162461bcd60e51b81526004016109019061446d565b6002600086815260096020526040902060049081015460ff169081111561201e5761201e613d7a565b1461203b5760405162461bcd60e51b815260040161090190614494565b6120536000805160206145a083398151915285611c93565b61209f5760405162461bcd60e51b815260206004820152601b60248201527f526563697069656e74206973206e6f7420612072657461696c657200000000006044820152606401610901565b6120aa33858761315c565b60008581526009602081815260408084206004810180546001600160a01b038b16610100026001600160a81b0319909116176003179055600a835293819020815160e081019092529290915282549192909182919061210890614236565b80601f016020809104026020016040519081016040528092919081815260200182805461213490614236565b80156121815780601f1061215657610100808354040283529160200191612181565b820191906000526020600020905b81548152906001019060200180831161216457829003601f168201915b505050505081526020016009600089815260200190815260200160002060010180546121ac90614236565b80601f01602080910402602001604051908101604052809291908181526020018280546121d890614236565b80156122255780601f106121fa57610100808354040283529160200191612225565b820191906000526020600020905b81548152906001019060200180831161220857829003601f168201915b505050918352505042602082015260408101869052606001600381526001600160a01b038716602080830191909152604090910185905282546001810184556000938452922081519192600602019081906122809082614301565b50602082015160018201906122959082614301565b5060408201516002820155606082015160038201906122b49082614301565b5060808201518160040160006101000a81548160ff021916908360048111156122df576122df613d7a565b021790555060a08201516004820180546001600160a01b0390921661010002610100600160a81b031990921691909117905560c082015160058201906123259082614301565b505050836001600160a01b0316336001600160a01b0316867f9fa92e8b138a6a0678480e61b6e7a0ee30af964ea75bc7b4a7006435e0f9b53760034260405161236f9291906144bb565b60405180910390a4836001600160a01b0316856000805160206145e083398151915260038642604051611c84939291906143f7565b600081815260096020526040902060040154606090600160a81b900460ff166123df5760405162461bcd60e51b815260040161090190614427565b336123e983611638565b6001600160a01b0316148061241157506124116000805160206145c083398151915233611c93565b6124695760405162461bcd60e51b815260206004820152602360248201527f4e6f7420617574686f72697a656420746f20766965772066756c6c20686973746044820152626f727960e81b6064820152608401610901565b6000828152600a6020908152604080832080548251818502810185019093528083529193909284015b8282101561276457838290600052602060002090600602016040518060e00160405290816000820180546124c590614236565b80601f01602080910402602001604051908101604052809291908181526020018280546124f190614236565b801561253e5780601f106125135761010080835404028352916020019161253e565b820191906000526020600020905b81548152906001019060200180831161252157829003601f168201915b5050505050815260200160018201805461255790614236565b80601f016020809104026020016040519081016040528092919081815260200182805461258390614236565b80156125d05780601f106125a5576101008083540402835291602001916125d0565b820191906000526020600020905b8154815290600101906020018083116125b357829003601f168201915b50505050508152602001600282015481526020016003820180546125f390614236565b80601f016020809104026020016040519081016040528092919081815260200182805461261f90614236565b801561266c5780601f106126415761010080835404028352916020019161266c565b820191906000526020600020905b81548152906001019060200180831161264f57829003601f168201915b505050918352505060048281015460209092019160ff169081111561269357612693613d7a565b60048111156126a4576126a4613d7a565b8152600482015461010090046001600160a01b031660208201526005820180546040909201916126d390614236565b80601f01602080910402602001604051908101604052809291908181526020018280546126ff90614236565b801561274c5780601f106127215761010080835404028352916020019161274c565b820191906000526020600020905b81548152906001019060200180831161272f57829003601f168201915b50505050508152505081526020019060010190612492565b505050509050919050565b60008281526007602052604090206001015461278a81612eeb565b610cfd83836130ef565b600a60205281600052604060002081815481106127b057600080fd5b9060005260206000209060060201600091509150508060000180546127d490614236565b80601f016020809104026020016040519081016040528092919081815260200182805461280090614236565b801561284d5780601f106128225761010080835404028352916020019161284d565b820191906000526020600020905b81548152906001019060200180831161283057829003601f168201915b50505050509080600101805461286290614236565b80601f016020809104026020016040519081016040528092919081815260200182805461288e90614236565b80156128db5780601f106128b0576101008083540402835291602001916128db565b820191906000526020600020905b8154815290600101906020018083116128be57829003601f168201915b5050505050908060020154908060030180546128f690614236565b80601f016020809104026020016040519081016040528092919081815260200182805461292290614236565b801561296f5780601f106129445761010080835404028352916020019161296f565b820191906000526020600020905b81548152906001019060200180831161295257829003601f168201915b505050506004830154600584018054939460ff8316946101009093046001600160a01b03169350916129a090614236565b80601f01602080910402602001604051908101604052809291908181526020018280546129cc90614236565b8015612a195780601f106129ee57610100808354040283529160200191612a19565b820191906000526020600020905b8154815290600101906020018083116129fc57829003601f168201915b5050505050905087565b600080516020614560833981519152612a3b81612eeb565b600085815260096020526040902060040154600160a81b900460ff16612a735760405162461bcd60e51b815260040161090190614427565b33612a7d86611638565b6001600160a01b031614612aa35760405162461bcd60e51b81526004016109019061446d565b6001600086815260096020526040902060049081015460ff1690811115612acc57612acc613d7a565b14612ae95760405162461bcd60e51b815260040161090190614494565b612b0160008051602061458083398151915285611c93565b612b4d5760405162461bcd60e51b815260206004820152601e60248201527f526563697069656e74206973206e6f742061206469737472696275746f7200006044820152606401610901565b612b5833858761315c565b60008581526009602081815260408084206004810180546001600160a01b038b16610100026001600160a81b0319909116176002179055600a835293819020815160e0810190925292909152825491929091829190612bb690614236565b80601f0160208091040260200160405190810160405280929190818152602001828054612be290614236565b8015612c2f5780601f10612c0457610100808354040283529160200191612c2f565b820191906000526020600020905b815481529060010190602001808311612c1257829003601f168201915b50505050508152602001600960008981526020019081526020016000206001018054612c5a90614236565b80601f0160208091040260200160405190810160405280929190818152602001828054612c8690614236565b8015612cd35780601f10612ca857610100808354040283529160200191612cd3565b820191906000526020600020905b815481529060010190602001808311612cb657829003601f168201915b505050918352505042602082015260408101869052606001600281526001600160a01b03871660208083019190915260409091018590528254600181018455600093845292208151919260060201908190612d2e9082614301565b5060208201516001820190612d439082614301565b506040820151600282015560608201516003820190612d629082614301565b5060808201518160040160006101000a81548160ff02191690836004811115612d8d57612d8d613d7a565b021790555060a08201516004820180546001600160a01b0390921661010002610100600160a81b031990921691909117905560c08201516005820190612dd39082614301565b505050836001600160a01b0316336001600160a01b0316867f9fa92e8b138a6a0678480e61b6e7a0ee30af964ea75bc7b4a7006435e0f9b537600242604051612e1d9291906144bb565b60405180910390a4836001600160a01b0316856000805160206145e083398151915260028642604051611c84939291906143f7565b6001600160a01b03918216600090815260056020908152604080832093909416825291909152205460ff1690565b60006001600160e01b03198216637965db0b60e01b14806105cb57506105cb826134dd565b6000818152600260205260408120546001600160a01b0316806105cb57604051637e27328960e01b815260048101849052602401610901565b610ee88383836001613502565b612ef58133613608565b50565b610879828260405180602001604052806000815250613641565b6000828152600660205260409020612f2a8282614301565b506040518281527ff8e1a15aba9398e019f0b49df1a4fde98ee17ae345cb5f6b5e2c27f5033e8ce79060200160405180910390a15050565b6000828152600260205260408120546001600160a01b0390811690831615612f8f57612f8f818486613658565b6001600160a01b03811615612fcd57612fac600085600080613502565b6001600160a01b038116600090815260036020526040902080546000190190555b6001600160a01b03851615612ffc576001600160a01b0385166000908152600360205260409020805460010190555b60008481526002602052604080822080546001600160a01b0319166001600160a01b0389811691821790925591518793918516917fddf252ad1be2c89b69c2b068fc378daa952ba7f163c4a11628f55a4df523b3ef91a4949350505050565b60006130678383611c93565b6130e75760008381526007602090815260408083206001600160a01b03861684529091529020805460ff1916600117905561309f3390565b6001600160a01b0316826001600160a01b0316847f2f8788117e7eff1d82e926ec794901d17c78024a50270940304540a733656f0d60405160405180910390a45060016105cb565b5060006105cb565b60006130fb8383611c93565b156130e75760008381526007602090815260408083206001600160a01b0386168085529252808320805460ff1916905551339286917ff6391f5c32d9c69d2a47ea670b442974b53935d1edc7fd64eb21e047a839171b9190a45060016105cb565b6001600160a01b03821661318657604051633250574960e11b815260006004820152602401610901565b600061319483836000612f62565b90506001600160a01b0381166131c057604051637e27328960e01b815260048101839052602401610901565b836001600160a01b0316816001600160a01b031614610cfd576040516364283d7b60e01b81526001600160a01b0380861660048301526024820184905282166044820152606401610901565b6001600160a01b03821661323e57604051630b61174360e31b81526001600160a01b0383166004820152602401610901565b6001600160a01b03838116600081815260056020908152604080832094871680845294825291829020805460ff191686151590811790915591519182527f17307eab39ab6107e8899845ad3d59bd9653f200f220920489ca2b5937696c31910160405180910390a3505050565b6001600160a01b0383163b15610cfd57604051630a85bd0160e11b81526001600160a01b0384169063150b7a02906132ed9033908890879087906004016144d6565b6020604051808303816000875af1925050508015613328575060408051601f3d908101601f1916820190925261332591810190614513565b60015b613391573d808015613356576040519150601f19603f3d011682016040523d82523d6000602084013e61335b565b606091505b50805160000361338957604051633250574960e11b81526001600160a01b0385166004820152602401610901565b805181602001fd5b6001600160e01b03198116630a85bd0160e11b146133cd57604051633250574960e11b81526001600160a01b0385166004820152602401610901565b5050505050565b60606133df82612ea5565b50600082815260066020526040812080546133f990614236565b80601f016020809104026020016040519081016040528092919081815260200182805461342590614236565b80156134725780601f1061344757610100808354040283529160200191613472565b820191906000526020600020905b81548152906001019060200180831161345557829003601f168201915b50505050509050600061349060408051602081019091526000815290565b905080516000036134a2575092915050565b8151156134d45780826040516020016134bc929190614530565b60405160208183030381529060405292505050919050565b6107ab846136bc565b60006001600160e01b03198216632483248360e11b14806105cb57506105cb82613730565b808061351657506001600160a01b03821615155b156135d857600061352684612ea5565b90506001600160a01b038316158015906135525750826001600160a01b0316816001600160a01b031614155b801561356557506135638184612e52565b155b1561358e5760405163a9fbf51f60e01b81526001600160a01b0384166004820152602401610901565b81156135d65783856001600160a01b0316826001600160a01b03167f8c5be1e5ebec7d5bd14f71427d1e84f3dd0314c0f7b2291e5b200ac8c7c3b92560405160405180910390a45b505b5050600090815260046020526040902080546001600160a01b0319166001600160a01b0392909216919091179055565b6136128282611c93565b6108795760405163e2517d3f60e01b81526001600160a01b038216600482015260248101839052604401610901565b61364b8383613780565b610ee860008484846132ab565b6136638383836137e5565b610ee8576001600160a01b03831661369157604051637e27328960e01b815260048101829052602401610901565b60405163177e802f60e01b81526001600160a01b038316600482015260248101829052604401610901565b60606136c782612ea5565b5060006136df60408051602081019091526000815290565b905060008151116136ff5760405180602001604052806000815250610c71565b8061370984613848565b60405160200161371a929190614530565b6040516020818303038152906040529392505050565b60006001600160e01b031982166380ac58cd60e01b148061376157506001600160e01b03198216635b5e139f60e01b145b806105cb57506301ffc9a760e01b6001600160e01b03198316146105cb565b6001600160a01b0382166137aa57604051633250574960e11b815260006004820152602401610901565b60006137b883836000612f62565b90506001600160a01b03811615610ee8576040516339e3563760e11b815260006004820152602401610901565b60006001600160a01b038316158015906107ab5750826001600160a01b0316846001600160a01b0316148061381f575061381f8484612e52565b806107ab5750506000908152600460205260409020546001600160a01b03908116911614919050565b60606000613855836138db565b600101905060008167ffffffffffffffff81111561387557613875613b5f565b6040519080825280601f01601f19166020018201604052801561389f576020820181803683370190505b5090508181016020015b600019016f181899199a1a9b1b9c1cb0b131b232b360811b600a86061a8153600a85049450846138a957509392505050565b60008072184f03e93ff9f4daa797ed6e38ed64bf6a1f0160401b831061391a5772184f03e93ff9f4daa797ed6e38ed64bf6a1f0160401b830492506040015b6d04ee2d6d415b85acef81000000008310613946576d04ee2d6d415b85acef8100000000830492506020015b662386f26fc10000831061396457662386f26fc10000830492506010015b6305f5e100831061397c576305f5e100830492506008015b612710831061399057612710830492506004015b606483106139a2576064830492506002015b600a83106105cb5760010192915050565b6040518060e0016040528060608152602001606081526020016000815260200160608152602001600060048111156139ed576139ed613d7a565b815260006020820152606060409091015290565b6040518060e001604052806060815260200160608152602001600081526020016060815260200160006004811115613a3b57613a3b613d7a565b815260006020820181905260409091015290565b6001600160e01b031981168114612ef557600080fd5b600060208284031215613a7757600080fd5b8135610c7181613a4f565b80356001600160a01b0381168114613a9957600080fd5b919050565b600060208284031215613ab057600080fd5b610c7182613a82565b60005b83811015613ad4578181015183820152602001613abc565b50506000910152565b60008151808452613af5816020860160208601613ab9565b601f01601f19169290920160200192915050565b602081526000610c716020830184613add565b600060208284031215613b2e57600080fd5b5035919050565b60008060408385031215613b4857600080fd5b613b5183613a82565b946020939093013593505050565b634e487b7160e01b600052604160045260246000fd5b600067ffffffffffffffff80841115613b9057613b90613b5f565b604051601f8501601f19908116603f01168101908282118183101715613bb857613bb8613b5f565b81604052809350858152868686011115613bd157600080fd5b858560208301376000602087830101525050509392505050565b600082601f830112613bfc57600080fd5b610c7183833560208501613b75565b600080600080600060a08688031215613c2357600080fd5b853567ffffffffffffffff80821115613c3b57600080fd5b613c4789838a01613beb565b96506020880135915080821115613c5d57600080fd5b613c6989838a01613beb565b95506040880135915080821115613c7f57600080fd5b613c8b89838a01613beb565b94506060880135915080821115613ca157600080fd5b613cad89838a01613beb565b93506080880135915080821115613cc357600080fd5b50613cd088828901613beb565b9150509295509295909350565b600060208284031215613cef57600080fd5b813567ffffffffffffffff811115613d0657600080fd5b6107ab84828501613beb565b60008060408385031215613d2557600080fd5b82359150613d3560208401613a82565b90509250929050565b600080600060608486031215613d5357600080fd5b613d5c84613a82565b9250613d6a60208501613a82565b9150604084013590509250925092565b634e487b7160e01b600052602160045260246000fd5b60058110613dae57634e487b7160e01b600052602160045260246000fd5b9052565b60006020808301818452808551808352604092508286019150828160051b87010184880160005b83811015613e9257603f19898403018552815160e08151818652613dff82870182613add565b915050888201518582038a870152613e178282613add565b915050878201518886015260608083015186830382880152613e398382613add565b92505050608080830151613e4f82880182613d90565b505060a0828101516001600160a01b03169086015260c09182015185820392860192909252613e7e8183613add565b968901969450505090860190600101613dd9565b509098975050505050505050565b60e081526000613eb360e083018a613add565b8281036020840152613ec5818a613add565b90508760408401528281036060840152613edf8188613add565b915050613eef6080830186613d90565b6001600160a01b039390931660a082015290151560c09091015295945050505050565b60008060008060808587031215613f2857600080fd5b84359350613f3860208601613a82565b9250604085013567ffffffffffffffff80821115613f5557600080fd5b613f6188838901613beb565b93506060870135915080821115613f7757600080fd5b50613f8487828801613beb565b91505092959194509250565b60008060408385031215613fa357600080fd5b613fac83613a82565b915060208301358015158114613fc157600080fd5b809150509250929050565b60008060008060808587031215613fe257600080fd5b613feb85613a82565b9350613ff960208601613a82565b925060408501359150606085013567ffffffffffffffff81111561401c57600080fd5b8501601f8101871361402d57600080fd5b613f8487823560208401613b75565b602081526000825160e06020840152614059610100840182613add565b90506020840151601f19808584030160408601526140778383613add565b92506040860151606086015260608601519150808584030160808601525061409f8282613add565b91505060808401516140b460a0850182613d90565b5060a08401516001600160a01b031660c08481019190915290930151151560e0909201919091525090565b600080604083850312156140f257600080fd5b50508035926020909101359150565b60e08152600061411460e083018a613add565b8281036020840152614126818a613add565b905087604084015282810360608401526141408188613add565b905061414f6080840187613d90565b6001600160a01b03851660a084015282810360c08401526141708185613add565b9a9950505050505050505050565b6000806040838503121561419157600080fd5b61419a83613a82565b9150613d3560208401613a82565b600082516141ba818460208701613ab9565b6c1626a0a72aa320a1aa2aa922a960991b920191825250600d01919050565b600082516141eb818460208701613ab9565b6b162224a9aa2924a12aaa27a960a11b920191825250600c01919050565b6000825161421b818460208701613ab9565b68162922aa20a4a622a960b91b920191825250600901919050565b600181811c9082168061424a57607f821691505b60208210810361426a57634e487b7160e01b600052602260045260246000fd5b50919050565b60008251614282818460208701613ab9565b9190910192915050565b6000600182016142ac57634e487b7160e01b600052601160045260246000fd5b5060010190565b601f821115610ee857600081815260208120601f850160051c810160208610156142da5750805b601f850160051c820191505b818110156142f9578281556001016142e6565b505050505050565b815167ffffffffffffffff81111561431b5761431b613b5f565b61432f816143298454614236565b846142b3565b602080601f831160018114614364576000841561434c5750858301515b600019600386901b1c1916600185901b1785556142f9565b600085815260208120601f198616915b8281101561439357888601518255948401946001909101908401614374565b50858210156143b15787850151600019600388901b60f8161c191681555b5050505050600190811b01905550565b6060815260006143d46060830186613add565b82810360208401526143e68186613add565b915050826040830152949350505050565b6144018185613d90565b6060602082015260006144176060830185613add565b9050826040830152949350505050565b602080825260169082015275141c9bd91d58dd08191bd95cc81b9bdd08195e1a5cdd60521b604082015260600190565b634e487b7160e01b600052603260045260246000fd5b6020808252600d908201526c2737ba103a34329037bbb732b960991b604082015260600190565b6020808252600d908201526c496e76616c696420737461676560981b604082015260600190565b604081016144c98285613d90565b8260208301529392505050565b6001600160a01b038581168252841660208201526040810183905260806060820181905260009061450990830184613add565b9695505050505050565b60006020828403121561452557600080fd5b8151610c7181613a4f565b60008351614542818460208801613ab9565b835190830190614556818360208801613ab9565b0194935050505056feeefb95e842a3287179d933b4460be539a1d5af11aa8b325bb45c5c8dc92de4edfbd454f36a7e1a388bd6fc3ab10d434aa4578f811acbbcf33afb1c697486313c2a5f906c256a5d799494fcd066e1f6c077689de1cdb65052a1624de4bace99bfa49807205ce4d355092ef5a8a18f56e8913cf4a201fbe287825b095693c217757611e28780c0c8d39f1b6c14d9b288e25d9f96119de96f9b070aa68731089ac5a2646970667358221220d5bcd19a02c7218b2b7d5b5b1f6bb84b6589290e0d56967c409aac47b09953da64736f6c63430008140033",
  "linkReferences": {},
  "deployedLinkReferences": {}
}