{
  "_format": "hh-sol-artifact-1",
  "contractName": "AccessManager",
  "sourceName": "contracts/AccessManager.sol",
  "abi": [
    {
      "inputs": [],
      "stateMutability": "nonpayable",
      "type": "constructor"
    },
    {
      "inputs": [],
      "name": "AccessControlBadConfirmation",
      "type": "error"
    },
    {
      "inputs": [
        {
          "internalType": "address",
          "name": "account",
          "type": "address"
        },
        {
          "internalType": "bytes32",
          "name": "neededRole",
          "type": "bytes32"
        }
      ],
      "name": "AccessControlUnauthorizedAccount",
      "type": "error"
    },
    {
      "anonymous": false,
      "inputs": [
        {
          "indexed": true,
          "internalType": "address",
          "name": "wallet",
          "type": "address"
        },
        {
          "indexed": false,
          "internalType": "uint256",
          "name": "timestamp",
          "type": "uint256"
        }
      ],
      "name": "ParticipantDeactivated",
      "type": "event"
    },
    {
      "anonymous": false,
      "inputs": [
        {
          "indexed": true,
          "internalType": "address",
          "name": "wallet",
          "type": "address"
        },
        {
          "indexed": false,
          "internalType": "uint256",
          "name": "timestamp",
          "type": "uint256"
        }
      ],
      "name": "ParticipantReactivated",
      "type": "event"
    },
    {
      "anonymous": false,
      "inputs": [
        {
          "indexed": true,
          "internalType": "address",
          "name": "wallet",
          "type": "address"
        },
        {
          "indexed": false,
          "internalType": "string",
          "name": "name",
          "type": "string"
        },
        {
          "indexed": false,
          "internalType": "bytes32",
          "name": "role",
          "type": "bytes32"
        },
        {
          "indexed": false,
          "internalType": "uint256",
          "name": "timestamp",
          "type": "uint256"
        }
      ],
      "name": "ParticipantRegistered",
      "type": "event"
    },
    {
      "anonymous": false,
      "inputs": [
        {
          "indexed": true,
          "internalType": "bytes32",
          "name": "role",
          "type": "bytes32"
        },
        {
          "indexed": true,
          "internalType": "bytes32",
          "name": "previousAdminRole",
          "type": "bytes32"
        },
        {
          "indexed": true,
          "internalType": "bytes32",
          "name": "newAdminRole",
          "type": "bytes32"
        }
      ],
      "name": "RoleAdminChanged",
      "type": "event"
    },
    {
      "anonymous": false,
      "inputs": [
        {
          "indexed": true,
          "internalType": "address",
          "name": "wallet",
          "type": "address"
        },
        {
          "indexed": false,
          "internalType": "bytes32",
          "name": "oldRole",
          "type": "bytes32"
        },
        {
          "indexed": false,
          "internalType": "bytes32",
          "name": "newRole",
          "type": "bytes32"
        },
        {
          "indexed": false,
          "internalType": "uint256",
          "name": "timestamp",
          "type": "uint256"
        }
      ],
      "name": "RoleChanged",
      "type": "event"
    },
    {
      "anonymous": false,
      "inputs": [
        {
          "indexed": true,
          "internalType": "bytes32",
          "name": "role",
          "type": "bytes32"
        },
        {
          "indexed": true,
          "internalType": "address",
          "name": "account",
          "type": "address"
        },
        {
          "indexed": true,
          "internalType": "address",
          "name": "sender",
          "type": "address"
        }
      ],
      "name": "RoleGranted",
      "type": "event"
    },
    {
      "anonymous": false,
      "inputs": [
        {
          "indexed": true,
          "internalType": "bytes32",
          "name": "role",
          "type": "bytes32"
        },
        {
          "indexed": true,
          "internalType": "address",
          "name": "account",
          "type": "address"
        },
        {
          "indexed": true,
          "internalType": "address",
          "name": "sender",
          "type": "address"
        }
      ],
      "name": "RoleRevoked",
      "type": "event"
    },
    {
      "inputs": [],
      "name": "ADMIN_ROLE",
      "outputs": [
        {
          "internalType": "bytes32",
          "name": "",
          "type": "bytes32"
        }
      ],
      "stateMutability": "view",
      "type": "function"
    },
    {
      "inputs": [],
      "name": "DEFAULT_ADMIN_ROLE",
      "outputs": [
        {
          "internalType": "bytes32",
          "name": "",
          "type": "bytes32"
        }
      ],
      "stateMutability": "view",
      "type": "function"
    },
    {
      "inputs": [],
      "name": "DISTRIBUTOR_ROLE",
      "outputs": [
        {
          "internalType": "bytes32",
          "name": "",
          "type": "bytes32"
        }
      ],
      "stateMutability": "view",
      "type": "function"
    },
    {
      "inputs": [],
      "name": "MANUFACTURER_ROLE",
      "outputs": [
        {
          "internalType": "bytes32",
          "name": "",
          "type": "bytes32"
        }
      ],
      "stateMutability": "view",
      "type": "function"
    },
    {
      "inputs": [],
      "name": "RETAILER_ROLE",
      "outputs": [
        {
          "internalType": "bytes32",
          "name": "",
          "type": "bytes32"
        }
      ],
      "stateMutability": "view",
      "type": "function"
    },
    {
      "inputs": [
        {
          "internalType": "address",
          "name": "wallet",
          "type": "address"
        },
        {
          "internalType": "bytes32",
          "name": "newRole",
          "type": "bytes32"
        }
      ],
      "name": "changeRole",
      "outputs": [],
      "stateMutability": "nonpayable",
      "type": "function"
    },
    {
      "inputs": [
        {
          "internalType": "address",
          "name": "wallet",
          "type": "address"
        }
      ],
      "name": "deactivateParticipant",
      "outputs": [],
      "stateMutability": "nonpayable",
      "type": "function"
    },
    {
      "inputs": [
        {
          "internalType": "address",
          "name": "wallet",
          "type": "address"
        }
      ],
      "name": "getParticipant",
      "outputs": [
        {
          "components": [
            {
              "internalType": "address",
              "name": "walletAddress",
              "type": "address"
            },
            {
              "internalType": "string",
              "name": "name",
              "type": "string"
            },
            {
              "internalType": "string",
              "name": "location",
              "type": "string"
            },
            {
              "internalType": "bytes32",
              "name": "role",
              "type": "bytes32"
            },
            {
              "internalType": "uint256",
              "name": "registeredAt",
              "type": "uint256"
            },
            {
              "internalType": "bool",
              "name": "isActive",
              "type": "bool"
            }
          ],
          "internalType": "struct AccessManager.Participant",
          "name": "",
          "type": "tuple"
        }
      ],
      "stateMutability": "view",
      "type": "function"
    },
    {
      "inputs": [],
      "name": "getParticipantCount",
      "outputs": [
        {
          "internalType": "uint256",
          "name": "",
          "type": "uint256"
        }
      ],
      "stateMutability": "view",
      "type": "function"
    },
    {
      "inputs": [
        {
          "internalType": "bytes32",
          "name": "role",
          "type": "bytes32"
        }
      ],
      "name": "getParticipantsByRole",
      "outputs": [
        {
          "internalType": "address[]",
          "name": "",
          "type": "address[]"
        }
      ],
      "stateMutability": "view",
      "type": "function"
    },
    {
      "inputs": [
        {
          "internalType": "address",
          "name": "wallet",
          "type": "address"
        }
      ],
      "name": "getRole",
      "outputs": [
        {
          "internalType": "bytes32",
          "name": "",
          "type": "bytes32"
        }
      ],
      "stateMutability": "view",
      "type": "function"
    },
    {
      "inputs": [
        {
          "internalType": "bytes32",
          "name": "role",
          "type": "bytes32"
        }
      ],
      "name": "getRoleAdmin",
      "outputs": [
        {
          "internalType": "bytes32",
          "name": "",
          "type": "bytes32"
        }
      ],
      "stateMutability": "view",
      "type": "function"
    },
    {
      "inputs": [
        {
          "internalType": "address",
          "name": "wallet",
          "type": "address"
        }
      ],
      "name": "getRoleName",
      "outputs": [
        {
          "internalType": "string",
          "name": "",
          "type": "string"
        }
      ],
      "stateMutability": "view",
      "type": "function"
    },
    {
      "inputs": [
        {
          "internalType": "bytes32",
          "name": "role",
          "type": "bytes32"
        },
        {
          "internalType": "address",
          "name": "account",
          "type": "address"
        }
      ],
      "name": "grantRole",
      "outputs": [],
      "stateMutability": "nonpayable",
      "type": "function"
    },
    {
      "inputs": [
        {
          "internalType": "bytes32",
          "name": "role",
          "type": "bytes32"
        },
        {
          "internalType": "address",
          "name": "account",
          "type": "address"
        }
      ],
      "name": "hasRole",
      "outputs": [
        {
          "internalType": "bool",
          "name": "",
          "type": "bool"
        }
      ],
      "stateMutability": "view",
      "type": "function"
    },
    {
      "inputs": [
        {
          "internalType": "address",
          "name": "wallet",
          "type": "address"
        }
      ],
      "name": "isRegistered",
      "outputs": [
        {
          "internalType": "bool",
          "name": "",
          "type": "bool"
        }
      ],
      "stateMutability": "view",
      "type": "function"
    },
    {
      "inputs": [
        {
          "internalType": "uint256",
          "name": "",
          "type": "uint256"
        }
      ],
      "name": "participantAddresses",
      "outputs": [
        {
          "internalType": "address",
          "name": "",
          "type": "address"
        }
      ],
      "stateMutability": "view",
      "type": "function"
    },
    {
      "inputs": [
        {
          "internalType": "address",
          "name": "",
          "type": "address"
        }
      ],
      "name": "participants",
      "outputs": [
        {
          "internalType": "address",
          "name": "walletAddress",
          "type": "address"
        },
        {
          "internalType": "string",
          "name": "name",
          "type": "string"
        },
        {
          "internalType": "string",
          "name": "location",
          "type": "string"
        },
        {
          "internalType": "bytes32",
          "name": "role",
          "type": "bytes32"
        },
        {
          "internalType": "uint256",
          "name": "registeredAt",
          "type": "uint256"
        },
        {
          "internalType": "bool",
          "name": "isActive",
          "type": "bool"
        }
      ],
      "stateMutability": "view",
      "type": "function"
    },
    {
      "inputs": [
        {
          "internalType": "address",
          "name": "wallet",
          "type": "address"
        }
      ],
      "name": "reactivateParticipant",
      "outputs": [],
      "stateMutability": "nonpayable",
      "type": "function"
    },
    {
      "inputs": [
        {
          "internalType": "address",
          "name": "wallet",
          "type": "address"
        },
        {
          "internalType": "string",
          "name": "name",
          "type": "string"
        },
        {
          "internalType": "string",
          "name": "location",
          "type": "string"
        },
        {
          "internalType": "bytes32",
          "name": "role",
          "type": "bytes32"
        }
      ],
      "name": "registerParticipant",
      "outputs": [],
      "stateMutability": "nonpayable",
      "type": "function"
    },
    {
      "inputs": [
        {
          "internalType": "bytes32",
          "name": "role",
          "type": "bytes32"
        },
        {
          "internalType": "address",
          "name": "callerConfirmation",
          "type": "address"
        }
      ],
      "name": "renounceRole",
      "outputs": [],
      "stateMutability": "nonpayable",
      "type": "function"
    },
    {
      "inputs": [
        {
          "internalType": "bytes32",
          "name": "role",
          "type": "bytes32"
        },
        {
          "internalType": "address",
          "name": "account",
          "type": "address"
        }
      ],
      "name": "revokeRole",
      "outputs": [],
      "stateMutability": "nonpayable",
      "type": "function"
    },
    {
      "inputs": [
        {
          "internalType": "string",
          "name": "name",
          "type": "string"
        },
        {
          "internalType": "string",
          "name": "location",
          "type": "string"
        }
      ],
      "name": "selfRegister",
      "outputs": [],
      "stateMutability": "nonpayable",
      "type": "function"
    },
    {
      "inputs": [
        {
          "internalType": "bytes4",
          "name": "interfaceId",
          "type": "bytes4"
        }
      ],
      "name": "supportsInterface",
      "outputs": [
        {
          "internalType": "bool",
          "name": "",
          "type": "bool"
        }
      ],
      "stateMutability": "view",
      "type": "function"
    }
  ],
  "bytecode": "0x60806040523480156200001157600080fd5b506200001f60003362000184565b506200003b60008051602062001f368339815191523362000184565b506040805160c0810182523380825282518084018452600c81526b29bcb9ba32b69020b236b4b760a11b60208083019190915280840191825284518086018652600681526553797374656d60d01b818301528486015260008051602062001f368339815191526060850152426080850152600160a0850181905260009384529081905293909120825181546001600160a01b0319166001600160a01b0390911617815590519192909190820190620000f49082620002d8565b50604082015160028201906200010b9082620002d8565b50606082015160038201556080820151600482015560a0909101516005909101805491151560ff19909216919091179055600280546001810182556000919091527f405787fa12a823e0f2b7631cc41b3ba8828b3321ca811111fa75cd3aa3bb5ace0180546001600160a01b03191633179055620003a4565b6000828152602081815260408083206001600160a01b038516845290915281205460ff1662000229576000838152602081815260408083206001600160a01b03861684529091529020805460ff19166001179055620001e03390565b6001600160a01b0316826001600160a01b0316847f2f8788117e7eff1d82e926ec794901d17c78024a50270940304540a733656f0d60405160405180910390a45060016200022d565b5060005b92915050565b634e487b7160e01b600052604160045260246000fd5b600181811c908216806200025e57607f821691505b6020821081036200027f57634e487b7160e01b600052602260045260246000fd5b50919050565b601f821115620002d357600081815260208120601f850160051c81016020861015620002ae5750805b601f850160051c820191505b81811015620002cf57828155600101620002ba565b5050505b505050565b81516001600160401b03811115620002f457620002f462000233565b6200030c8162000305845462000249565b8462000285565b602080601f8311600181146200034457600084156200032b5750858301515b600019600386901b1c1916600185901b178555620002cf565b600085815260208120601f198616915b82811015620003755788860151825594840194600190910190840162000354565b5085821015620003945787850151600019600388901b60f8161c191681555b5050505050600190811b01905550565b611b8280620003b46000396000f3fe608060405234801561001057600080fd5b50600436106101575760003560e01c80637143059f116100c3578063c3c5a5471161007c578063c3c5a54714610341578063c63ea0c214610370578063cb611ac114610383578063d547741f14610396578063de97b81c146103a9578063f0bd87cc146103bc57600080fd5b80637143059f146102d457806375b238fc146102f457806391d1485414610309578063965288b01461031c578063a217fddf14610331578063ad6057291461033957600080fd5b80632115e7bf116101155780632115e7bf14610211578063248a9ca3146102345780632f2ff15d1461025757806336568abe1461026a578063442767331461027d57806354ffbddb146102a957600080fd5b806248e5a51461015c57806301ffc9a71461017157806309e69ede146101995780631ba9de5e146101be5780631c615bba146101d15780631e2f21a1146101f1575b600080fd5b61016f61016a36600461156f565b6103d1565b005b61018461017f366004611591565b61055c565b60405190151581526020015b60405180910390f35b6101ac6101a736600461156f565b610593565b60405161019096959493929190611601565b61016f6101cc3660046116fb565b6106e8565b6101e46101df36600461156f565b61086a565b604051610190919061175f565b6102046101ff366004611772565b6109b1565b604051610190919061178b565b610226600080516020611b0d83398151915281565b604051908152602001610190565b610226610242366004611772565b60009081526020819052604090206001015490565b61016f6102653660046117d8565b610bdc565b61016f6102783660046117d8565b610c07565b61022661028b36600461156f565b6001600160a01b031660009081526001602052604090206003015490565b6102bc6102b7366004611772565b610c3f565b6040516001600160a01b039091168152602001610190565b6102e76102e236600461156f565b610c69565b6040516101909190611804565b610226600080516020611b2d83398151915281565b6101846103173660046117d8565b610e14565b610226600080516020611acd83398151915281565b610226600081565b600254610226565b61018461034f36600461156f565b6001600160a01b031660009081526001602052604090206005015460ff1690565b61016f61037e36600461187c565b610e3d565b61016f6103913660046118f8565b6110e5565b61016f6103a43660046117d8565b61128a565b61016f6103b736600461156f565b6112af565b610226600080516020611aed83398151915281565b600080516020611b2d8339815191526103e98161140c565b6001600160a01b038281166000908152600160205260409020541661044d5760405162461bcd60e51b815260206004820152601560248201527414185c9d1a58da5c185b9d081b9bdd08199bdd5b99605a1b60448201526064015b60405180910390fd5b6001600160a01b03821660009081526001602052604090206005015460ff16156104b95760405162461bcd60e51b815260206004820152601a60248201527f5061727469636970616e7420616c7265616479206163746976650000000000006044820152606401610444565b6001600160a01b038216600090815260016020819052604090912060058101805460ff19169092179091556003015415610515576001600160a01b0382166000908152600160205260409020600301546105139083611419565b505b816001600160a01b03167f45d631ad8cee194597e82781f00c6b09a138612318c859c2a72b77360be5d6264260405161055091815260200190565b60405180910390a25050565b60006001600160e01b03198216637965db0b60e01b148061058d57506301ffc9a760e01b6001600160e01b03198316145b92915050565b6001602081905260009182526040909120805491810180546001600160a01b03909316926105c090611922565b80601f01602080910402602001604051908101604052809291908181526020018280546105ec90611922565b80156106395780601f1061060e57610100808354040283529160200191610639565b820191906000526020600020905b81548152906001019060200180831161061c57829003601f168201915b50505050509080600201805461064e90611922565b80601f016020809104026020016040519081016040528092919081815260200182805461067a90611922565b80156106c75780601f1061069c576101008083540402835291602001916106c7565b820191906000526020600020905b8154815290600101906020018083116106aa57829003601f168201915b50505050600383015460048401546005909401549293909290915060ff1686565b3360009081526001602052604090206005015460ff16156107405760405162461bcd60e51b8152602060048201526012602482015271105b1c9958591e481c9959da5cdd195c995960721b6044820152606401610444565b6040805160c081018252338082526020808301868152838501869052600060608501819052426080860152600160a0860181905293815291839052939020825181546001600160a01b0319166001600160a01b039091161781559251919291908201906107ad90826119aa565b50604082015160028201906107c290826119aa565b50606082015160038201556080820151600482015560a0909101516005909101805460ff19169115159190911790556002805460018101825560009182527f405787fa12a823e0f2b7631cc41b3ba8828b3321ca811111fa75cd3aa3bb5ace018054336001600160a01b0319909116811790915560405190917fabda3f2733cd88acd5b0df21d418637ff420736ee147f9bff84e757c0fc12036916105509186914290611a6a565b6001600160a01b0381166000908152600160205260409020600301546060907f5b67f8dfa31b2caaf6d10a575e70a9176ec30b5dfe041d787da4f6a96c3de88b81016108d357505060408051808201909152600581526420a226a4a760d91b6020820152919050565b600080516020611acd833981519152810361091257505060408051808201909152600c81526b26a0a72aa320a1aa2aa922a960a11b6020820152919050565b600080516020611aed833981519152810361095057505060408051808201909152600b81526a2224a9aa2924a12aaa27a960a91b6020820152919050565b600080516020611b0d833981519152810361098b5750506040805180820190915260088152672922aa20a4a622a960c11b6020820152919050565b505060408051808201909152600881526721a7a729aaa6a2a960c11b6020820152919050565b60606000805b600254811015610a71578360016000600284815481106109d9576109d9611a8f565b60009182526020808320909101546001600160a01b03168352820192909252604001902060030154148015610a4c57506001600060028381548110610a2057610a20611a8f565b60009182526020808320909101546001600160a01b0316835282019290925260400190206005015460ff165b15610a5f5781610a5b81611aa5565b9250505b80610a6981611aa5565b9150506109b7565b5060008167ffffffffffffffff811115610a8d57610a8d611658565b604051908082528060200260200182016040528015610ab6578160200160208202803683370190505b5090506000805b600254811015610bd257856001600060028481548110610adf57610adf611a8f565b60009182526020808320909101546001600160a01b03168352820192909252604001902060030154148015610b5257506001600060028381548110610b2657610b26611a8f565b60009182526020808320909101546001600160a01b0316835282019290925260400190206005015460ff165b15610bc05760028181548110610b6a57610b6a611a8f565b9060005260206000200160009054906101000a90046001600160a01b0316838381518110610b9a57610b9a611a8f565b6001600160a01b039092166020928302919091019091015281610bbc81611aa5565b9250505b80610bca81611aa5565b915050610abd565b5090949350505050565b600082815260208190526040902060010154610bf78161140c565b610c018383611419565b50505050565b6001600160a01b0381163314610c305760405163334bd91960e11b815260040160405180910390fd5b610c3a82826114ab565b505050565b60028181548110610c4f57600080fd5b6000918252602090912001546001600160a01b0316905081565b6040805160c080820183526000808352606060208085018290528486018290529084018290526080840182905260a084018290526001600160a01b0386811683526001808352928690208651948501909652855416835290840180549394929391840191610cd690611922565b80601f0160208091040260200160405190810160405280929190818152602001828054610d0290611922565b8015610d4f5780601f10610d2457610100808354040283529160200191610d4f565b820191906000526020600020905b815481529060010190602001808311610d3257829003601f168201915b50505050508152602001600282018054610d6890611922565b80601f0160208091040260200160405190810160405280929190818152602001828054610d9490611922565b8015610de15780601f10610db657610100808354040283529160200191610de1565b820191906000526020600020905b815481529060010190602001808311610dc457829003601f168201915b5050509183525050600382015460208201526004820154604082015260059091015460ff16151560609091015292915050565b6000918252602082815260408084206001600160a01b0393909316845291905290205460ff1690565b600080516020611b2d833981519152610e558161140c565b6001600160a01b038516610ea45760405162461bcd60e51b8152602060048201526016602482015275496e76616c69642077616c6c6574206164647265737360501b6044820152606401610444565b6001600160a01b03851660009081526001602052604090206005015460ff1615610f105760405162461bcd60e51b815260206004820152601e60248201527f5061727469636970616e7420616c7265616479207265676973746572656400006044820152606401610444565b600080516020611acd833981519152821480610f395750600080516020611aed83398151915282145b80610f515750600080516020611b0d83398151915282145b610f8c5760405162461bcd60e51b815260206004820152600c60248201526b496e76616c696420726f6c6560a01b6044820152606401610444565b6040805160c0810182526001600160a01b03878116808352602080840189815284860189905260608501889052426080860152600160a0860181905260009384529182905294909120835181546001600160a01b031916931692909217825592519192909190820190610fff90826119aa565b506040820151600282019061101490826119aa565b50606082015160038201556080820151600482015560a0909101516005909101805460ff1916911515919091179055600280546001810182556000919091527f405787fa12a823e0f2b7631cc41b3ba8828b3321ca811111fa75cd3aa3bb5ace0180546001600160a01b0319166001600160a01b0387161790556110988286611419565b50846001600160a01b03167fabda3f2733cd88acd5b0df21d418637ff420736ee147f9bff84e757c0fc120368584426040516110d693929190611a6a565b60405180910390a25050505050565b600080516020611b2d8339815191526110fd8161140c565b6001600160a01b03831660009081526001602052604090206005015460ff166111615760405162461bcd60e51b81526020600482015260166024820152755061727469636970616e74206e6f742061637469766560501b6044820152606401610444565b600080516020611acd83398151915282148061118a5750600080516020611aed83398151915282145b806111a25750600080516020611b0d83398151915282145b806111ab575081155b6111e65760405162461bcd60e51b815260206004820152600c60248201526b496e76616c696420726f6c6560a01b6044820152606401610444565b6001600160a01b03831660009081526001602052604090206003015480156112145761121281856114ab565b505b8215611226576112248385611419565b505b6001600160a01b0384166000818152600160209081526040918290206003018690558151848152908101869052428183015290517fff6519e70b322c33a958909a3937eb3a056828b2f0579be7970ba854b8948ec69181900360600190a250505050565b6000828152602081905260409020600101546112a58161140c565b610c0183836114ab565b600080516020611b2d8339815191526112c78161140c565b6001600160a01b03821660009081526001602052604090206005015460ff1661132b5760405162461bcd60e51b81526020600482015260166024820152755061727469636970616e74206e6f742061637469766560501b6044820152606401610444565b336001600160a01b0383160361137c5760405162461bcd60e51b815260206004820152601660248201527521b0b73737ba103232b0b1ba34bb30ba329039b2b63360511b6044820152606401610444565b6001600160a01b038216600090815260016020526040902060058101805460ff1916905560030154156113d1576001600160a01b0382166000908152600160205260409020600301546113cf90836114ab565b505b816001600160a01b03167f463e83e28541b329ba8d07da53541bc06ca11efe45ec023c21d8d8a1a9aaa85a4260405161055091815260200190565b6114168133611516565b50565b60006114258383610e14565b6114a3576000838152602081815260408083206001600160a01b03861684529091529020805460ff1916600117905561145b3390565b6001600160a01b0316826001600160a01b0316847f2f8788117e7eff1d82e926ec794901d17c78024a50270940304540a733656f0d60405160405180910390a450600161058d565b50600061058d565b60006114b78383610e14565b156114a3576000838152602081815260408083206001600160a01b0386168085529252808320805460ff1916905551339286917ff6391f5c32d9c69d2a47ea670b442974b53935d1edc7fd64eb21e047a839171b9190a450600161058d565b6115208282610e14565b61154f5760405163e2517d3f60e01b81526001600160a01b038216600482015260248101839052604401610444565b5050565b80356001600160a01b038116811461156a57600080fd5b919050565b60006020828403121561158157600080fd5b61158a82611553565b9392505050565b6000602082840312156115a357600080fd5b81356001600160e01b03198116811461158a57600080fd5b6000815180845260005b818110156115e1576020818501810151868301820152016115c5565b506000602082860101526020601f19601f83011685010191505092915050565b6001600160a01b038716815260c060208201819052600090611625908301886115bb565b828103604084015261163781886115bb565b606084019690965250506080810192909252151560a0909101529392505050565b634e487b7160e01b600052604160045260246000fd5b600082601f83011261167f57600080fd5b813567ffffffffffffffff8082111561169a5761169a611658565b604051601f8301601f19908116603f011681019082821181831017156116c2576116c2611658565b816040528381528660208588010111156116db57600080fd5b836020870160208301376000602085830101528094505050505092915050565b6000806040838503121561170e57600080fd5b823567ffffffffffffffff8082111561172657600080fd5b6117328683870161166e565b9350602085013591508082111561174857600080fd5b506117558582860161166e565b9150509250929050565b60208152600061158a60208301846115bb565b60006020828403121561178457600080fd5b5035919050565b6020808252825182820181905260009190848201906040850190845b818110156117cc5783516001600160a01b0316835292840192918401916001016117a7565b50909695505050505050565b600080604083850312156117eb57600080fd5b823591506117fb60208401611553565b90509250929050565b602080825282516001600160a01b03168282015282015160c0604083015260009061183260e08401826115bb565b90506040840151601f1984830301606085015261184f82826115bb565b91505060608401516080840152608084015160a084015260a0840151151560c08401528091505092915050565b6000806000806080858703121561189257600080fd5b61189b85611553565b9350602085013567ffffffffffffffff808211156118b857600080fd5b6118c48883890161166e565b945060408701359150808211156118da57600080fd5b506118e78782880161166e565b949793965093946060013593505050565b6000806040838503121561190b57600080fd5b61191483611553565b946020939093013593505050565b600181811c9082168061193657607f821691505b60208210810361195657634e487b7160e01b600052602260045260246000fd5b50919050565b601f821115610c3a57600081815260208120601f850160051c810160208610156119835750805b601f850160051c820191505b818110156119a25782815560010161198f565b505050505050565b815167ffffffffffffffff8111156119c4576119c4611658565b6119d8816119d28454611922565b8461195c565b602080601f831160018114611a0d57600084156119f55750858301515b600019600386901b1c1916600185901b1785556119a2565b600085815260208120601f198616915b82811015611a3c57888601518255948401946001909101908401611a1d565b5085821015611a5a5787850151600019600388901b60f8161c191681555b5050505050600190811b01905550565b606081526000611a7d60608301866115bb565b60208301949094525060400152919050565b634e487b7160e01b600052603260045260246000fd5b600060018201611ac557634e487b7160e01b600052601160045260246000fd5b506001019056feeefb95e842a3287179d933b4460be539a1d5af11aa8b325bb45c5c8dc92de4edfbd454f36a7e1a388bd6fc3ab10d434aa4578f811acbbcf33afb1c697486313c2a5f906c256a5d799494fcd066e1f6c077689de1cdb65052a1624de4bace99bfa49807205ce4d355092ef5a8a18f56e8913cf4a201fbe287825b095693c21775a2646970667358221220681ff64713be05bddf3f98d9f1e060a01cde802b595ef2cf3c1280df7300848b64736f6c63430008140033a49807205ce4d355092ef5a8a18f56e8913cf4a201fbe287825b095693c21775",
  "linkReferences": {},
  "deployedLinkReferences": {}
}